
F767.elf:     file format elf32-littlearm

Sections:
Idx Name          Size      VMA       LMA       File off  Algn
  0 .isr_vector   000001f8  08000000  08000000  00010000  2**0
                  CONTENTS, ALLOC, LOAD, READONLY, DATA
  1 .text         00001540  080001f8  080001f8  000101f8  2**2
                  CONTENTS, ALLOC, LOAD, READONLY, CODE
  2 .rodata       00000010  08001738  08001738  00011738  2**2
                  CONTENTS, ALLOC, LOAD, READONLY, DATA
  3 .ARM.extab    00000000  08001748  08001748  0002000c  2**0
                  CONTENTS
  4 .ARM          00000008  08001748  08001748  00011748  2**2
                  CONTENTS, ALLOC, LOAD, READONLY, DATA
  5 .preinit_array 00000000  08001750  08001750  0002000c  2**0
                  CONTENTS, ALLOC, LOAD, DATA
  6 .init_array   00000004  08001750  08001750  00011750  2**2
                  CONTENTS, ALLOC, LOAD, DATA
  7 .fini_array   00000004  08001754  08001754  00011754  2**2
                  CONTENTS, ALLOC, LOAD, DATA
  8 .data         0000000c  20000000  08001758  00020000  2**2
                  CONTENTS, ALLOC, LOAD, DATA
  9 .bss          00000020  2000000c  08001764  0002000c  2**2
                  ALLOC
 10 ._user_heap_stack 00000604  2000002c  08001764  0002002c  2**0
                  ALLOC
 11 .ARM.attributes 0000002e  00000000  00000000  0002000c  2**0
                  CONTENTS, READONLY
 12 .debug_info   00004999  00000000  00000000  0002003a  2**0
                  CONTENTS, READONLY, DEBUGGING
 13 .debug_abbrev 00000f72  00000000  00000000  000249d3  2**0
                  CONTENTS, READONLY, DEBUGGING
 14 .debug_aranges 00000490  00000000  00000000  00025948  2**3
                  CONTENTS, READONLY, DEBUGGING
 15 .debug_ranges 000003f8  00000000  00000000  00025dd8  2**3
                  CONTENTS, READONLY, DEBUGGING
 16 .debug_macro  00025212  00000000  00000000  000261d0  2**0
                  CONTENTS, READONLY, DEBUGGING
 17 .debug_line   00004993  00000000  00000000  0004b3e2  2**0
                  CONTENTS, READONLY, DEBUGGING
 18 .debug_str    000e6c9e  00000000  00000000  0004fd75  2**0
                  CONTENTS, READONLY, DEBUGGING
 19 .comment      0000007b  00000000  00000000  00136a13  2**0
                  CONTENTS, READONLY
 20 .debug_frame  00001060  00000000  00000000  00136a90  2**2
                  CONTENTS, READONLY, DEBUGGING

Disassembly of section .text:

080001f8 <__do_global_dtors_aux>:
 80001f8:	b510      	push	{r4, lr}
 80001fa:	4c05      	ldr	r4, [pc, #20]	; (8000210 <__do_global_dtors_aux+0x18>)
 80001fc:	7823      	ldrb	r3, [r4, #0]
 80001fe:	b933      	cbnz	r3, 800020e <__do_global_dtors_aux+0x16>
 8000200:	4b04      	ldr	r3, [pc, #16]	; (8000214 <__do_global_dtors_aux+0x1c>)
 8000202:	b113      	cbz	r3, 800020a <__do_global_dtors_aux+0x12>
 8000204:	4804      	ldr	r0, [pc, #16]	; (8000218 <__do_global_dtors_aux+0x20>)
 8000206:	f3af 8000 	nop.w
 800020a:	2301      	movs	r3, #1
 800020c:	7023      	strb	r3, [r4, #0]
 800020e:	bd10      	pop	{r4, pc}
 8000210:	2000000c 	.word	0x2000000c
 8000214:	00000000 	.word	0x00000000
 8000218:	08001720 	.word	0x08001720

0800021c <frame_dummy>:
 800021c:	b508      	push	{r3, lr}
 800021e:	4b03      	ldr	r3, [pc, #12]	; (800022c <frame_dummy+0x10>)
 8000220:	b11b      	cbz	r3, 800022a <frame_dummy+0xe>
 8000222:	4903      	ldr	r1, [pc, #12]	; (8000230 <frame_dummy+0x14>)
 8000224:	4803      	ldr	r0, [pc, #12]	; (8000234 <frame_dummy+0x18>)
 8000226:	f3af 8000 	nop.w
 800022a:	bd08      	pop	{r3, pc}
 800022c:	00000000 	.word	0x00000000
 8000230:	20000010 	.word	0x20000010
 8000234:	08001720 	.word	0x08001720

08000238 <__aeabi_uldivmod>:
 8000238:	b953      	cbnz	r3, 8000250 <__aeabi_uldivmod+0x18>
 800023a:	b94a      	cbnz	r2, 8000250 <__aeabi_uldivmod+0x18>
 800023c:	2900      	cmp	r1, #0
 800023e:	bf08      	it	eq
 8000240:	2800      	cmpeq	r0, #0
 8000242:	bf1c      	itt	ne
 8000244:	f04f 31ff 	movne.w	r1, #4294967295	; 0xffffffff
 8000248:	f04f 30ff 	movne.w	r0, #4294967295	; 0xffffffff
 800024c:	f000 b972 	b.w	8000534 <__aeabi_idiv0>
 8000250:	f1ad 0c08 	sub.w	ip, sp, #8
 8000254:	e96d ce04 	strd	ip, lr, [sp, #-16]!
 8000258:	f000 f806 	bl	8000268 <__udivmoddi4>
 800025c:	f8dd e004 	ldr.w	lr, [sp, #4]
 8000260:	e9dd 2302 	ldrd	r2, r3, [sp, #8]
 8000264:	b004      	add	sp, #16
 8000266:	4770      	bx	lr

08000268 <__udivmoddi4>:
 8000268:	e92d 47f0 	stmdb	sp!, {r4, r5, r6, r7, r8, r9, sl, lr}
 800026c:	9e08      	ldr	r6, [sp, #32]
 800026e:	4604      	mov	r4, r0
 8000270:	4688      	mov	r8, r1
 8000272:	2b00      	cmp	r3, #0
 8000274:	d14b      	bne.n	800030e <__udivmoddi4+0xa6>
 8000276:	428a      	cmp	r2, r1
 8000278:	4615      	mov	r5, r2
 800027a:	d967      	bls.n	800034c <__udivmoddi4+0xe4>
 800027c:	fab2 f282 	clz	r2, r2
 8000280:	b14a      	cbz	r2, 8000296 <__udivmoddi4+0x2e>
 8000282:	f1c2 0720 	rsb	r7, r2, #32
 8000286:	fa01 f302 	lsl.w	r3, r1, r2
 800028a:	fa20 f707 	lsr.w	r7, r0, r7
 800028e:	4095      	lsls	r5, r2
 8000290:	ea47 0803 	orr.w	r8, r7, r3
 8000294:	4094      	lsls	r4, r2
 8000296:	ea4f 4e15 	mov.w	lr, r5, lsr #16
 800029a:	0c23      	lsrs	r3, r4, #16
 800029c:	fbb8 f7fe 	udiv	r7, r8, lr
 80002a0:	fa1f fc85 	uxth.w	ip, r5
 80002a4:	fb0e 8817 	mls	r8, lr, r7, r8
 80002a8:	ea43 4308 	orr.w	r3, r3, r8, lsl #16
 80002ac:	fb07 f10c 	mul.w	r1, r7, ip
 80002b0:	4299      	cmp	r1, r3
 80002b2:	d909      	bls.n	80002c8 <__udivmoddi4+0x60>
 80002b4:	18eb      	adds	r3, r5, r3
 80002b6:	f107 30ff 	add.w	r0, r7, #4294967295	; 0xffffffff
 80002ba:	f080 811b 	bcs.w	80004f4 <__udivmoddi4+0x28c>
 80002be:	4299      	cmp	r1, r3
 80002c0:	f240 8118 	bls.w	80004f4 <__udivmoddi4+0x28c>
 80002c4:	3f02      	subs	r7, #2
 80002c6:	442b      	add	r3, r5
 80002c8:	1a5b      	subs	r3, r3, r1
 80002ca:	b2a4      	uxth	r4, r4
 80002cc:	fbb3 f0fe 	udiv	r0, r3, lr
 80002d0:	fb0e 3310 	mls	r3, lr, r0, r3
 80002d4:	ea44 4403 	orr.w	r4, r4, r3, lsl #16
 80002d8:	fb00 fc0c 	mul.w	ip, r0, ip
 80002dc:	45a4      	cmp	ip, r4
 80002de:	d909      	bls.n	80002f4 <__udivmoddi4+0x8c>
 80002e0:	192c      	adds	r4, r5, r4
 80002e2:	f100 33ff 	add.w	r3, r0, #4294967295	; 0xffffffff
 80002e6:	f080 8107 	bcs.w	80004f8 <__udivmoddi4+0x290>
 80002ea:	45a4      	cmp	ip, r4
 80002ec:	f240 8104 	bls.w	80004f8 <__udivmoddi4+0x290>
 80002f0:	3802      	subs	r0, #2
 80002f2:	442c      	add	r4, r5
 80002f4:	ea40 4007 	orr.w	r0, r0, r7, lsl #16
 80002f8:	eba4 040c 	sub.w	r4, r4, ip
 80002fc:	2700      	movs	r7, #0
 80002fe:	b11e      	cbz	r6, 8000308 <__udivmoddi4+0xa0>
 8000300:	40d4      	lsrs	r4, r2
 8000302:	2300      	movs	r3, #0
 8000304:	e9c6 4300 	strd	r4, r3, [r6]
 8000308:	4639      	mov	r1, r7
 800030a:	e8bd 87f0 	ldmia.w	sp!, {r4, r5, r6, r7, r8, r9, sl, pc}
 800030e:	428b      	cmp	r3, r1
 8000310:	d909      	bls.n	8000326 <__udivmoddi4+0xbe>
 8000312:	2e00      	cmp	r6, #0
 8000314:	f000 80eb 	beq.w	80004ee <__udivmoddi4+0x286>
 8000318:	2700      	movs	r7, #0
 800031a:	e9c6 0100 	strd	r0, r1, [r6]
 800031e:	4638      	mov	r0, r7
 8000320:	4639      	mov	r1, r7
 8000322:	e8bd 87f0 	ldmia.w	sp!, {r4, r5, r6, r7, r8, r9, sl, pc}
 8000326:	fab3 f783 	clz	r7, r3
 800032a:	2f00      	cmp	r7, #0
 800032c:	d147      	bne.n	80003be <__udivmoddi4+0x156>
 800032e:	428b      	cmp	r3, r1
 8000330:	d302      	bcc.n	8000338 <__udivmoddi4+0xd0>
 8000332:	4282      	cmp	r2, r0
 8000334:	f200 80fa 	bhi.w	800052c <__udivmoddi4+0x2c4>
 8000338:	1a84      	subs	r4, r0, r2
 800033a:	eb61 0303 	sbc.w	r3, r1, r3
 800033e:	2001      	movs	r0, #1
 8000340:	4698      	mov	r8, r3
 8000342:	2e00      	cmp	r6, #0
 8000344:	d0e0      	beq.n	8000308 <__udivmoddi4+0xa0>
 8000346:	e9c6 4800 	strd	r4, r8, [r6]
 800034a:	e7dd      	b.n	8000308 <__udivmoddi4+0xa0>
 800034c:	b902      	cbnz	r2, 8000350 <__udivmoddi4+0xe8>
 800034e:	deff      	udf	#255	; 0xff
 8000350:	fab2 f282 	clz	r2, r2
 8000354:	2a00      	cmp	r2, #0
 8000356:	f040 808f 	bne.w	8000478 <__udivmoddi4+0x210>
 800035a:	1b49      	subs	r1, r1, r5
 800035c:	ea4f 4e15 	mov.w	lr, r5, lsr #16
 8000360:	fa1f f885 	uxth.w	r8, r5
 8000364:	2701      	movs	r7, #1
 8000366:	fbb1 fcfe 	udiv	ip, r1, lr
 800036a:	0c23      	lsrs	r3, r4, #16
 800036c:	fb0e 111c 	mls	r1, lr, ip, r1
 8000370:	ea43 4301 	orr.w	r3, r3, r1, lsl #16
 8000374:	fb08 f10c 	mul.w	r1, r8, ip
 8000378:	4299      	cmp	r1, r3
 800037a:	d907      	bls.n	800038c <__udivmoddi4+0x124>
 800037c:	18eb      	adds	r3, r5, r3
 800037e:	f10c 30ff 	add.w	r0, ip, #4294967295	; 0xffffffff
 8000382:	d202      	bcs.n	800038a <__udivmoddi4+0x122>
 8000384:	4299      	cmp	r1, r3
 8000386:	f200 80cd 	bhi.w	8000524 <__udivmoddi4+0x2bc>
 800038a:	4684      	mov	ip, r0
 800038c:	1a59      	subs	r1, r3, r1
 800038e:	b2a3      	uxth	r3, r4
 8000390:	fbb1 f0fe 	udiv	r0, r1, lr
 8000394:	fb0e 1410 	mls	r4, lr, r0, r1
 8000398:	ea43 4404 	orr.w	r4, r3, r4, lsl #16
 800039c:	fb08 f800 	mul.w	r8, r8, r0
 80003a0:	45a0      	cmp	r8, r4
 80003a2:	d907      	bls.n	80003b4 <__udivmoddi4+0x14c>
 80003a4:	192c      	adds	r4, r5, r4
 80003a6:	f100 33ff 	add.w	r3, r0, #4294967295	; 0xffffffff
 80003aa:	d202      	bcs.n	80003b2 <__udivmoddi4+0x14a>
 80003ac:	45a0      	cmp	r8, r4
 80003ae:	f200 80b6 	bhi.w	800051e <__udivmoddi4+0x2b6>
 80003b2:	4618      	mov	r0, r3
 80003b4:	eba4 0408 	sub.w	r4, r4, r8
 80003b8:	ea40 400c 	orr.w	r0, r0, ip, lsl #16
 80003bc:	e79f      	b.n	80002fe <__udivmoddi4+0x96>
 80003be:	f1c7 0c20 	rsb	ip, r7, #32
 80003c2:	40bb      	lsls	r3, r7
 80003c4:	fa22 fe0c 	lsr.w	lr, r2, ip
 80003c8:	ea4e 0e03 	orr.w	lr, lr, r3
 80003cc:	fa01 f407 	lsl.w	r4, r1, r7
 80003d0:	fa20 f50c 	lsr.w	r5, r0, ip
 80003d4:	fa21 f30c 	lsr.w	r3, r1, ip
 80003d8:	ea4f 481e 	mov.w	r8, lr, lsr #16
 80003dc:	4325      	orrs	r5, r4
 80003de:	fbb3 f9f8 	udiv	r9, r3, r8
 80003e2:	0c2c      	lsrs	r4, r5, #16
 80003e4:	fb08 3319 	mls	r3, r8, r9, r3
 80003e8:	fa1f fa8e 	uxth.w	sl, lr
 80003ec:	ea44 4303 	orr.w	r3, r4, r3, lsl #16
 80003f0:	fb09 f40a 	mul.w	r4, r9, sl
 80003f4:	429c      	cmp	r4, r3
 80003f6:	fa02 f207 	lsl.w	r2, r2, r7
 80003fa:	fa00 f107 	lsl.w	r1, r0, r7
 80003fe:	d90b      	bls.n	8000418 <__udivmoddi4+0x1b0>
 8000400:	eb1e 0303 	adds.w	r3, lr, r3
 8000404:	f109 30ff 	add.w	r0, r9, #4294967295	; 0xffffffff
 8000408:	f080 8087 	bcs.w	800051a <__udivmoddi4+0x2b2>
 800040c:	429c      	cmp	r4, r3
 800040e:	f240 8084 	bls.w	800051a <__udivmoddi4+0x2b2>
 8000412:	f1a9 0902 	sub.w	r9, r9, #2
 8000416:	4473      	add	r3, lr
 8000418:	1b1b      	subs	r3, r3, r4
 800041a:	b2ad      	uxth	r5, r5
 800041c:	fbb3 f0f8 	udiv	r0, r3, r8
 8000420:	fb08 3310 	mls	r3, r8, r0, r3
 8000424:	ea45 4403 	orr.w	r4, r5, r3, lsl #16
 8000428:	fb00 fa0a 	mul.w	sl, r0, sl
 800042c:	45a2      	cmp	sl, r4
 800042e:	d908      	bls.n	8000442 <__udivmoddi4+0x1da>
 8000430:	eb1e 0404 	adds.w	r4, lr, r4
 8000434:	f100 33ff 	add.w	r3, r0, #4294967295	; 0xffffffff
 8000438:	d26b      	bcs.n	8000512 <__udivmoddi4+0x2aa>
 800043a:	45a2      	cmp	sl, r4
 800043c:	d969      	bls.n	8000512 <__udivmoddi4+0x2aa>
 800043e:	3802      	subs	r0, #2
 8000440:	4474      	add	r4, lr
 8000442:	ea40 4009 	orr.w	r0, r0, r9, lsl #16
 8000446:	fba0 8902 	umull	r8, r9, r0, r2
 800044a:	eba4 040a 	sub.w	r4, r4, sl
 800044e:	454c      	cmp	r4, r9
 8000450:	46c2      	mov	sl, r8
 8000452:	464b      	mov	r3, r9
 8000454:	d354      	bcc.n	8000500 <__udivmoddi4+0x298>
 8000456:	d051      	beq.n	80004fc <__udivmoddi4+0x294>
 8000458:	2e00      	cmp	r6, #0
 800045a:	d069      	beq.n	8000530 <__udivmoddi4+0x2c8>
 800045c:	ebb1 050a 	subs.w	r5, r1, sl
 8000460:	eb64 0403 	sbc.w	r4, r4, r3
 8000464:	fa04 fc0c 	lsl.w	ip, r4, ip
 8000468:	40fd      	lsrs	r5, r7
 800046a:	40fc      	lsrs	r4, r7
 800046c:	ea4c 0505 	orr.w	r5, ip, r5
 8000470:	e9c6 5400 	strd	r5, r4, [r6]
 8000474:	2700      	movs	r7, #0
 8000476:	e747      	b.n	8000308 <__udivmoddi4+0xa0>
 8000478:	f1c2 0320 	rsb	r3, r2, #32
 800047c:	fa20 f703 	lsr.w	r7, r0, r3
 8000480:	4095      	lsls	r5, r2
 8000482:	fa01 f002 	lsl.w	r0, r1, r2
 8000486:	fa21 f303 	lsr.w	r3, r1, r3
 800048a:	ea4f 4e15 	mov.w	lr, r5, lsr #16
 800048e:	4338      	orrs	r0, r7
 8000490:	0c01      	lsrs	r1, r0, #16
 8000492:	fbb3 f7fe 	udiv	r7, r3, lr
 8000496:	fa1f f885 	uxth.w	r8, r5
 800049a:	fb0e 3317 	mls	r3, lr, r7, r3
 800049e:	ea41 4103 	orr.w	r1, r1, r3, lsl #16
 80004a2:	fb07 f308 	mul.w	r3, r7, r8
 80004a6:	428b      	cmp	r3, r1
 80004a8:	fa04 f402 	lsl.w	r4, r4, r2
 80004ac:	d907      	bls.n	80004be <__udivmoddi4+0x256>
 80004ae:	1869      	adds	r1, r5, r1
 80004b0:	f107 3cff 	add.w	ip, r7, #4294967295	; 0xffffffff
 80004b4:	d22f      	bcs.n	8000516 <__udivmoddi4+0x2ae>
 80004b6:	428b      	cmp	r3, r1
 80004b8:	d92d      	bls.n	8000516 <__udivmoddi4+0x2ae>
 80004ba:	3f02      	subs	r7, #2
 80004bc:	4429      	add	r1, r5
 80004be:	1acb      	subs	r3, r1, r3
 80004c0:	b281      	uxth	r1, r0
 80004c2:	fbb3 f0fe 	udiv	r0, r3, lr
 80004c6:	fb0e 3310 	mls	r3, lr, r0, r3
 80004ca:	ea41 4103 	orr.w	r1, r1, r3, lsl #16
 80004ce:	fb00 f308 	mul.w	r3, r0, r8
 80004d2:	428b      	cmp	r3, r1
 80004d4:	d907      	bls.n	80004e6 <__udivmoddi4+0x27e>
 80004d6:	1869      	adds	r1, r5, r1
 80004d8:	f100 3cff 	add.w	ip, r0, #4294967295	; 0xffffffff
 80004dc:	d217      	bcs.n	800050e <__udivmoddi4+0x2a6>
 80004de:	428b      	cmp	r3, r1
 80004e0:	d915      	bls.n	800050e <__udivmoddi4+0x2a6>
 80004e2:	3802      	subs	r0, #2
 80004e4:	4429      	add	r1, r5
 80004e6:	1ac9      	subs	r1, r1, r3
 80004e8:	ea40 4707 	orr.w	r7, r0, r7, lsl #16
 80004ec:	e73b      	b.n	8000366 <__udivmoddi4+0xfe>
 80004ee:	4637      	mov	r7, r6
 80004f0:	4630      	mov	r0, r6
 80004f2:	e709      	b.n	8000308 <__udivmoddi4+0xa0>
 80004f4:	4607      	mov	r7, r0
 80004f6:	e6e7      	b.n	80002c8 <__udivmoddi4+0x60>
 80004f8:	4618      	mov	r0, r3
 80004fa:	e6fb      	b.n	80002f4 <__udivmoddi4+0x8c>
 80004fc:	4541      	cmp	r1, r8
 80004fe:	d2ab      	bcs.n	8000458 <__udivmoddi4+0x1f0>
 8000500:	ebb8 0a02 	subs.w	sl, r8, r2
 8000504:	eb69 020e 	sbc.w	r2, r9, lr
 8000508:	3801      	subs	r0, #1
 800050a:	4613      	mov	r3, r2
 800050c:	e7a4      	b.n	8000458 <__udivmoddi4+0x1f0>
 800050e:	4660      	mov	r0, ip
 8000510:	e7e9      	b.n	80004e6 <__udivmoddi4+0x27e>
 8000512:	4618      	mov	r0, r3
 8000514:	e795      	b.n	8000442 <__udivmoddi4+0x1da>
 8000516:	4667      	mov	r7, ip
 8000518:	e7d1      	b.n	80004be <__udivmoddi4+0x256>
 800051a:	4681      	mov	r9, r0
 800051c:	e77c      	b.n	8000418 <__udivmoddi4+0x1b0>
 800051e:	3802      	subs	r0, #2
 8000520:	442c      	add	r4, r5
 8000522:	e747      	b.n	80003b4 <__udivmoddi4+0x14c>
 8000524:	f1ac 0c02 	sub.w	ip, ip, #2
 8000528:	442b      	add	r3, r5
 800052a:	e72f      	b.n	800038c <__udivmoddi4+0x124>
 800052c:	4638      	mov	r0, r7
 800052e:	e708      	b.n	8000342 <__udivmoddi4+0xda>
 8000530:	4637      	mov	r7, r6
 8000532:	e6e9      	b.n	8000308 <__udivmoddi4+0xa0>

08000534 <__aeabi_idiv0>:
 8000534:	4770      	bx	lr
 8000536:	bf00      	nop

08000538 <main>:
/**
  * @brief  The application entry point.
  * @retval int
  */
int main(void)
{
 8000538:	b580      	push	{r7, lr}
 800053a:	af00      	add	r7, sp, #0
  /* USER CODE END 1 */

  /* MCU Configuration--------------------------------------------------------*/

  /* Reset of all peripherals, Initializes the Flash interface and the Systick. */
  HAL_Init();
 800053c:	f000 f93b 	bl	80007b6 <HAL_Init>
  /* USER CODE BEGIN Init */

  /* USER CODE END Init */

  /* Configure the system clock */
  SystemClock_Config();
 8000540:	f000 f804 	bl	800054c <SystemClock_Config>
  /* USER CODE BEGIN SysInit */

  /* USER CODE END SysInit */

  /* Initialize all configured peripherals */
  MX_GPIO_Init();
 8000544:	f000 f86e 	bl	8000624 <MX_GPIO_Init>

  /* USER CODE END 2 */

  /* Infinite loop */
  /* USER CODE BEGIN WHILE */
  while (1)
 8000548:	e7fe      	b.n	8000548 <main+0x10>
	...

0800054c <SystemClock_Config>:
/**
  * @brief System Clock Configuration
  * @retval None
  */
void SystemClock_Config(void)
{
 800054c:	b580      	push	{r7, lr}
 800054e:	b094      	sub	sp, #80	; 0x50
 8000550:	af00      	add	r7, sp, #0
  RCC_OscInitTypeDef RCC_OscInitStruct = {0};
 8000552:	f107 031c 	add.w	r3, r7, #28
 8000556:	2234      	movs	r2, #52	; 0x34
 8000558:	2100      	movs	r1, #0
 800055a:	4618      	mov	r0, r3
 800055c:	f001 f8d8 	bl	8001710 <memset>
  RCC_ClkInitTypeDef RCC_ClkInitStruct = {0};
 8000560:	f107 0308 	add.w	r3, r7, #8
 8000564:	2200      	movs	r2, #0
 8000566:	601a      	str	r2, [r3, #0]
 8000568:	605a      	str	r2, [r3, #4]
 800056a:	609a      	str	r2, [r3, #8]
 800056c:	60da      	str	r2, [r3, #12]
 800056e:	611a      	str	r2, [r3, #16]

  /** Configure the main internal regulator output voltage
  */
  __HAL_RCC_PWR_CLK_ENABLE();
 8000570:	4b2a      	ldr	r3, [pc, #168]	; (800061c <SystemClock_Config+0xd0>)
 8000572:	6c1b      	ldr	r3, [r3, #64]	; 0x40
 8000574:	4a29      	ldr	r2, [pc, #164]	; (800061c <SystemClock_Config+0xd0>)
 8000576:	f043 5380 	orr.w	r3, r3, #268435456	; 0x10000000
 800057a:	6413      	str	r3, [r2, #64]	; 0x40
 800057c:	4b27      	ldr	r3, [pc, #156]	; (800061c <SystemClock_Config+0xd0>)
 800057e:	6c1b      	ldr	r3, [r3, #64]	; 0x40
 8000580:	f003 5380 	and.w	r3, r3, #268435456	; 0x10000000
 8000584:	607b      	str	r3, [r7, #4]
 8000586:	687b      	ldr	r3, [r7, #4]
  __HAL_PWR_VOLTAGESCALING_CONFIG(PWR_REGULATOR_VOLTAGE_SCALE1);
 8000588:	4b25      	ldr	r3, [pc, #148]	; (8000620 <SystemClock_Config+0xd4>)
 800058a:	681b      	ldr	r3, [r3, #0]
 800058c:	4a24      	ldr	r2, [pc, #144]	; (8000620 <SystemClock_Config+0xd4>)
 800058e:	f443 4340 	orr.w	r3, r3, #49152	; 0xc000
 8000592:	6013      	str	r3, [r2, #0]
 8000594:	4b22      	ldr	r3, [pc, #136]	; (8000620 <SystemClock_Config+0xd4>)
 8000596:	681b      	ldr	r3, [r3, #0]
 8000598:	f403 4340 	and.w	r3, r3, #49152	; 0xc000
 800059c:	603b      	str	r3, [r7, #0]
 800059e:	683b      	ldr	r3, [r7, #0]
  /** Initializes the RCC Oscillators according to the specified parameters
  * in the RCC_OscInitTypeDef structure.
  */
  RCC_OscInitStruct.OscillatorType = RCC_OSCILLATORTYPE_HSE;
 80005a0:	2301      	movs	r3, #1
 80005a2:	61fb      	str	r3, [r7, #28]
  RCC_OscInitStruct.HSEState = RCC_HSE_ON;
 80005a4:	f44f 3380 	mov.w	r3, #65536	; 0x10000
 80005a8:	623b      	str	r3, [r7, #32]
  RCC_OscInitStruct.PLL.PLLState = RCC_PLL_ON;
 80005aa:	2302      	movs	r3, #2
 80005ac:	637b      	str	r3, [r7, #52]	; 0x34
  RCC_OscInitStruct.PLL.PLLSource = RCC_PLLSOURCE_HSE;
 80005ae:	f44f 0380 	mov.w	r3, #4194304	; 0x400000
 80005b2:	63bb      	str	r3, [r7, #56]	; 0x38
  RCC_OscInitStruct.PLL.PLLM = 25;
 80005b4:	2319      	movs	r3, #25
 80005b6:	63fb      	str	r3, [r7, #60]	; 0x3c
  RCC_OscInitStruct.PLL.PLLN = 432;
 80005b8:	f44f 73d8 	mov.w	r3, #432	; 0x1b0
 80005bc:	643b      	str	r3, [r7, #64]	; 0x40
  RCC_OscInitStruct.PLL.PLLP = RCC_PLLP_DIV2;
 80005be:	2302      	movs	r3, #2
 80005c0:	647b      	str	r3, [r7, #68]	; 0x44
  RCC_OscInitStruct.PLL.PLLQ = 2;
 80005c2:	2302      	movs	r3, #2
 80005c4:	64bb      	str	r3, [r7, #72]	; 0x48
  if (HAL_RCC_OscConfig(&RCC_OscInitStruct) != HAL_OK)
 80005c6:	f107 031c 	add.w	r3, r7, #28
 80005ca:	4618      	mov	r0, r3
 80005cc:	f000 fc30 	bl	8000e30 <HAL_RCC_OscConfig>
 80005d0:	4603      	mov	r3, r0
 80005d2:	2b00      	cmp	r3, #0
 80005d4:	d001      	beq.n	80005da <SystemClock_Config+0x8e>
  {
    Error_Handler();
 80005d6:	f000 f861 	bl	800069c <Error_Handler>
  }
  /** Activate the Over-Drive mode
  */
  if (HAL_PWREx_EnableOverDrive() != HAL_OK)
 80005da:	f000 fbd9 	bl	8000d90 <HAL_PWREx_EnableOverDrive>
 80005de:	4603      	mov	r3, r0
 80005e0:	2b00      	cmp	r3, #0
 80005e2:	d001      	beq.n	80005e8 <SystemClock_Config+0x9c>
  {
    Error_Handler();
 80005e4:	f000 f85a 	bl	800069c <Error_Handler>
  }
  /** Initializes the CPU, AHB and APB buses clocks
  */
  RCC_ClkInitStruct.ClockType = RCC_CLOCKTYPE_HCLK|RCC_CLOCKTYPE_SYSCLK
 80005e8:	230f      	movs	r3, #15
 80005ea:	60bb      	str	r3, [r7, #8]
                              |RCC_CLOCKTYPE_PCLK1|RCC_CLOCKTYPE_PCLK2;
  RCC_ClkInitStruct.SYSCLKSource = RCC_SYSCLKSOURCE_PLLCLK;
 80005ec:	2302      	movs	r3, #2
 80005ee:	60fb      	str	r3, [r7, #12]
  RCC_ClkInitStruct.AHBCLKDivider = RCC_SYSCLK_DIV1;
 80005f0:	2300      	movs	r3, #0
 80005f2:	613b      	str	r3, [r7, #16]
  RCC_ClkInitStruct.APB1CLKDivider = RCC_HCLK_DIV2;
 80005f4:	f44f 5380 	mov.w	r3, #4096	; 0x1000
 80005f8:	617b      	str	r3, [r7, #20]
  RCC_ClkInitStruct.APB2CLKDivider = RCC_HCLK_DIV1;
 80005fa:	2300      	movs	r3, #0
 80005fc:	61bb      	str	r3, [r7, #24]

  if (HAL_RCC_ClockConfig(&RCC_ClkInitStruct, FLASH_LATENCY_7) != HAL_OK)
 80005fe:	f107 0308 	add.w	r3, r7, #8
 8000602:	2107      	movs	r1, #7
 8000604:	4618      	mov	r0, r3
 8000606:	f000 fec1 	bl	800138c <HAL_RCC_ClockConfig>
 800060a:	4603      	mov	r3, r0
 800060c:	2b00      	cmp	r3, #0
 800060e:	d001      	beq.n	8000614 <SystemClock_Config+0xc8>
  {
    Error_Handler();
 8000610:	f000 f844 	bl	800069c <Error_Handler>
  }
}
 8000614:	bf00      	nop
 8000616:	3750      	adds	r7, #80	; 0x50
 8000618:	46bd      	mov	sp, r7
 800061a:	bd80      	pop	{r7, pc}
 800061c:	40023800 	.word	0x40023800
 8000620:	40007000 	.word	0x40007000

08000624 <MX_GPIO_Init>:
  * @brief GPIO Initialization Function
  * @param None
  * @retval None
  */
static void MX_GPIO_Init(void)
{
 8000624:	b580      	push	{r7, lr}
 8000626:	b088      	sub	sp, #32
 8000628:	af00      	add	r7, sp, #0
  GPIO_InitTypeDef GPIO_InitStruct = {0};
 800062a:	f107 030c 	add.w	r3, r7, #12
 800062e:	2200      	movs	r2, #0
 8000630:	601a      	str	r2, [r3, #0]
 8000632:	605a      	str	r2, [r3, #4]
 8000634:	609a      	str	r2, [r3, #8]
 8000636:	60da      	str	r2, [r3, #12]
 8000638:	611a      	str	r2, [r3, #16]

  /* GPIO Ports Clock Enable */
  __HAL_RCC_GPIOH_CLK_ENABLE();
 800063a:	4b16      	ldr	r3, [pc, #88]	; (8000694 <MX_GPIO_Init+0x70>)
 800063c:	6b1b      	ldr	r3, [r3, #48]	; 0x30
 800063e:	4a15      	ldr	r2, [pc, #84]	; (8000694 <MX_GPIO_Init+0x70>)
 8000640:	f043 0380 	orr.w	r3, r3, #128	; 0x80
 8000644:	6313      	str	r3, [r2, #48]	; 0x30
 8000646:	4b13      	ldr	r3, [pc, #76]	; (8000694 <MX_GPIO_Init+0x70>)
 8000648:	6b1b      	ldr	r3, [r3, #48]	; 0x30
 800064a:	f003 0380 	and.w	r3, r3, #128	; 0x80
 800064e:	60bb      	str	r3, [r7, #8]
 8000650:	68bb      	ldr	r3, [r7, #8]
  __HAL_RCC_GPIOA_CLK_ENABLE();
 8000652:	4b10      	ldr	r3, [pc, #64]	; (8000694 <MX_GPIO_Init+0x70>)
 8000654:	6b1b      	ldr	r3, [r3, #48]	; 0x30
 8000656:	4a0f      	ldr	r2, [pc, #60]	; (8000694 <MX_GPIO_Init+0x70>)
 8000658:	f043 0301 	orr.w	r3, r3, #1
 800065c:	6313      	str	r3, [r2, #48]	; 0x30
 800065e:	4b0d      	ldr	r3, [pc, #52]	; (8000694 <MX_GPIO_Init+0x70>)
 8000660:	6b1b      	ldr	r3, [r3, #48]	; 0x30
 8000662:	f003 0301 	and.w	r3, r3, #1
 8000666:	607b      	str	r3, [r7, #4]
 8000668:	687b      	ldr	r3, [r7, #4]

  /*Configure GPIO pins : PA9 PA10 */
  GPIO_InitStruct.Pin = GPIO_PIN_9|GPIO_PIN_10;
 800066a:	f44f 63c0 	mov.w	r3, #1536	; 0x600
 800066e:	60fb      	str	r3, [r7, #12]
  GPIO_InitStruct.Mode = GPIO_MODE_AF_PP;
 8000670:	2302      	movs	r3, #2
 8000672:	613b      	str	r3, [r7, #16]
  GPIO_InitStruct.Pull = GPIO_NOPULL;
 8000674:	2300      	movs	r3, #0
 8000676:	617b      	str	r3, [r7, #20]
  GPIO_InitStruct.Speed = GPIO_SPEED_FREQ_VERY_HIGH;
 8000678:	2303      	movs	r3, #3
 800067a:	61bb      	str	r3, [r7, #24]
  GPIO_InitStruct.Alternate = GPIO_AF7_USART1;
 800067c:	2307      	movs	r3, #7
 800067e:	61fb      	str	r3, [r7, #28]
  HAL_GPIO_Init(GPIOA, &GPIO_InitStruct);
 8000680:	f107 030c 	add.w	r3, r7, #12
 8000684:	4619      	mov	r1, r3
 8000686:	4804      	ldr	r0, [pc, #16]	; (8000698 <MX_GPIO_Init+0x74>)
 8000688:	f000 f9d8 	bl	8000a3c <HAL_GPIO_Init>

}
 800068c:	bf00      	nop
 800068e:	3720      	adds	r7, #32
 8000690:	46bd      	mov	sp, r7
 8000692:	bd80      	pop	{r7, pc}
 8000694:	40023800 	.word	0x40023800
 8000698:	40020000 	.word	0x40020000

0800069c <Error_Handler>:
/**
  * @brief  This function is executed in case of error occurrence.
  * @retval None
  */
void Error_Handler(void)
{
 800069c:	b480      	push	{r7}
 800069e:	af00      	add	r7, sp, #0
  \details Disables IRQ interrupts by setting the I-bit in the CPSR.
           Can only be executed in Privileged modes.
 */
__STATIC_FORCEINLINE void __disable_irq(void)
{
  __ASM volatile ("cpsid i" : : : "memory");
 80006a0:	b672      	cpsid	i
  /* USER CODE BEGIN Error_Handler_Debug */
  /* User can add his own implementation to report the HAL error return state */
  __disable_irq();
  while (1)
 80006a2:	e7fe      	b.n	80006a2 <Error_Handler+0x6>

080006a4 <HAL_MspInit>:
/* USER CODE END 0 */
/**
  * Initializes the Global MSP.
  */
void HAL_MspInit(void)
{
 80006a4:	b480      	push	{r7}
 80006a6:	b083      	sub	sp, #12
 80006a8:	af00      	add	r7, sp, #0
  /* USER CODE BEGIN MspInit 0 */

  /* USER CODE END MspInit 0 */

  __HAL_RCC_PWR_CLK_ENABLE();
 80006aa:	4b0f      	ldr	r3, [pc, #60]	; (80006e8 <HAL_MspInit+0x44>)
 80006ac:	6c1b      	ldr	r3, [r3, #64]	; 0x40
 80006ae:	4a0e      	ldr	r2, [pc, #56]	; (80006e8 <HAL_MspInit+0x44>)
 80006b0:	f043 5380 	orr.w	r3, r3, #268435456	; 0x10000000
 80006b4:	6413      	str	r3, [r2, #64]	; 0x40
 80006b6:	4b0c      	ldr	r3, [pc, #48]	; (80006e8 <HAL_MspInit+0x44>)
 80006b8:	6c1b      	ldr	r3, [r3, #64]	; 0x40
 80006ba:	f003 5380 	and.w	r3, r3, #268435456	; 0x10000000
 80006be:	607b      	str	r3, [r7, #4]
 80006c0:	687b      	ldr	r3, [r7, #4]
  __HAL_RCC_SYSCFG_CLK_ENABLE();
 80006c2:	4b09      	ldr	r3, [pc, #36]	; (80006e8 <HAL_MspInit+0x44>)
 80006c4:	6c5b      	ldr	r3, [r3, #68]	; 0x44
 80006c6:	4a08      	ldr	r2, [pc, #32]	; (80006e8 <HAL_MspInit+0x44>)
 80006c8:	f443 4380 	orr.w	r3, r3, #16384	; 0x4000
 80006cc:	6453      	str	r3, [r2, #68]	; 0x44
 80006ce:	4b06      	ldr	r3, [pc, #24]	; (80006e8 <HAL_MspInit+0x44>)
 80006d0:	6c5b      	ldr	r3, [r3, #68]	; 0x44
 80006d2:	f403 4380 	and.w	r3, r3, #16384	; 0x4000
 80006d6:	603b      	str	r3, [r7, #0]
 80006d8:	683b      	ldr	r3, [r7, #0]
  /* System interrupt init*/

  /* USER CODE BEGIN MspInit 1 */

  /* USER CODE END MspInit 1 */
}
 80006da:	bf00      	nop
 80006dc:	370c      	adds	r7, #12
 80006de:	46bd      	mov	sp, r7
 80006e0:	f85d 7b04 	ldr.w	r7, [sp], #4
 80006e4:	4770      	bx	lr
 80006e6:	bf00      	nop
 80006e8:	40023800 	.word	0x40023800

080006ec <NMI_Handler>:
/******************************************************************************/
/**
  * @brief This function handles Non maskable interrupt.
  */
void NMI_Handler(void)
{
 80006ec:	b480      	push	{r7}
 80006ee:	af00      	add	r7, sp, #0
  /* USER CODE BEGIN NonMaskableInt_IRQn 0 */

  /* USER CODE END NonMaskableInt_IRQn 0 */
  /* USER CODE BEGIN NonMaskableInt_IRQn 1 */
  while (1)
 80006f0:	e7fe      	b.n	80006f0 <NMI_Handler+0x4>

080006f2 <HardFault_Handler>:

/**
  * @brief This function handles Hard fault interrupt.
  */
void HardFault_Handler(void)
{
 80006f2:	b480      	push	{r7}
 80006f4:	af00      	add	r7, sp, #0
  /* USER CODE BEGIN HardFault_IRQn 0 */

  /* USER CODE END HardFault_IRQn 0 */
  while (1)
 80006f6:	e7fe      	b.n	80006f6 <HardFault_Handler+0x4>

080006f8 <MemManage_Handler>:

/**
  * @brief This function handles Memory management fault.
  */
void MemManage_Handler(void)
{
 80006f8:	b480      	push	{r7}
 80006fa:	af00      	add	r7, sp, #0
  /* USER CODE BEGIN MemoryManagement_IRQn 0 */

  /* USER CODE END MemoryManagement_IRQn 0 */
  while (1)
 80006fc:	e7fe      	b.n	80006fc <MemManage_Handler+0x4>

080006fe <BusFault_Handler>:

/**
  * @brief This function handles Pre-fetch fault, memory access fault.
  */
void BusFault_Handler(void)
{
 80006fe:	b480      	push	{r7}
 8000700:	af00      	add	r7, sp, #0
  /* USER CODE BEGIN BusFault_IRQn 0 */

  /* USER CODE END BusFault_IRQn 0 */
  while (1)
 8000702:	e7fe      	b.n	8000702 <BusFault_Handler+0x4>

08000704 <UsageFault_Handler>:

/**
  * @brief This function handles Undefined instruction or illegal state.
  */
void UsageFault_Handler(void)
{
 8000704:	b480      	push	{r7}
 8000706:	af00      	add	r7, sp, #0
  /* USER CODE BEGIN UsageFault_IRQn 0 */

  /* USER CODE END UsageFault_IRQn 0 */
  while (1)
 8000708:	e7fe      	b.n	8000708 <UsageFault_Handler+0x4>

0800070a <SVC_Handler>:

/**
  * @brief This function handles System service call via SWI instruction.
  */
void SVC_Handler(void)
{
 800070a:	b480      	push	{r7}
 800070c:	af00      	add	r7, sp, #0

  /* USER CODE END SVCall_IRQn 0 */
  /* USER CODE BEGIN SVCall_IRQn 1 */

  /* USER CODE END SVCall_IRQn 1 */
}
 800070e:	bf00      	nop
 8000710:	46bd      	mov	sp, r7
 8000712:	f85d 7b04 	ldr.w	r7, [sp], #4
 8000716:	4770      	bx	lr

08000718 <DebugMon_Handler>:

/**
  * @brief This function handles Debug monitor.
  */
void DebugMon_Handler(void)
{
 8000718:	b480      	push	{r7}
 800071a:	af00      	add	r7, sp, #0

  /* USER CODE END DebugMonitor_IRQn 0 */
  /* USER CODE BEGIN DebugMonitor_IRQn 1 */

  /* USER CODE END DebugMonitor_IRQn 1 */
}
 800071c:	bf00      	nop
 800071e:	46bd      	mov	sp, r7
 8000720:	f85d 7b04 	ldr.w	r7, [sp], #4
 8000724:	4770      	bx	lr

08000726 <PendSV_Handler>:

/**
  * @brief This function handles Pendable request for system service.
  */
void PendSV_Handler(void)
{
 8000726:	b480      	push	{r7}
 8000728:	af00      	add	r7, sp, #0

  /* USER CODE END PendSV_IRQn 0 */
  /* USER CODE BEGIN PendSV_IRQn 1 */

  /* USER CODE END PendSV_IRQn 1 */
}
 800072a:	bf00      	nop
 800072c:	46bd      	mov	sp, r7
 800072e:	f85d 7b04 	ldr.w	r7, [sp], #4
 8000732:	4770      	bx	lr

08000734 <SysTick_Handler>:

/**
  * @brief This function handles System tick timer.
  */
void SysTick_Handler(void)
{
 8000734:	b580      	push	{r7, lr}
 8000736:	af00      	add	r7, sp, #0
  /* USER CODE BEGIN SysTick_IRQn 0 */

  /* USER CODE END SysTick_IRQn 0 */
  HAL_IncTick();
 8000738:	f000 f87a 	bl	8000830 <HAL_IncTick>
  /* USER CODE BEGIN SysTick_IRQn 1 */

  /* USER CODE END SysTick_IRQn 1 */
}
 800073c:	bf00      	nop
 800073e:	bd80      	pop	{r7, pc}

08000740 <SystemInit>:
  *         SystemFrequency variable.
  * @param  None
  * @retval None
  */
void SystemInit(void)
{
 8000740:	b480      	push	{r7}
 8000742:	af00      	add	r7, sp, #0
  /* FPU settings ------------------------------------------------------------*/
#if (__FPU_PRESENT == 1) && (__FPU_USED == 1)
  SCB->CPACR |= ((3UL << 10*2)|(3UL << 11*2));  /* set CP10 and CP11 Full Access */
 8000744:	4b06      	ldr	r3, [pc, #24]	; (8000760 <SystemInit+0x20>)
 8000746:	f8d3 3088 	ldr.w	r3, [r3, #136]	; 0x88
 800074a:	4a05      	ldr	r2, [pc, #20]	; (8000760 <SystemInit+0x20>)
 800074c:	f443 0370 	orr.w	r3, r3, #15728640	; 0xf00000
 8000750:	f8c2 3088 	str.w	r3, [r2, #136]	; 0x88

  /* Configure the Vector Table location -------------------------------------*/
#if defined(USER_VECT_TAB_ADDRESS)
  SCB->VTOR = VECT_TAB_BASE_ADDRESS | VECT_TAB_OFFSET; /* Vector Table Relocation in Internal SRAM */
#endif /* USER_VECT_TAB_ADDRESS */
}
 8000754:	bf00      	nop
 8000756:	46bd      	mov	sp, r7
 8000758:	f85d 7b04 	ldr.w	r7, [sp], #4
 800075c:	4770      	bx	lr
 800075e:	bf00      	nop
 8000760:	e000ed00 	.word	0xe000ed00

08000764 <Reset_Handler>:

    .section  .text.Reset_Handler
  .weak  Reset_Handler
  .type  Reset_Handler, %function
Reset_Handler:  
  ldr   sp, =_estack      /* set stack pointer */
 8000764:	f8df d034 	ldr.w	sp, [pc, #52]	; 800079c <LoopFillZerobss+0x12>

/* Copy the data segment initializers from flash to SRAM */  
  ldr r0, =_sdata
 8000768:	480d      	ldr	r0, [pc, #52]	; (80007a0 <LoopFillZerobss+0x16>)
  ldr r1, =_edata
 800076a:	490e      	ldr	r1, [pc, #56]	; (80007a4 <LoopFillZerobss+0x1a>)
  ldr r2, =_sidata
 800076c:	4a0e      	ldr	r2, [pc, #56]	; (80007a8 <LoopFillZerobss+0x1e>)
  movs r3, #0
 800076e:	2300      	movs	r3, #0
  b LoopCopyDataInit
 8000770:	e002      	b.n	8000778 <LoopCopyDataInit>

08000772 <CopyDataInit>:

CopyDataInit:
  ldr r4, [r2, r3]
 8000772:	58d4      	ldr	r4, [r2, r3]
  str r4, [r0, r3]
 8000774:	50c4      	str	r4, [r0, r3]
  adds r3, r3, #4
 8000776:	3304      	adds	r3, #4

08000778 <LoopCopyDataInit>:

LoopCopyDataInit:
  adds r4, r0, r3
 8000778:	18c4      	adds	r4, r0, r3
  cmp r4, r1
 800077a:	428c      	cmp	r4, r1
  bcc CopyDataInit
 800077c:	d3f9      	bcc.n	8000772 <CopyDataInit>
  
/* Zero fill the bss segment. */
  ldr r2, =_sbss
 800077e:	4a0b      	ldr	r2, [pc, #44]	; (80007ac <LoopFillZerobss+0x22>)
  ldr r4, =_ebss
 8000780:	4c0b      	ldr	r4, [pc, #44]	; (80007b0 <LoopFillZerobss+0x26>)
  movs r3, #0
 8000782:	2300      	movs	r3, #0
  b LoopFillZerobss
 8000784:	e001      	b.n	800078a <LoopFillZerobss>

08000786 <FillZerobss>:

FillZerobss:
  str  r3, [r2]
 8000786:	6013      	str	r3, [r2, #0]
  adds r2, r2, #4
 8000788:	3204      	adds	r2, #4

0800078a <LoopFillZerobss>:

LoopFillZerobss:
  cmp r2, r4
 800078a:	42a2      	cmp	r2, r4
  bcc FillZerobss
 800078c:	d3fb      	bcc.n	8000786 <FillZerobss>

/* Call the clock system initialization function.*/
  bl  SystemInit   
 800078e:	f7ff ffd7 	bl	8000740 <SystemInit>
/* Call static constructors */
    bl __libc_init_array
 8000792:	f000 ff99 	bl	80016c8 <__libc_init_array>
/* Call the application's entry point.*/
  bl  main
 8000796:	f7ff fecf 	bl	8000538 <main>
  bx  lr    
 800079a:	4770      	bx	lr
  ldr   sp, =_estack      /* set stack pointer */
 800079c:	20080000 	.word	0x20080000
  ldr r0, =_sdata
 80007a0:	20000000 	.word	0x20000000
  ldr r1, =_edata
 80007a4:	2000000c 	.word	0x2000000c
  ldr r2, =_sidata
 80007a8:	08001758 	.word	0x08001758
  ldr r2, =_sbss
 80007ac:	2000000c 	.word	0x2000000c
  ldr r4, =_ebss
 80007b0:	2000002c 	.word	0x2000002c

080007b4 <ADC_IRQHandler>:
 * @retval None       
*/
    .section  .text.Default_Handler,"ax",%progbits
Default_Handler:
Infinite_Loop:
  b  Infinite_Loop
 80007b4:	e7fe      	b.n	80007b4 <ADC_IRQHandler>

080007b6 <HAL_Init>:
  *         need to ensure that the SysTick time base is always set to 1 millisecond
  *         to have correct HAL operation.
  * @retval HAL status
  */
HAL_StatusTypeDef HAL_Init(void)
{
 80007b6:	b580      	push	{r7, lr}
 80007b8:	af00      	add	r7, sp, #0
#if (PREFETCH_ENABLE != 0U)
  __HAL_FLASH_PREFETCH_BUFFER_ENABLE();
#endif /* PREFETCH_ENABLE */

  /* Set Interrupt Group Priority */
  HAL_NVIC_SetPriorityGrouping(NVIC_PRIORITYGROUP_4);
 80007ba:	2003      	movs	r0, #3
 80007bc:	f000 f90a 	bl	80009d4 <HAL_NVIC_SetPriorityGrouping>

  /* Use systick as time base source and configure 1ms tick (default clock after Reset is HSI) */
  HAL_InitTick(TICK_INT_PRIORITY);
 80007c0:	2000      	movs	r0, #0
 80007c2:	f000 f805 	bl	80007d0 <HAL_InitTick>
  
  /* Init the low level hardware */
  HAL_MspInit();
 80007c6:	f7ff ff6d 	bl	80006a4 <HAL_MspInit>
  
  /* Return function status */
  return HAL_OK;
 80007ca:	2300      	movs	r3, #0
}
 80007cc:	4618      	mov	r0, r3
 80007ce:	bd80      	pop	{r7, pc}

080007d0 <HAL_InitTick>:
  *       implementation  in user file.
  * @param TickPriority Tick interrupt priority.
  * @retval HAL status
  */
__weak HAL_StatusTypeDef HAL_InitTick(uint32_t TickPriority)
{
 80007d0:	b580      	push	{r7, lr}
 80007d2:	b082      	sub	sp, #8
 80007d4:	af00      	add	r7, sp, #0
 80007d6:	6078      	str	r0, [r7, #4]
  /* Configure the SysTick to have interrupt in 1ms time basis*/
  if (HAL_SYSTICK_Config(SystemCoreClock / (1000U / uwTickFreq)) > 0U)
 80007d8:	4b12      	ldr	r3, [pc, #72]	; (8000824 <HAL_InitTick+0x54>)
 80007da:	681a      	ldr	r2, [r3, #0]
 80007dc:	4b12      	ldr	r3, [pc, #72]	; (8000828 <HAL_InitTick+0x58>)
 80007de:	781b      	ldrb	r3, [r3, #0]
 80007e0:	4619      	mov	r1, r3
 80007e2:	f44f 737a 	mov.w	r3, #1000	; 0x3e8
 80007e6:	fbb3 f3f1 	udiv	r3, r3, r1
 80007ea:	fbb2 f3f3 	udiv	r3, r2, r3
 80007ee:	4618      	mov	r0, r3
 80007f0:	f000 f917 	bl	8000a22 <HAL_SYSTICK_Config>
 80007f4:	4603      	mov	r3, r0
 80007f6:	2b00      	cmp	r3, #0
 80007f8:	d001      	beq.n	80007fe <HAL_InitTick+0x2e>
  {
    return HAL_ERROR;
 80007fa:	2301      	movs	r3, #1
 80007fc:	e00e      	b.n	800081c <HAL_InitTick+0x4c>
  }

  /* Configure the SysTick IRQ priority */
  if (TickPriority < (1UL << __NVIC_PRIO_BITS))
 80007fe:	687b      	ldr	r3, [r7, #4]
 8000800:	2b0f      	cmp	r3, #15
 8000802:	d80a      	bhi.n	800081a <HAL_InitTick+0x4a>
  {
    HAL_NVIC_SetPriority(SysTick_IRQn, TickPriority, 0U);
 8000804:	2200      	movs	r2, #0
 8000806:	6879      	ldr	r1, [r7, #4]
 8000808:	f04f 30ff 	mov.w	r0, #4294967295	; 0xffffffff
 800080c:	f000 f8ed 	bl	80009ea <HAL_NVIC_SetPriority>
    uwTickPrio = TickPriority;
 8000810:	4a06      	ldr	r2, [pc, #24]	; (800082c <HAL_InitTick+0x5c>)
 8000812:	687b      	ldr	r3, [r7, #4]
 8000814:	6013      	str	r3, [r2, #0]
  {
    return HAL_ERROR;
  }

  /* Return function status */
  return HAL_OK;
 8000816:	2300      	movs	r3, #0
 8000818:	e000      	b.n	800081c <HAL_InitTick+0x4c>
    return HAL_ERROR;
 800081a:	2301      	movs	r3, #1
}
 800081c:	4618      	mov	r0, r3
 800081e:	3708      	adds	r7, #8
 8000820:	46bd      	mov	sp, r7
 8000822:	bd80      	pop	{r7, pc}
 8000824:	20000000 	.word	0x20000000
 8000828:	20000008 	.word	0x20000008
 800082c:	20000004 	.word	0x20000004

08000830 <HAL_IncTick>:
 * @note This function is declared as __weak to be overwritten in case of other 
  *      implementations in user file.
  * @retval None
  */
__weak void HAL_IncTick(void)
{
 8000830:	b480      	push	{r7}
 8000832:	af00      	add	r7, sp, #0
  uwTick += uwTickFreq;
 8000834:	4b06      	ldr	r3, [pc, #24]	; (8000850 <HAL_IncTick+0x20>)
 8000836:	781b      	ldrb	r3, [r3, #0]
 8000838:	461a      	mov	r2, r3
 800083a:	4b06      	ldr	r3, [pc, #24]	; (8000854 <HAL_IncTick+0x24>)
 800083c:	681b      	ldr	r3, [r3, #0]
 800083e:	4413      	add	r3, r2
 8000840:	4a04      	ldr	r2, [pc, #16]	; (8000854 <HAL_IncTick+0x24>)
 8000842:	6013      	str	r3, [r2, #0]
}
 8000844:	bf00      	nop
 8000846:	46bd      	mov	sp, r7
 8000848:	f85d 7b04 	ldr.w	r7, [sp], #4
 800084c:	4770      	bx	lr
 800084e:	bf00      	nop
 8000850:	20000008 	.word	0x20000008
 8000854:	20000028 	.word	0x20000028

08000858 <HAL_GetTick>:
  * @note This function is declared as __weak to be overwritten in case of other 
  *       implementations in user file.
  * @retval tick value
  */
__weak uint32_t HAL_GetTick(void)
{
 8000858:	b480      	push	{r7}
 800085a:	af00      	add	r7, sp, #0
  return uwTick;
 800085c:	4b03      	ldr	r3, [pc, #12]	; (800086c <HAL_GetTick+0x14>)
 800085e:	681b      	ldr	r3, [r3, #0]
}
 8000860:	4618      	mov	r0, r3
 8000862:	46bd      	mov	sp, r7
 8000864:	f85d 7b04 	ldr.w	r7, [sp], #4
 8000868:	4770      	bx	lr
 800086a:	bf00      	nop
 800086c:	20000028 	.word	0x20000028

08000870 <__NVIC_SetPriorityGrouping>:
           In case of a conflict between priority grouping and available
           priority bits (__NVIC_PRIO_BITS), the smallest possible priority group is set.
  \param [in]      PriorityGroup  Priority grouping field.
 */
__STATIC_INLINE void __NVIC_SetPriorityGrouping(uint32_t PriorityGroup)
{
 8000870:	b480      	push	{r7}
 8000872:	b085      	sub	sp, #20
 8000874:	af00      	add	r7, sp, #0
 8000876:	6078      	str	r0, [r7, #4]
  uint32_t reg_value;
  uint32_t PriorityGroupTmp = (PriorityGroup & (uint32_t)0x07UL);             /* only values 0..7 are used          */
 8000878:	687b      	ldr	r3, [r7, #4]
 800087a:	f003 0307 	and.w	r3, r3, #7
 800087e:	60fb      	str	r3, [r7, #12]

  reg_value  =  SCB->AIRCR;                                                   /* read old register configuration    */
 8000880:	4b0b      	ldr	r3, [pc, #44]	; (80008b0 <__NVIC_SetPriorityGrouping+0x40>)
 8000882:	68db      	ldr	r3, [r3, #12]
 8000884:	60bb      	str	r3, [r7, #8]
  reg_value &= ~((uint32_t)(SCB_AIRCR_VECTKEY_Msk | SCB_AIRCR_PRIGROUP_Msk)); /* clear bits to change               */
 8000886:	68ba      	ldr	r2, [r7, #8]
 8000888:	f64f 03ff 	movw	r3, #63743	; 0xf8ff
 800088c:	4013      	ands	r3, r2
 800088e:	60bb      	str	r3, [r7, #8]
  reg_value  =  (reg_value                                   |
                ((uint32_t)0x5FAUL << SCB_AIRCR_VECTKEY_Pos) |
                (PriorityGroupTmp << SCB_AIRCR_PRIGROUP_Pos)  );              /* Insert write key and priority group */
 8000890:	68fb      	ldr	r3, [r7, #12]
 8000892:	021a      	lsls	r2, r3, #8
                ((uint32_t)0x5FAUL << SCB_AIRCR_VECTKEY_Pos) |
 8000894:	68bb      	ldr	r3, [r7, #8]
 8000896:	431a      	orrs	r2, r3
  reg_value  =  (reg_value                                   |
 8000898:	4b06      	ldr	r3, [pc, #24]	; (80008b4 <__NVIC_SetPriorityGrouping+0x44>)
 800089a:	4313      	orrs	r3, r2
 800089c:	60bb      	str	r3, [r7, #8]
  SCB->AIRCR =  reg_value;
 800089e:	4a04      	ldr	r2, [pc, #16]	; (80008b0 <__NVIC_SetPriorityGrouping+0x40>)
 80008a0:	68bb      	ldr	r3, [r7, #8]
 80008a2:	60d3      	str	r3, [r2, #12]
}
 80008a4:	bf00      	nop
 80008a6:	3714      	adds	r7, #20
 80008a8:	46bd      	mov	sp, r7
 80008aa:	f85d 7b04 	ldr.w	r7, [sp], #4
 80008ae:	4770      	bx	lr
 80008b0:	e000ed00 	.word	0xe000ed00
 80008b4:	05fa0000 	.word	0x05fa0000

080008b8 <__NVIC_GetPriorityGrouping>:
  \brief   Get Priority Grouping
  \details Reads the priority grouping field from the NVIC Interrupt Controller.
  \return                Priority grouping field (SCB->AIRCR [10:8] PRIGROUP field).
 */
__STATIC_INLINE uint32_t __NVIC_GetPriorityGrouping(void)
{
 80008b8:	b480      	push	{r7}
 80008ba:	af00      	add	r7, sp, #0
  return ((uint32_t)((SCB->AIRCR & SCB_AIRCR_PRIGROUP_Msk) >> SCB_AIRCR_PRIGROUP_Pos));
 80008bc:	4b04      	ldr	r3, [pc, #16]	; (80008d0 <__NVIC_GetPriorityGrouping+0x18>)
 80008be:	68db      	ldr	r3, [r3, #12]
 80008c0:	0a1b      	lsrs	r3, r3, #8
 80008c2:	f003 0307 	and.w	r3, r3, #7
}
 80008c6:	4618      	mov	r0, r3
 80008c8:	46bd      	mov	sp, r7
 80008ca:	f85d 7b04 	ldr.w	r7, [sp], #4
 80008ce:	4770      	bx	lr
 80008d0:	e000ed00 	.word	0xe000ed00

080008d4 <__NVIC_SetPriority>:
  \param [in]      IRQn  Interrupt number.
  \param [in]  priority  Priority to set.
  \note    The priority cannot be set for every processor exception.
 */
__STATIC_INLINE void __NVIC_SetPriority(IRQn_Type IRQn, uint32_t priority)
{
 80008d4:	b480      	push	{r7}
 80008d6:	b083      	sub	sp, #12
 80008d8:	af00      	add	r7, sp, #0
 80008da:	4603      	mov	r3, r0
 80008dc:	6039      	str	r1, [r7, #0]
 80008de:	71fb      	strb	r3, [r7, #7]
  if ((int32_t)(IRQn) >= 0)
 80008e0:	f997 3007 	ldrsb.w	r3, [r7, #7]
 80008e4:	2b00      	cmp	r3, #0
 80008e6:	db0a      	blt.n	80008fe <__NVIC_SetPriority+0x2a>
  {
    NVIC->IP[((uint32_t)IRQn)]                = (uint8_t)((priority << (8U - __NVIC_PRIO_BITS)) & (uint32_t)0xFFUL);
 80008e8:	683b      	ldr	r3, [r7, #0]
 80008ea:	b2da      	uxtb	r2, r3
 80008ec:	490c      	ldr	r1, [pc, #48]	; (8000920 <__NVIC_SetPriority+0x4c>)
 80008ee:	f997 3007 	ldrsb.w	r3, [r7, #7]
 80008f2:	0112      	lsls	r2, r2, #4
 80008f4:	b2d2      	uxtb	r2, r2
 80008f6:	440b      	add	r3, r1
 80008f8:	f883 2300 	strb.w	r2, [r3, #768]	; 0x300
  }
  else
  {
    SCB->SHPR[(((uint32_t)IRQn) & 0xFUL)-4UL] = (uint8_t)((priority << (8U - __NVIC_PRIO_BITS)) & (uint32_t)0xFFUL);
  }
}
 80008fc:	e00a      	b.n	8000914 <__NVIC_SetPriority+0x40>
    SCB->SHPR[(((uint32_t)IRQn) & 0xFUL)-4UL] = (uint8_t)((priority << (8U - __NVIC_PRIO_BITS)) & (uint32_t)0xFFUL);
 80008fe:	683b      	ldr	r3, [r7, #0]
 8000900:	b2da      	uxtb	r2, r3
 8000902:	4908      	ldr	r1, [pc, #32]	; (8000924 <__NVIC_SetPriority+0x50>)
 8000904:	79fb      	ldrb	r3, [r7, #7]
 8000906:	f003 030f 	and.w	r3, r3, #15
 800090a:	3b04      	subs	r3, #4
 800090c:	0112      	lsls	r2, r2, #4
 800090e:	b2d2      	uxtb	r2, r2
 8000910:	440b      	add	r3, r1
 8000912:	761a      	strb	r2, [r3, #24]
}
 8000914:	bf00      	nop
 8000916:	370c      	adds	r7, #12
 8000918:	46bd      	mov	sp, r7
 800091a:	f85d 7b04 	ldr.w	r7, [sp], #4
 800091e:	4770      	bx	lr
 8000920:	e000e100 	.word	0xe000e100
 8000924:	e000ed00 	.word	0xe000ed00

08000928 <NVIC_EncodePriority>:
  \param [in]   PreemptPriority  Preemptive priority value (starting from 0).
  \param [in]       SubPriority  Subpriority value (starting from 0).
  \return                        Encoded priority. Value can be used in the function \ref NVIC_SetPriority().
 */
__STATIC_INLINE uint32_t NVIC_EncodePriority (uint32_t PriorityGroup, uint32_t PreemptPriority, uint32_t SubPriority)
{
 8000928:	b480      	push	{r7}
 800092a:	b089      	sub	sp, #36	; 0x24
 800092c:	af00      	add	r7, sp, #0
 800092e:	60f8      	str	r0, [r7, #12]
 8000930:	60b9      	str	r1, [r7, #8]
 8000932:	607a      	str	r2, [r7, #4]
  uint32_t PriorityGroupTmp = (PriorityGroup & (uint32_t)0x07UL);   /* only values 0..7 are used          */
 8000934:	68fb      	ldr	r3, [r7, #12]
 8000936:	f003 0307 	and.w	r3, r3, #7
 800093a:	61fb      	str	r3, [r7, #28]
  uint32_t PreemptPriorityBits;
  uint32_t SubPriorityBits;

  PreemptPriorityBits = ((7UL - PriorityGroupTmp) > (uint32_t)(__NVIC_PRIO_BITS)) ? (uint32_t)(__NVIC_PRIO_BITS) : (uint32_t)(7UL - PriorityGroupTmp);
 800093c:	69fb      	ldr	r3, [r7, #28]
 800093e:	f1c3 0307 	rsb	r3, r3, #7
 8000942:	2b04      	cmp	r3, #4
 8000944:	bf28      	it	cs
 8000946:	2304      	movcs	r3, #4
 8000948:	61bb      	str	r3, [r7, #24]
  SubPriorityBits     = ((PriorityGroupTmp + (uint32_t)(__NVIC_PRIO_BITS)) < (uint32_t)7UL) ? (uint32_t)0UL : (uint32_t)((PriorityGroupTmp - 7UL) + (uint32_t)(__NVIC_PRIO_BITS));
 800094a:	69fb      	ldr	r3, [r7, #28]
 800094c:	3304      	adds	r3, #4
 800094e:	2b06      	cmp	r3, #6
 8000950:	d902      	bls.n	8000958 <NVIC_EncodePriority+0x30>
 8000952:	69fb      	ldr	r3, [r7, #28]
 8000954:	3b03      	subs	r3, #3
 8000956:	e000      	b.n	800095a <NVIC_EncodePriority+0x32>
 8000958:	2300      	movs	r3, #0
 800095a:	617b      	str	r3, [r7, #20]

  return (
           ((PreemptPriority & (uint32_t)((1UL << (PreemptPriorityBits)) - 1UL)) << SubPriorityBits) |
 800095c:	f04f 32ff 	mov.w	r2, #4294967295	; 0xffffffff
 8000960:	69bb      	ldr	r3, [r7, #24]
 8000962:	fa02 f303 	lsl.w	r3, r2, r3
 8000966:	43da      	mvns	r2, r3
 8000968:	68bb      	ldr	r3, [r7, #8]
 800096a:	401a      	ands	r2, r3
 800096c:	697b      	ldr	r3, [r7, #20]
 800096e:	409a      	lsls	r2, r3
           ((SubPriority     & (uint32_t)((1UL << (SubPriorityBits    )) - 1UL)))
 8000970:	f04f 31ff 	mov.w	r1, #4294967295	; 0xffffffff
 8000974:	697b      	ldr	r3, [r7, #20]
 8000976:	fa01 f303 	lsl.w	r3, r1, r3
 800097a:	43d9      	mvns	r1, r3
 800097c:	687b      	ldr	r3, [r7, #4]
 800097e:	400b      	ands	r3, r1
           ((PreemptPriority & (uint32_t)((1UL << (PreemptPriorityBits)) - 1UL)) << SubPriorityBits) |
 8000980:	4313      	orrs	r3, r2
         );
}
 8000982:	4618      	mov	r0, r3
 8000984:	3724      	adds	r7, #36	; 0x24
 8000986:	46bd      	mov	sp, r7
 8000988:	f85d 7b04 	ldr.w	r7, [sp], #4
 800098c:	4770      	bx	lr
	...

08000990 <SysTick_Config>:
  \note    When the variable <b>__Vendor_SysTickConfig</b> is set to 1, then the
           function <b>SysTick_Config</b> is not included. In this case, the file <b><i>device</i>.h</b>
           must contain a vendor-specific implementation of this function.
 */
__STATIC_INLINE uint32_t SysTick_Config(uint32_t ticks)
{
 8000990:	b580      	push	{r7, lr}
 8000992:	b082      	sub	sp, #8
 8000994:	af00      	add	r7, sp, #0
 8000996:	6078      	str	r0, [r7, #4]
  if ((ticks - 1UL) > SysTick_LOAD_RELOAD_Msk)
 8000998:	687b      	ldr	r3, [r7, #4]
 800099a:	3b01      	subs	r3, #1
 800099c:	f1b3 7f80 	cmp.w	r3, #16777216	; 0x1000000
 80009a0:	d301      	bcc.n	80009a6 <SysTick_Config+0x16>
  {
    return (1UL);                                                   /* Reload value impossible */
 80009a2:	2301      	movs	r3, #1
 80009a4:	e00f      	b.n	80009c6 <SysTick_Config+0x36>
  }

  SysTick->LOAD  = (uint32_t)(ticks - 1UL);                         /* set reload register */
 80009a6:	4a0a      	ldr	r2, [pc, #40]	; (80009d0 <SysTick_Config+0x40>)
 80009a8:	687b      	ldr	r3, [r7, #4]
 80009aa:	3b01      	subs	r3, #1
 80009ac:	6053      	str	r3, [r2, #4]
  NVIC_SetPriority (SysTick_IRQn, (1UL << __NVIC_PRIO_BITS) - 1UL); /* set Priority for Systick Interrupt */
 80009ae:	210f      	movs	r1, #15
 80009b0:	f04f 30ff 	mov.w	r0, #4294967295	; 0xffffffff
 80009b4:	f7ff ff8e 	bl	80008d4 <__NVIC_SetPriority>
  SysTick->VAL   = 0UL;                                             /* Load the SysTick Counter Value */
 80009b8:	4b05      	ldr	r3, [pc, #20]	; (80009d0 <SysTick_Config+0x40>)
 80009ba:	2200      	movs	r2, #0
 80009bc:	609a      	str	r2, [r3, #8]
  SysTick->CTRL  = SysTick_CTRL_CLKSOURCE_Msk |
 80009be:	4b04      	ldr	r3, [pc, #16]	; (80009d0 <SysTick_Config+0x40>)
 80009c0:	2207      	movs	r2, #7
 80009c2:	601a      	str	r2, [r3, #0]
                   SysTick_CTRL_TICKINT_Msk   |
                   SysTick_CTRL_ENABLE_Msk;                         /* Enable SysTick IRQ and SysTick Timer */
  return (0UL);                                                     /* Function successful */
 80009c4:	2300      	movs	r3, #0
}
 80009c6:	4618      	mov	r0, r3
 80009c8:	3708      	adds	r7, #8
 80009ca:	46bd      	mov	sp, r7
 80009cc:	bd80      	pop	{r7, pc}
 80009ce:	bf00      	nop
 80009d0:	e000e010 	.word	0xe000e010

080009d4 <HAL_NVIC_SetPriorityGrouping>:
  * @note   When the NVIC_PriorityGroup_0 is selected, IRQ preemption is no more possible. 
  *         The pending IRQ priority will be managed only by the subpriority. 
  * @retval None
  */
void HAL_NVIC_SetPriorityGrouping(uint32_t PriorityGroup)
{
 80009d4:	b580      	push	{r7, lr}
 80009d6:	b082      	sub	sp, #8
 80009d8:	af00      	add	r7, sp, #0
 80009da:	6078      	str	r0, [r7, #4]
  /* Check the parameters */
  assert_param(IS_NVIC_PRIORITY_GROUP(PriorityGroup));
  
  /* Set the PRIGROUP[10:8] bits according to the PriorityGroup parameter value */
  NVIC_SetPriorityGrouping(PriorityGroup);
 80009dc:	6878      	ldr	r0, [r7, #4]
 80009de:	f7ff ff47 	bl	8000870 <__NVIC_SetPriorityGrouping>
}
 80009e2:	bf00      	nop
 80009e4:	3708      	adds	r7, #8
 80009e6:	46bd      	mov	sp, r7
 80009e8:	bd80      	pop	{r7, pc}

080009ea <HAL_NVIC_SetPriority>:
  *         This parameter can be a value between 0 and 15
  *         A lower priority value indicates a higher priority.          
  * @retval None
  */
void HAL_NVIC_SetPriority(IRQn_Type IRQn, uint32_t PreemptPriority, uint32_t SubPriority)
{ 
 80009ea:	b580      	push	{r7, lr}
 80009ec:	b086      	sub	sp, #24
 80009ee:	af00      	add	r7, sp, #0
 80009f0:	4603      	mov	r3, r0
 80009f2:	60b9      	str	r1, [r7, #8]
 80009f4:	607a      	str	r2, [r7, #4]
 80009f6:	73fb      	strb	r3, [r7, #15]
  uint32_t prioritygroup = 0x00;
 80009f8:	2300      	movs	r3, #0
 80009fa:	617b      	str	r3, [r7, #20]
  
  /* Check the parameters */
  assert_param(IS_NVIC_SUB_PRIORITY(SubPriority));
  assert_param(IS_NVIC_PREEMPTION_PRIORITY(PreemptPriority));
  
  prioritygroup = NVIC_GetPriorityGrouping();
 80009fc:	f7ff ff5c 	bl	80008b8 <__NVIC_GetPriorityGrouping>
 8000a00:	6178      	str	r0, [r7, #20]
  
  NVIC_SetPriority(IRQn, NVIC_EncodePriority(prioritygroup, PreemptPriority, SubPriority));
 8000a02:	687a      	ldr	r2, [r7, #4]
 8000a04:	68b9      	ldr	r1, [r7, #8]
 8000a06:	6978      	ldr	r0, [r7, #20]
 8000a08:	f7ff ff8e 	bl	8000928 <NVIC_EncodePriority>
 8000a0c:	4602      	mov	r2, r0
 8000a0e:	f997 300f 	ldrsb.w	r3, [r7, #15]
 8000a12:	4611      	mov	r1, r2
 8000a14:	4618      	mov	r0, r3
 8000a16:	f7ff ff5d 	bl	80008d4 <__NVIC_SetPriority>
}
 8000a1a:	bf00      	nop
 8000a1c:	3718      	adds	r7, #24
 8000a1e:	46bd      	mov	sp, r7
 8000a20:	bd80      	pop	{r7, pc}

08000a22 <HAL_SYSTICK_Config>:
  * @param  TicksNumb Specifies the ticks Number of ticks between two interrupts.
  * @retval status:  - 0  Function succeeded.
  *                  - 1  Function failed.
  */
uint32_t HAL_SYSTICK_Config(uint32_t TicksNumb)
{
 8000a22:	b580      	push	{r7, lr}
 8000a24:	b082      	sub	sp, #8
 8000a26:	af00      	add	r7, sp, #0
 8000a28:	6078      	str	r0, [r7, #4]
   return SysTick_Config(TicksNumb);
 8000a2a:	6878      	ldr	r0, [r7, #4]
 8000a2c:	f7ff ffb0 	bl	8000990 <SysTick_Config>
 8000a30:	4603      	mov	r3, r0
}
 8000a32:	4618      	mov	r0, r3
 8000a34:	3708      	adds	r7, #8
 8000a36:	46bd      	mov	sp, r7
 8000a38:	bd80      	pop	{r7, pc}
	...

08000a3c <HAL_GPIO_Init>:
  * @param  GPIO_Init pointer to a GPIO_InitTypeDef structure that contains
  *         the configuration information for the specified GPIO peripheral.
  * @retval None
  */
void HAL_GPIO_Init(GPIO_TypeDef  *GPIOx, GPIO_InitTypeDef *GPIO_Init)
{
 8000a3c:	b480      	push	{r7}
 8000a3e:	b089      	sub	sp, #36	; 0x24
 8000a40:	af00      	add	r7, sp, #0
 8000a42:	6078      	str	r0, [r7, #4]
 8000a44:	6039      	str	r1, [r7, #0]
  uint32_t position = 0x00;
 8000a46:	2300      	movs	r3, #0
 8000a48:	61fb      	str	r3, [r7, #28]
  uint32_t ioposition = 0x00;
 8000a4a:	2300      	movs	r3, #0
 8000a4c:	617b      	str	r3, [r7, #20]
  uint32_t iocurrent = 0x00;
 8000a4e:	2300      	movs	r3, #0
 8000a50:	613b      	str	r3, [r7, #16]
  uint32_t temp = 0x00;
 8000a52:	2300      	movs	r3, #0
 8000a54:	61bb      	str	r3, [r7, #24]
  assert_param(IS_GPIO_PIN(GPIO_Init->Pin));
  assert_param(IS_GPIO_MODE(GPIO_Init->Mode));
  assert_param(IS_GPIO_PULL(GPIO_Init->Pull));

  /* Configure the port pins */
  for(position = 0; position < GPIO_NUMBER; position++)
 8000a56:	2300      	movs	r3, #0
 8000a58:	61fb      	str	r3, [r7, #28]
 8000a5a:	e175      	b.n	8000d48 <HAL_GPIO_Init+0x30c>
  {
    /* Get the IO position */
    ioposition = ((uint32_t)0x01) << position;
 8000a5c:	2201      	movs	r2, #1
 8000a5e:	69fb      	ldr	r3, [r7, #28]
 8000a60:	fa02 f303 	lsl.w	r3, r2, r3
 8000a64:	617b      	str	r3, [r7, #20]
    /* Get the current IO position */
    iocurrent = (uint32_t)(GPIO_Init->Pin) & ioposition;
 8000a66:	683b      	ldr	r3, [r7, #0]
 8000a68:	681b      	ldr	r3, [r3, #0]
 8000a6a:	697a      	ldr	r2, [r7, #20]
 8000a6c:	4013      	ands	r3, r2
 8000a6e:	613b      	str	r3, [r7, #16]

    if(iocurrent == ioposition)
 8000a70:	693a      	ldr	r2, [r7, #16]
 8000a72:	697b      	ldr	r3, [r7, #20]
 8000a74:	429a      	cmp	r2, r3
 8000a76:	f040 8164 	bne.w	8000d42 <HAL_GPIO_Init+0x306>
    {
      /*--------------------- GPIO Mode Configuration ------------------------*/
      /* In case of Output or Alternate function mode selection */
      if((GPIO_Init->Mode == GPIO_MODE_OUTPUT_PP) || (GPIO_Init->Mode == GPIO_MODE_AF_PP) ||
 8000a7a:	683b      	ldr	r3, [r7, #0]
 8000a7c:	685b      	ldr	r3, [r3, #4]
 8000a7e:	2b01      	cmp	r3, #1
 8000a80:	d00b      	beq.n	8000a9a <HAL_GPIO_Init+0x5e>
 8000a82:	683b      	ldr	r3, [r7, #0]
 8000a84:	685b      	ldr	r3, [r3, #4]
 8000a86:	2b02      	cmp	r3, #2
 8000a88:	d007      	beq.n	8000a9a <HAL_GPIO_Init+0x5e>
         (GPIO_Init->Mode == GPIO_MODE_OUTPUT_OD) || (GPIO_Init->Mode == GPIO_MODE_AF_OD))
 8000a8a:	683b      	ldr	r3, [r7, #0]
 8000a8c:	685b      	ldr	r3, [r3, #4]
      if((GPIO_Init->Mode == GPIO_MODE_OUTPUT_PP) || (GPIO_Init->Mode == GPIO_MODE_AF_PP) ||
 8000a8e:	2b11      	cmp	r3, #17
 8000a90:	d003      	beq.n	8000a9a <HAL_GPIO_Init+0x5e>
         (GPIO_Init->Mode == GPIO_MODE_OUTPUT_OD) || (GPIO_Init->Mode == GPIO_MODE_AF_OD))
 8000a92:	683b      	ldr	r3, [r7, #0]
 8000a94:	685b      	ldr	r3, [r3, #4]
 8000a96:	2b12      	cmp	r3, #18
 8000a98:	d130      	bne.n	8000afc <HAL_GPIO_Init+0xc0>
      {
        /* Check the Speed parameter */
        assert_param(IS_GPIO_SPEED(GPIO_Init->Speed));
        /* Configure the IO Speed */
        temp = GPIOx->OSPEEDR; 
 8000a9a:	687b      	ldr	r3, [r7, #4]
 8000a9c:	689b      	ldr	r3, [r3, #8]
 8000a9e:	61bb      	str	r3, [r7, #24]
        temp &= ~(GPIO_OSPEEDER_OSPEEDR0 << (position * 2));
 8000aa0:	69fb      	ldr	r3, [r7, #28]
 8000aa2:	005b      	lsls	r3, r3, #1
 8000aa4:	2203      	movs	r2, #3
 8000aa6:	fa02 f303 	lsl.w	r3, r2, r3
 8000aaa:	43db      	mvns	r3, r3
 8000aac:	69ba      	ldr	r2, [r7, #24]
 8000aae:	4013      	ands	r3, r2
 8000ab0:	61bb      	str	r3, [r7, #24]
        temp |= (GPIO_Init->Speed << (position * 2));
 8000ab2:	683b      	ldr	r3, [r7, #0]
 8000ab4:	68da      	ldr	r2, [r3, #12]
 8000ab6:	69fb      	ldr	r3, [r7, #28]
 8000ab8:	005b      	lsls	r3, r3, #1
 8000aba:	fa02 f303 	lsl.w	r3, r2, r3
 8000abe:	69ba      	ldr	r2, [r7, #24]
 8000ac0:	4313      	orrs	r3, r2
 8000ac2:	61bb      	str	r3, [r7, #24]
        GPIOx->OSPEEDR = temp;
 8000ac4:	687b      	ldr	r3, [r7, #4]
 8000ac6:	69ba      	ldr	r2, [r7, #24]
 8000ac8:	609a      	str	r2, [r3, #8]

        /* Configure the IO Output Type */
        temp = GPIOx->OTYPER;
 8000aca:	687b      	ldr	r3, [r7, #4]
 8000acc:	685b      	ldr	r3, [r3, #4]
 8000ace:	61bb      	str	r3, [r7, #24]
        temp &= ~(GPIO_OTYPER_OT_0 << position) ;
 8000ad0:	2201      	movs	r2, #1
 8000ad2:	69fb      	ldr	r3, [r7, #28]
 8000ad4:	fa02 f303 	lsl.w	r3, r2, r3
 8000ad8:	43db      	mvns	r3, r3
 8000ada:	69ba      	ldr	r2, [r7, #24]
 8000adc:	4013      	ands	r3, r2
 8000ade:	61bb      	str	r3, [r7, #24]
        temp |= (((GPIO_Init->Mode & GPIO_OUTPUT_TYPE) >> 4) << position);
 8000ae0:	683b      	ldr	r3, [r7, #0]
 8000ae2:	685b      	ldr	r3, [r3, #4]
 8000ae4:	091b      	lsrs	r3, r3, #4
 8000ae6:	f003 0201 	and.w	r2, r3, #1
 8000aea:	69fb      	ldr	r3, [r7, #28]
 8000aec:	fa02 f303 	lsl.w	r3, r2, r3
 8000af0:	69ba      	ldr	r2, [r7, #24]
 8000af2:	4313      	orrs	r3, r2
 8000af4:	61bb      	str	r3, [r7, #24]
        GPIOx->OTYPER = temp;
 8000af6:	687b      	ldr	r3, [r7, #4]
 8000af8:	69ba      	ldr	r2, [r7, #24]
 8000afa:	605a      	str	r2, [r3, #4]
      }

      /* Activate the Pull-up or Pull down resistor for the current IO */
      temp = GPIOx->PUPDR;
 8000afc:	687b      	ldr	r3, [r7, #4]
 8000afe:	68db      	ldr	r3, [r3, #12]
 8000b00:	61bb      	str	r3, [r7, #24]
      temp &= ~(GPIO_PUPDR_PUPDR0 << (position * 2));
 8000b02:	69fb      	ldr	r3, [r7, #28]
 8000b04:	005b      	lsls	r3, r3, #1
 8000b06:	2203      	movs	r2, #3
 8000b08:	fa02 f303 	lsl.w	r3, r2, r3
 8000b0c:	43db      	mvns	r3, r3
 8000b0e:	69ba      	ldr	r2, [r7, #24]
 8000b10:	4013      	ands	r3, r2
 8000b12:	61bb      	str	r3, [r7, #24]
      temp |= ((GPIO_Init->Pull) << (position * 2));
 8000b14:	683b      	ldr	r3, [r7, #0]
 8000b16:	689a      	ldr	r2, [r3, #8]
 8000b18:	69fb      	ldr	r3, [r7, #28]
 8000b1a:	005b      	lsls	r3, r3, #1
 8000b1c:	fa02 f303 	lsl.w	r3, r2, r3
 8000b20:	69ba      	ldr	r2, [r7, #24]
 8000b22:	4313      	orrs	r3, r2
 8000b24:	61bb      	str	r3, [r7, #24]
      GPIOx->PUPDR = temp;
 8000b26:	687b      	ldr	r3, [r7, #4]
 8000b28:	69ba      	ldr	r2, [r7, #24]
 8000b2a:	60da      	str	r2, [r3, #12]

      /* In case of Alternate function mode selection */
      if((GPIO_Init->Mode == GPIO_MODE_AF_PP) || (GPIO_Init->Mode == GPIO_MODE_AF_OD))
 8000b2c:	683b      	ldr	r3, [r7, #0]
 8000b2e:	685b      	ldr	r3, [r3, #4]
 8000b30:	2b02      	cmp	r3, #2
 8000b32:	d003      	beq.n	8000b3c <HAL_GPIO_Init+0x100>
 8000b34:	683b      	ldr	r3, [r7, #0]
 8000b36:	685b      	ldr	r3, [r3, #4]
 8000b38:	2b12      	cmp	r3, #18
 8000b3a:	d123      	bne.n	8000b84 <HAL_GPIO_Init+0x148>
      {
        /* Check the Alternate function parameter */
        assert_param(IS_GPIO_AF(GPIO_Init->Alternate));

        /* Configure Alternate function mapped with the current IO */
        temp = GPIOx->AFR[position >> 3];
 8000b3c:	69fb      	ldr	r3, [r7, #28]
 8000b3e:	08da      	lsrs	r2, r3, #3
 8000b40:	687b      	ldr	r3, [r7, #4]
 8000b42:	3208      	adds	r2, #8
 8000b44:	f853 3022 	ldr.w	r3, [r3, r2, lsl #2]
 8000b48:	61bb      	str	r3, [r7, #24]
        temp &= ~((uint32_t)0xF << ((uint32_t)(position & (uint32_t)0x07) * 4)) ;
 8000b4a:	69fb      	ldr	r3, [r7, #28]
 8000b4c:	f003 0307 	and.w	r3, r3, #7
 8000b50:	009b      	lsls	r3, r3, #2
 8000b52:	220f      	movs	r2, #15
 8000b54:	fa02 f303 	lsl.w	r3, r2, r3
 8000b58:	43db      	mvns	r3, r3
 8000b5a:	69ba      	ldr	r2, [r7, #24]
 8000b5c:	4013      	ands	r3, r2
 8000b5e:	61bb      	str	r3, [r7, #24]
        temp |= ((uint32_t)(GPIO_Init->Alternate) << (((uint32_t)position & (uint32_t)0x07) * 4));
 8000b60:	683b      	ldr	r3, [r7, #0]
 8000b62:	691a      	ldr	r2, [r3, #16]
 8000b64:	69fb      	ldr	r3, [r7, #28]
 8000b66:	f003 0307 	and.w	r3, r3, #7
 8000b6a:	009b      	lsls	r3, r3, #2
 8000b6c:	fa02 f303 	lsl.w	r3, r2, r3
 8000b70:	69ba      	ldr	r2, [r7, #24]
 8000b72:	4313      	orrs	r3, r2
 8000b74:	61bb      	str	r3, [r7, #24]
        GPIOx->AFR[position >> 3] = temp;
 8000b76:	69fb      	ldr	r3, [r7, #28]
 8000b78:	08da      	lsrs	r2, r3, #3
 8000b7a:	687b      	ldr	r3, [r7, #4]
 8000b7c:	3208      	adds	r2, #8
 8000b7e:	69b9      	ldr	r1, [r7, #24]
 8000b80:	f843 1022 	str.w	r1, [r3, r2, lsl #2]
      }
      
      /* Configure IO Direction mode (Input, Output, Alternate or Analog) */
      temp = GPIOx->MODER;
 8000b84:	687b      	ldr	r3, [r7, #4]
 8000b86:	681b      	ldr	r3, [r3, #0]
 8000b88:	61bb      	str	r3, [r7, #24]
      temp &= ~(GPIO_MODER_MODER0 << (position * 2));
 8000b8a:	69fb      	ldr	r3, [r7, #28]
 8000b8c:	005b      	lsls	r3, r3, #1
 8000b8e:	2203      	movs	r2, #3
 8000b90:	fa02 f303 	lsl.w	r3, r2, r3
 8000b94:	43db      	mvns	r3, r3
 8000b96:	69ba      	ldr	r2, [r7, #24]
 8000b98:	4013      	ands	r3, r2
 8000b9a:	61bb      	str	r3, [r7, #24]
      temp |= ((GPIO_Init->Mode & GPIO_MODE) << (position * 2));
 8000b9c:	683b      	ldr	r3, [r7, #0]
 8000b9e:	685b      	ldr	r3, [r3, #4]
 8000ba0:	f003 0203 	and.w	r2, r3, #3
 8000ba4:	69fb      	ldr	r3, [r7, #28]
 8000ba6:	005b      	lsls	r3, r3, #1
 8000ba8:	fa02 f303 	lsl.w	r3, r2, r3
 8000bac:	69ba      	ldr	r2, [r7, #24]
 8000bae:	4313      	orrs	r3, r2
 8000bb0:	61bb      	str	r3, [r7, #24]
      GPIOx->MODER = temp;
 8000bb2:	687b      	ldr	r3, [r7, #4]
 8000bb4:	69ba      	ldr	r2, [r7, #24]
 8000bb6:	601a      	str	r2, [r3, #0]

      /*--------------------- EXTI Mode Configuration ------------------------*/
      /* Configure the External Interrupt or event for the current IO */
      if((GPIO_Init->Mode & EXTI_MODE) == EXTI_MODE)
 8000bb8:	683b      	ldr	r3, [r7, #0]
 8000bba:	685b      	ldr	r3, [r3, #4]
 8000bbc:	f003 5380 	and.w	r3, r3, #268435456	; 0x10000000
 8000bc0:	2b00      	cmp	r3, #0
 8000bc2:	f000 80be 	beq.w	8000d42 <HAL_GPIO_Init+0x306>
      {
        /* Enable SYSCFG Clock */
        __HAL_RCC_SYSCFG_CLK_ENABLE();
 8000bc6:	4b65      	ldr	r3, [pc, #404]	; (8000d5c <HAL_GPIO_Init+0x320>)
 8000bc8:	6c5b      	ldr	r3, [r3, #68]	; 0x44
 8000bca:	4a64      	ldr	r2, [pc, #400]	; (8000d5c <HAL_GPIO_Init+0x320>)
 8000bcc:	f443 4380 	orr.w	r3, r3, #16384	; 0x4000
 8000bd0:	6453      	str	r3, [r2, #68]	; 0x44
 8000bd2:	4b62      	ldr	r3, [pc, #392]	; (8000d5c <HAL_GPIO_Init+0x320>)
 8000bd4:	6c5b      	ldr	r3, [r3, #68]	; 0x44
 8000bd6:	f403 4380 	and.w	r3, r3, #16384	; 0x4000
 8000bda:	60fb      	str	r3, [r7, #12]
 8000bdc:	68fb      	ldr	r3, [r7, #12]

        temp = SYSCFG->EXTICR[position >> 2];
 8000bde:	4a60      	ldr	r2, [pc, #384]	; (8000d60 <HAL_GPIO_Init+0x324>)
 8000be0:	69fb      	ldr	r3, [r7, #28]
 8000be2:	089b      	lsrs	r3, r3, #2
 8000be4:	3302      	adds	r3, #2
 8000be6:	f852 3023 	ldr.w	r3, [r2, r3, lsl #2]
 8000bea:	61bb      	str	r3, [r7, #24]
        temp &= ~(((uint32_t)0x0F) << (4 * (position & 0x03)));
 8000bec:	69fb      	ldr	r3, [r7, #28]
 8000bee:	f003 0303 	and.w	r3, r3, #3
 8000bf2:	009b      	lsls	r3, r3, #2
 8000bf4:	220f      	movs	r2, #15
 8000bf6:	fa02 f303 	lsl.w	r3, r2, r3
 8000bfa:	43db      	mvns	r3, r3
 8000bfc:	69ba      	ldr	r2, [r7, #24]
 8000bfe:	4013      	ands	r3, r2
 8000c00:	61bb      	str	r3, [r7, #24]
        temp |= ((uint32_t)(GPIO_GET_INDEX(GPIOx)) << (4 * (position & 0x03)));
 8000c02:	687b      	ldr	r3, [r7, #4]
 8000c04:	4a57      	ldr	r2, [pc, #348]	; (8000d64 <HAL_GPIO_Init+0x328>)
 8000c06:	4293      	cmp	r3, r2
 8000c08:	d037      	beq.n	8000c7a <HAL_GPIO_Init+0x23e>
 8000c0a:	687b      	ldr	r3, [r7, #4]
 8000c0c:	4a56      	ldr	r2, [pc, #344]	; (8000d68 <HAL_GPIO_Init+0x32c>)
 8000c0e:	4293      	cmp	r3, r2
 8000c10:	d031      	beq.n	8000c76 <HAL_GPIO_Init+0x23a>
 8000c12:	687b      	ldr	r3, [r7, #4]
 8000c14:	4a55      	ldr	r2, [pc, #340]	; (8000d6c <HAL_GPIO_Init+0x330>)
 8000c16:	4293      	cmp	r3, r2
 8000c18:	d02b      	beq.n	8000c72 <HAL_GPIO_Init+0x236>
 8000c1a:	687b      	ldr	r3, [r7, #4]
 8000c1c:	4a54      	ldr	r2, [pc, #336]	; (8000d70 <HAL_GPIO_Init+0x334>)
 8000c1e:	4293      	cmp	r3, r2
 8000c20:	d025      	beq.n	8000c6e <HAL_GPIO_Init+0x232>
 8000c22:	687b      	ldr	r3, [r7, #4]
 8000c24:	4a53      	ldr	r2, [pc, #332]	; (8000d74 <HAL_GPIO_Init+0x338>)
 8000c26:	4293      	cmp	r3, r2
 8000c28:	d01f      	beq.n	8000c6a <HAL_GPIO_Init+0x22e>
 8000c2a:	687b      	ldr	r3, [r7, #4]
 8000c2c:	4a52      	ldr	r2, [pc, #328]	; (8000d78 <HAL_GPIO_Init+0x33c>)
 8000c2e:	4293      	cmp	r3, r2
 8000c30:	d019      	beq.n	8000c66 <HAL_GPIO_Init+0x22a>
 8000c32:	687b      	ldr	r3, [r7, #4]
 8000c34:	4a51      	ldr	r2, [pc, #324]	; (8000d7c <HAL_GPIO_Init+0x340>)
 8000c36:	4293      	cmp	r3, r2
 8000c38:	d013      	beq.n	8000c62 <HAL_GPIO_Init+0x226>
 8000c3a:	687b      	ldr	r3, [r7, #4]
 8000c3c:	4a50      	ldr	r2, [pc, #320]	; (8000d80 <HAL_GPIO_Init+0x344>)
 8000c3e:	4293      	cmp	r3, r2
 8000c40:	d00d      	beq.n	8000c5e <HAL_GPIO_Init+0x222>
 8000c42:	687b      	ldr	r3, [r7, #4]
 8000c44:	4a4f      	ldr	r2, [pc, #316]	; (8000d84 <HAL_GPIO_Init+0x348>)
 8000c46:	4293      	cmp	r3, r2
 8000c48:	d007      	beq.n	8000c5a <HAL_GPIO_Init+0x21e>
 8000c4a:	687b      	ldr	r3, [r7, #4]
 8000c4c:	4a4e      	ldr	r2, [pc, #312]	; (8000d88 <HAL_GPIO_Init+0x34c>)
 8000c4e:	4293      	cmp	r3, r2
 8000c50:	d101      	bne.n	8000c56 <HAL_GPIO_Init+0x21a>
 8000c52:	2309      	movs	r3, #9
 8000c54:	e012      	b.n	8000c7c <HAL_GPIO_Init+0x240>
 8000c56:	230a      	movs	r3, #10
 8000c58:	e010      	b.n	8000c7c <HAL_GPIO_Init+0x240>
 8000c5a:	2308      	movs	r3, #8
 8000c5c:	e00e      	b.n	8000c7c <HAL_GPIO_Init+0x240>
 8000c5e:	2307      	movs	r3, #7
 8000c60:	e00c      	b.n	8000c7c <HAL_GPIO_Init+0x240>
 8000c62:	2306      	movs	r3, #6
 8000c64:	e00a      	b.n	8000c7c <HAL_GPIO_Init+0x240>
 8000c66:	2305      	movs	r3, #5
 8000c68:	e008      	b.n	8000c7c <HAL_GPIO_Init+0x240>
 8000c6a:	2304      	movs	r3, #4
 8000c6c:	e006      	b.n	8000c7c <HAL_GPIO_Init+0x240>
 8000c6e:	2303      	movs	r3, #3
 8000c70:	e004      	b.n	8000c7c <HAL_GPIO_Init+0x240>
 8000c72:	2302      	movs	r3, #2
 8000c74:	e002      	b.n	8000c7c <HAL_GPIO_Init+0x240>
 8000c76:	2301      	movs	r3, #1
 8000c78:	e000      	b.n	8000c7c <HAL_GPIO_Init+0x240>
 8000c7a:	2300      	movs	r3, #0
 8000c7c:	69fa      	ldr	r2, [r7, #28]
 8000c7e:	f002 0203 	and.w	r2, r2, #3
 8000c82:	0092      	lsls	r2, r2, #2
 8000c84:	4093      	lsls	r3, r2
 8000c86:	69ba      	ldr	r2, [r7, #24]
 8000c88:	4313      	orrs	r3, r2
 8000c8a:	61bb      	str	r3, [r7, #24]
        SYSCFG->EXTICR[position >> 2] = temp;
 8000c8c:	4934      	ldr	r1, [pc, #208]	; (8000d60 <HAL_GPIO_Init+0x324>)
 8000c8e:	69fb      	ldr	r3, [r7, #28]
 8000c90:	089b      	lsrs	r3, r3, #2
 8000c92:	3302      	adds	r3, #2
 8000c94:	69ba      	ldr	r2, [r7, #24]
 8000c96:	f841 2023 	str.w	r2, [r1, r3, lsl #2]

        /* Clear EXTI line configuration */
        temp = EXTI->IMR;
 8000c9a:	4b3c      	ldr	r3, [pc, #240]	; (8000d8c <HAL_GPIO_Init+0x350>)
 8000c9c:	681b      	ldr	r3, [r3, #0]
 8000c9e:	61bb      	str	r3, [r7, #24]
        temp &= ~((uint32_t)iocurrent);
 8000ca0:	693b      	ldr	r3, [r7, #16]
 8000ca2:	43db      	mvns	r3, r3
 8000ca4:	69ba      	ldr	r2, [r7, #24]
 8000ca6:	4013      	ands	r3, r2
 8000ca8:	61bb      	str	r3, [r7, #24]
        if((GPIO_Init->Mode & GPIO_MODE_IT) == GPIO_MODE_IT)
 8000caa:	683b      	ldr	r3, [r7, #0]
 8000cac:	685b      	ldr	r3, [r3, #4]
 8000cae:	f403 3380 	and.w	r3, r3, #65536	; 0x10000
 8000cb2:	2b00      	cmp	r3, #0
 8000cb4:	d003      	beq.n	8000cbe <HAL_GPIO_Init+0x282>
        {
          temp |= iocurrent;
 8000cb6:	69ba      	ldr	r2, [r7, #24]
 8000cb8:	693b      	ldr	r3, [r7, #16]
 8000cba:	4313      	orrs	r3, r2
 8000cbc:	61bb      	str	r3, [r7, #24]
        }
        EXTI->IMR = temp;
 8000cbe:	4a33      	ldr	r2, [pc, #204]	; (8000d8c <HAL_GPIO_Init+0x350>)
 8000cc0:	69bb      	ldr	r3, [r7, #24]
 8000cc2:	6013      	str	r3, [r2, #0]

        temp = EXTI->EMR;
 8000cc4:	4b31      	ldr	r3, [pc, #196]	; (8000d8c <HAL_GPIO_Init+0x350>)
 8000cc6:	685b      	ldr	r3, [r3, #4]
 8000cc8:	61bb      	str	r3, [r7, #24]
        temp &= ~((uint32_t)iocurrent);
 8000cca:	693b      	ldr	r3, [r7, #16]
 8000ccc:	43db      	mvns	r3, r3
 8000cce:	69ba      	ldr	r2, [r7, #24]
 8000cd0:	4013      	ands	r3, r2
 8000cd2:	61bb      	str	r3, [r7, #24]
        if((GPIO_Init->Mode & GPIO_MODE_EVT) == GPIO_MODE_EVT)
 8000cd4:	683b      	ldr	r3, [r7, #0]
 8000cd6:	685b      	ldr	r3, [r3, #4]
 8000cd8:	f403 3300 	and.w	r3, r3, #131072	; 0x20000
 8000cdc:	2b00      	cmp	r3, #0
 8000cde:	d003      	beq.n	8000ce8 <HAL_GPIO_Init+0x2ac>
        {
          temp |= iocurrent;
 8000ce0:	69ba      	ldr	r2, [r7, #24]
 8000ce2:	693b      	ldr	r3, [r7, #16]
 8000ce4:	4313      	orrs	r3, r2
 8000ce6:	61bb      	str	r3, [r7, #24]
        }
        EXTI->EMR = temp;
 8000ce8:	4a28      	ldr	r2, [pc, #160]	; (8000d8c <HAL_GPIO_Init+0x350>)
 8000cea:	69bb      	ldr	r3, [r7, #24]
 8000cec:	6053      	str	r3, [r2, #4]

        /* Clear Rising Falling edge configuration */
        temp = EXTI->RTSR;
 8000cee:	4b27      	ldr	r3, [pc, #156]	; (8000d8c <HAL_GPIO_Init+0x350>)
 8000cf0:	689b      	ldr	r3, [r3, #8]
 8000cf2:	61bb      	str	r3, [r7, #24]
        temp &= ~((uint32_t)iocurrent);
 8000cf4:	693b      	ldr	r3, [r7, #16]
 8000cf6:	43db      	mvns	r3, r3
 8000cf8:	69ba      	ldr	r2, [r7, #24]
 8000cfa:	4013      	ands	r3, r2
 8000cfc:	61bb      	str	r3, [r7, #24]
        if((GPIO_Init->Mode & RISING_EDGE) == RISING_EDGE)
 8000cfe:	683b      	ldr	r3, [r7, #0]
 8000d00:	685b      	ldr	r3, [r3, #4]
 8000d02:	f403 1380 	and.w	r3, r3, #1048576	; 0x100000
 8000d06:	2b00      	cmp	r3, #0
 8000d08:	d003      	beq.n	8000d12 <HAL_GPIO_Init+0x2d6>
        {
          temp |= iocurrent;
 8000d0a:	69ba      	ldr	r2, [r7, #24]
 8000d0c:	693b      	ldr	r3, [r7, #16]
 8000d0e:	4313      	orrs	r3, r2
 8000d10:	61bb      	str	r3, [r7, #24]
        }
        EXTI->RTSR = temp;
 8000d12:	4a1e      	ldr	r2, [pc, #120]	; (8000d8c <HAL_GPIO_Init+0x350>)
 8000d14:	69bb      	ldr	r3, [r7, #24]
 8000d16:	6093      	str	r3, [r2, #8]

        temp = EXTI->FTSR;
 8000d18:	4b1c      	ldr	r3, [pc, #112]	; (8000d8c <HAL_GPIO_Init+0x350>)
 8000d1a:	68db      	ldr	r3, [r3, #12]
 8000d1c:	61bb      	str	r3, [r7, #24]
        temp &= ~((uint32_t)iocurrent);
 8000d1e:	693b      	ldr	r3, [r7, #16]
 8000d20:	43db      	mvns	r3, r3
 8000d22:	69ba      	ldr	r2, [r7, #24]
 8000d24:	4013      	ands	r3, r2
 8000d26:	61bb      	str	r3, [r7, #24]
        if((GPIO_Init->Mode & FALLING_EDGE) == FALLING_EDGE)
 8000d28:	683b      	ldr	r3, [r7, #0]
 8000d2a:	685b      	ldr	r3, [r3, #4]
 8000d2c:	f403 1300 	and.w	r3, r3, #2097152	; 0x200000
 8000d30:	2b00      	cmp	r3, #0
 8000d32:	d003      	beq.n	8000d3c <HAL_GPIO_Init+0x300>
        {
          temp |= iocurrent;
 8000d34:	69ba      	ldr	r2, [r7, #24]
 8000d36:	693b      	ldr	r3, [r7, #16]
 8000d38:	4313      	orrs	r3, r2
 8000d3a:	61bb      	str	r3, [r7, #24]
        }
        EXTI->FTSR = temp;
 8000d3c:	4a13      	ldr	r2, [pc, #76]	; (8000d8c <HAL_GPIO_Init+0x350>)
 8000d3e:	69bb      	ldr	r3, [r7, #24]
 8000d40:	60d3      	str	r3, [r2, #12]
  for(position = 0; position < GPIO_NUMBER; position++)
 8000d42:	69fb      	ldr	r3, [r7, #28]
 8000d44:	3301      	adds	r3, #1
 8000d46:	61fb      	str	r3, [r7, #28]
 8000d48:	69fb      	ldr	r3, [r7, #28]
 8000d4a:	2b0f      	cmp	r3, #15
 8000d4c:	f67f ae86 	bls.w	8000a5c <HAL_GPIO_Init+0x20>
      }
    }
  }
}
 8000d50:	bf00      	nop
 8000d52:	3724      	adds	r7, #36	; 0x24
 8000d54:	46bd      	mov	sp, r7
 8000d56:	f85d 7b04 	ldr.w	r7, [sp], #4
 8000d5a:	4770      	bx	lr
 8000d5c:	40023800 	.word	0x40023800
 8000d60:	40013800 	.word	0x40013800
 8000d64:	40020000 	.word	0x40020000
 8000d68:	40020400 	.word	0x40020400
 8000d6c:	40020800 	.word	0x40020800
 8000d70:	40020c00 	.word	0x40020c00
 8000d74:	40021000 	.word	0x40021000
 8000d78:	40021400 	.word	0x40021400
 8000d7c:	40021800 	.word	0x40021800
 8000d80:	40021c00 	.word	0x40021c00
 8000d84:	40022000 	.word	0x40022000
 8000d88:	40022400 	.word	0x40022400
 8000d8c:	40013c00 	.word	0x40013c00

08000d90 <HAL_PWREx_EnableOverDrive>:
  *         During the Over-drive switch activation, no peripheral clocks should be enabled.   
  *         The peripheral clocks must be enabled once the Over-drive mode is activated.   
  * @retval HAL status
  */
HAL_StatusTypeDef HAL_PWREx_EnableOverDrive(void)
{
 8000d90:	b580      	push	{r7, lr}
 8000d92:	b082      	sub	sp, #8
 8000d94:	af00      	add	r7, sp, #0
  uint32_t tickstart = 0;
 8000d96:	2300      	movs	r3, #0
 8000d98:	607b      	str	r3, [r7, #4]

  __HAL_RCC_PWR_CLK_ENABLE();
 8000d9a:	4b23      	ldr	r3, [pc, #140]	; (8000e28 <HAL_PWREx_EnableOverDrive+0x98>)
 8000d9c:	6c1b      	ldr	r3, [r3, #64]	; 0x40
 8000d9e:	4a22      	ldr	r2, [pc, #136]	; (8000e28 <HAL_PWREx_EnableOverDrive+0x98>)
 8000da0:	f043 5380 	orr.w	r3, r3, #268435456	; 0x10000000
 8000da4:	6413      	str	r3, [r2, #64]	; 0x40
 8000da6:	4b20      	ldr	r3, [pc, #128]	; (8000e28 <HAL_PWREx_EnableOverDrive+0x98>)
 8000da8:	6c1b      	ldr	r3, [r3, #64]	; 0x40
 8000daa:	f003 5380 	and.w	r3, r3, #268435456	; 0x10000000
 8000dae:	603b      	str	r3, [r7, #0]
 8000db0:	683b      	ldr	r3, [r7, #0]
  
  /* Enable the Over-drive to extend the clock frequency to 216 MHz */
  __HAL_PWR_OVERDRIVE_ENABLE();
 8000db2:	4b1e      	ldr	r3, [pc, #120]	; (8000e2c <HAL_PWREx_EnableOverDrive+0x9c>)
 8000db4:	681b      	ldr	r3, [r3, #0]
 8000db6:	4a1d      	ldr	r2, [pc, #116]	; (8000e2c <HAL_PWREx_EnableOverDrive+0x9c>)
 8000db8:	f443 3380 	orr.w	r3, r3, #65536	; 0x10000
 8000dbc:	6013      	str	r3, [r2, #0]

  /* Get tick */
  tickstart = HAL_GetTick();
 8000dbe:	f7ff fd4b 	bl	8000858 <HAL_GetTick>
 8000dc2:	6078      	str	r0, [r7, #4]

  while(!__HAL_PWR_GET_FLAG(PWR_FLAG_ODRDY))
 8000dc4:	e009      	b.n	8000dda <HAL_PWREx_EnableOverDrive+0x4a>
  {
    if((HAL_GetTick() - tickstart ) > PWR_OVERDRIVE_TIMEOUT_VALUE)
 8000dc6:	f7ff fd47 	bl	8000858 <HAL_GetTick>
 8000dca:	4602      	mov	r2, r0
 8000dcc:	687b      	ldr	r3, [r7, #4]
 8000dce:	1ad3      	subs	r3, r2, r3
 8000dd0:	f5b3 7f7a 	cmp.w	r3, #1000	; 0x3e8
 8000dd4:	d901      	bls.n	8000dda <HAL_PWREx_EnableOverDrive+0x4a>
    {
      return HAL_TIMEOUT;
 8000dd6:	2303      	movs	r3, #3
 8000dd8:	e022      	b.n	8000e20 <HAL_PWREx_EnableOverDrive+0x90>
  while(!__HAL_PWR_GET_FLAG(PWR_FLAG_ODRDY))
 8000dda:	4b14      	ldr	r3, [pc, #80]	; (8000e2c <HAL_PWREx_EnableOverDrive+0x9c>)
 8000ddc:	685b      	ldr	r3, [r3, #4]
 8000dde:	f403 3380 	and.w	r3, r3, #65536	; 0x10000
 8000de2:	f5b3 3f80 	cmp.w	r3, #65536	; 0x10000
 8000de6:	d1ee      	bne.n	8000dc6 <HAL_PWREx_EnableOverDrive+0x36>
    }
  }
  
  /* Enable the Over-drive switch */
  __HAL_PWR_OVERDRIVESWITCHING_ENABLE();
 8000de8:	4b10      	ldr	r3, [pc, #64]	; (8000e2c <HAL_PWREx_EnableOverDrive+0x9c>)
 8000dea:	681b      	ldr	r3, [r3, #0]
 8000dec:	4a0f      	ldr	r2, [pc, #60]	; (8000e2c <HAL_PWREx_EnableOverDrive+0x9c>)
 8000dee:	f443 3300 	orr.w	r3, r3, #131072	; 0x20000
 8000df2:	6013      	str	r3, [r2, #0]

  /* Get tick */
  tickstart = HAL_GetTick();
 8000df4:	f7ff fd30 	bl	8000858 <HAL_GetTick>
 8000df8:	6078      	str	r0, [r7, #4]

  while(!__HAL_PWR_GET_FLAG(PWR_FLAG_ODSWRDY))
 8000dfa:	e009      	b.n	8000e10 <HAL_PWREx_EnableOverDrive+0x80>
  {
    if((HAL_GetTick() - tickstart ) > PWR_OVERDRIVE_TIMEOUT_VALUE)
 8000dfc:	f7ff fd2c 	bl	8000858 <HAL_GetTick>
 8000e00:	4602      	mov	r2, r0
 8000e02:	687b      	ldr	r3, [r7, #4]
 8000e04:	1ad3      	subs	r3, r2, r3
 8000e06:	f5b3 7f7a 	cmp.w	r3, #1000	; 0x3e8
 8000e0a:	d901      	bls.n	8000e10 <HAL_PWREx_EnableOverDrive+0x80>
    {
      return HAL_TIMEOUT;
 8000e0c:	2303      	movs	r3, #3
 8000e0e:	e007      	b.n	8000e20 <HAL_PWREx_EnableOverDrive+0x90>
  while(!__HAL_PWR_GET_FLAG(PWR_FLAG_ODSWRDY))
 8000e10:	4b06      	ldr	r3, [pc, #24]	; (8000e2c <HAL_PWREx_EnableOverDrive+0x9c>)
 8000e12:	685b      	ldr	r3, [r3, #4]
 8000e14:	f403 3300 	and.w	r3, r3, #131072	; 0x20000
 8000e18:	f5b3 3f00 	cmp.w	r3, #131072	; 0x20000
 8000e1c:	d1ee      	bne.n	8000dfc <HAL_PWREx_EnableOverDrive+0x6c>
    }
  } 
  return HAL_OK;
 8000e1e:	2300      	movs	r3, #0
}
 8000e20:	4618      	mov	r0, r3
 8000e22:	3708      	adds	r7, #8
 8000e24:	46bd      	mov	sp, r7
 8000e26:	bd80      	pop	{r7, pc}
 8000e28:	40023800 	.word	0x40023800
 8000e2c:	40007000 	.word	0x40007000

08000e30 <HAL_RCC_OscConfig>:
  *         supported by this function. User should request a transition to HSE Off
  *         first and then HSE On or HSE Bypass.
  * @retval HAL status
  */
HAL_StatusTypeDef HAL_RCC_OscConfig(RCC_OscInitTypeDef  *RCC_OscInitStruct)
{
 8000e30:	b580      	push	{r7, lr}
 8000e32:	b086      	sub	sp, #24
 8000e34:	af00      	add	r7, sp, #0
 8000e36:	6078      	str	r0, [r7, #4]
  uint32_t tickstart;
  uint32_t pll_config;
  FlagStatus pwrclkchanged = RESET;
 8000e38:	2300      	movs	r3, #0
 8000e3a:	75fb      	strb	r3, [r7, #23]

  /* Check Null pointer */
  if (RCC_OscInitStruct == NULL)
 8000e3c:	687b      	ldr	r3, [r7, #4]
 8000e3e:	2b00      	cmp	r3, #0
 8000e40:	d101      	bne.n	8000e46 <HAL_RCC_OscConfig+0x16>
  {
    return HAL_ERROR;
 8000e42:	2301      	movs	r3, #1
 8000e44:	e29b      	b.n	800137e <HAL_RCC_OscConfig+0x54e>

  /* Check the parameters */
  assert_param(IS_RCC_OSCILLATORTYPE(RCC_OscInitStruct->OscillatorType));

  /*------------------------------- HSE Configuration ------------------------*/
  if (((RCC_OscInitStruct->OscillatorType) & RCC_OSCILLATORTYPE_HSE) == RCC_OSCILLATORTYPE_HSE)
 8000e46:	687b      	ldr	r3, [r7, #4]
 8000e48:	681b      	ldr	r3, [r3, #0]
 8000e4a:	f003 0301 	and.w	r3, r3, #1
 8000e4e:	2b00      	cmp	r3, #0
 8000e50:	f000 8087 	beq.w	8000f62 <HAL_RCC_OscConfig+0x132>
  {
    /* Check the parameters */
    assert_param(IS_RCC_HSE(RCC_OscInitStruct->HSEState));
    /* When the HSE is used as system clock or clock source for PLL, It can not be disabled */
    if ((__HAL_RCC_GET_SYSCLK_SOURCE() == RCC_SYSCLKSOURCE_STATUS_HSE)
 8000e54:	4b96      	ldr	r3, [pc, #600]	; (80010b0 <HAL_RCC_OscConfig+0x280>)
 8000e56:	689b      	ldr	r3, [r3, #8]
 8000e58:	f003 030c 	and.w	r3, r3, #12
 8000e5c:	2b04      	cmp	r3, #4
 8000e5e:	d00c      	beq.n	8000e7a <HAL_RCC_OscConfig+0x4a>
        || ((__HAL_RCC_GET_SYSCLK_SOURCE() == RCC_SYSCLKSOURCE_STATUS_PLLCLK) && ((RCC->PLLCFGR & RCC_PLLCFGR_PLLSRC) == RCC_PLLCFGR_PLLSRC_HSE)))
 8000e60:	4b93      	ldr	r3, [pc, #588]	; (80010b0 <HAL_RCC_OscConfig+0x280>)
 8000e62:	689b      	ldr	r3, [r3, #8]
 8000e64:	f003 030c 	and.w	r3, r3, #12
 8000e68:	2b08      	cmp	r3, #8
 8000e6a:	d112      	bne.n	8000e92 <HAL_RCC_OscConfig+0x62>
 8000e6c:	4b90      	ldr	r3, [pc, #576]	; (80010b0 <HAL_RCC_OscConfig+0x280>)
 8000e6e:	685b      	ldr	r3, [r3, #4]
 8000e70:	f403 0380 	and.w	r3, r3, #4194304	; 0x400000
 8000e74:	f5b3 0f80 	cmp.w	r3, #4194304	; 0x400000
 8000e78:	d10b      	bne.n	8000e92 <HAL_RCC_OscConfig+0x62>
    {
      if ((__HAL_RCC_GET_FLAG(RCC_FLAG_HSERDY) != RESET) && (RCC_OscInitStruct->HSEState == RCC_HSE_OFF))
 8000e7a:	4b8d      	ldr	r3, [pc, #564]	; (80010b0 <HAL_RCC_OscConfig+0x280>)
 8000e7c:	681b      	ldr	r3, [r3, #0]
 8000e7e:	f403 3300 	and.w	r3, r3, #131072	; 0x20000
 8000e82:	2b00      	cmp	r3, #0
 8000e84:	d06c      	beq.n	8000f60 <HAL_RCC_OscConfig+0x130>
 8000e86:	687b      	ldr	r3, [r7, #4]
 8000e88:	685b      	ldr	r3, [r3, #4]
 8000e8a:	2b00      	cmp	r3, #0
 8000e8c:	d168      	bne.n	8000f60 <HAL_RCC_OscConfig+0x130>
      {
        return HAL_ERROR;
 8000e8e:	2301      	movs	r3, #1
 8000e90:	e275      	b.n	800137e <HAL_RCC_OscConfig+0x54e>
      }
    }
    else
    {
      /* Set the new HSE configuration ---------------------------------------*/
      __HAL_RCC_HSE_CONFIG(RCC_OscInitStruct->HSEState);
 8000e92:	687b      	ldr	r3, [r7, #4]
 8000e94:	685b      	ldr	r3, [r3, #4]
 8000e96:	f5b3 3f80 	cmp.w	r3, #65536	; 0x10000
 8000e9a:	d106      	bne.n	8000eaa <HAL_RCC_OscConfig+0x7a>
 8000e9c:	4b84      	ldr	r3, [pc, #528]	; (80010b0 <HAL_RCC_OscConfig+0x280>)
 8000e9e:	681b      	ldr	r3, [r3, #0]
 8000ea0:	4a83      	ldr	r2, [pc, #524]	; (80010b0 <HAL_RCC_OscConfig+0x280>)
 8000ea2:	f443 3380 	orr.w	r3, r3, #65536	; 0x10000
 8000ea6:	6013      	str	r3, [r2, #0]
 8000ea8:	e02e      	b.n	8000f08 <HAL_RCC_OscConfig+0xd8>
 8000eaa:	687b      	ldr	r3, [r7, #4]
 8000eac:	685b      	ldr	r3, [r3, #4]
 8000eae:	2b00      	cmp	r3, #0
 8000eb0:	d10c      	bne.n	8000ecc <HAL_RCC_OscConfig+0x9c>
 8000eb2:	4b7f      	ldr	r3, [pc, #508]	; (80010b0 <HAL_RCC_OscConfig+0x280>)
 8000eb4:	681b      	ldr	r3, [r3, #0]
 8000eb6:	4a7e      	ldr	r2, [pc, #504]	; (80010b0 <HAL_RCC_OscConfig+0x280>)
 8000eb8:	f423 3380 	bic.w	r3, r3, #65536	; 0x10000
 8000ebc:	6013      	str	r3, [r2, #0]
 8000ebe:	4b7c      	ldr	r3, [pc, #496]	; (80010b0 <HAL_RCC_OscConfig+0x280>)
 8000ec0:	681b      	ldr	r3, [r3, #0]
 8000ec2:	4a7b      	ldr	r2, [pc, #492]	; (80010b0 <HAL_RCC_OscConfig+0x280>)
 8000ec4:	f423 2380 	bic.w	r3, r3, #262144	; 0x40000
 8000ec8:	6013      	str	r3, [r2, #0]
 8000eca:	e01d      	b.n	8000f08 <HAL_RCC_OscConfig+0xd8>
 8000ecc:	687b      	ldr	r3, [r7, #4]
 8000ece:	685b      	ldr	r3, [r3, #4]
 8000ed0:	f5b3 2fa0 	cmp.w	r3, #327680	; 0x50000
 8000ed4:	d10c      	bne.n	8000ef0 <HAL_RCC_OscConfig+0xc0>
 8000ed6:	4b76      	ldr	r3, [pc, #472]	; (80010b0 <HAL_RCC_OscConfig+0x280>)
 8000ed8:	681b      	ldr	r3, [r3, #0]
 8000eda:	4a75      	ldr	r2, [pc, #468]	; (80010b0 <HAL_RCC_OscConfig+0x280>)
 8000edc:	f443 2380 	orr.w	r3, r3, #262144	; 0x40000
 8000ee0:	6013      	str	r3, [r2, #0]
 8000ee2:	4b73      	ldr	r3, [pc, #460]	; (80010b0 <HAL_RCC_OscConfig+0x280>)
 8000ee4:	681b      	ldr	r3, [r3, #0]
 8000ee6:	4a72      	ldr	r2, [pc, #456]	; (80010b0 <HAL_RCC_OscConfig+0x280>)
 8000ee8:	f443 3380 	orr.w	r3, r3, #65536	; 0x10000
 8000eec:	6013      	str	r3, [r2, #0]
 8000eee:	e00b      	b.n	8000f08 <HAL_RCC_OscConfig+0xd8>
 8000ef0:	4b6f      	ldr	r3, [pc, #444]	; (80010b0 <HAL_RCC_OscConfig+0x280>)
 8000ef2:	681b      	ldr	r3, [r3, #0]
 8000ef4:	4a6e      	ldr	r2, [pc, #440]	; (80010b0 <HAL_RCC_OscConfig+0x280>)
 8000ef6:	f423 3380 	bic.w	r3, r3, #65536	; 0x10000
 8000efa:	6013      	str	r3, [r2, #0]
 8000efc:	4b6c      	ldr	r3, [pc, #432]	; (80010b0 <HAL_RCC_OscConfig+0x280>)
 8000efe:	681b      	ldr	r3, [r3, #0]
 8000f00:	4a6b      	ldr	r2, [pc, #428]	; (80010b0 <HAL_RCC_OscConfig+0x280>)
 8000f02:	f423 2380 	bic.w	r3, r3, #262144	; 0x40000
 8000f06:	6013      	str	r3, [r2, #0]

      /* Check the HSE State */
      if (RCC_OscInitStruct->HSEState != RCC_HSE_OFF)
 8000f08:	687b      	ldr	r3, [r7, #4]
 8000f0a:	685b      	ldr	r3, [r3, #4]
 8000f0c:	2b00      	cmp	r3, #0
 8000f0e:	d013      	beq.n	8000f38 <HAL_RCC_OscConfig+0x108>
      {
        /* Get Start Tick*/
        tickstart = HAL_GetTick();
 8000f10:	f7ff fca2 	bl	8000858 <HAL_GetTick>
 8000f14:	6138      	str	r0, [r7, #16]

        /* Wait till HSE is ready */
        while (__HAL_RCC_GET_FLAG(RCC_FLAG_HSERDY) == RESET)
 8000f16:	e008      	b.n	8000f2a <HAL_RCC_OscConfig+0xfa>
        {
          if ((HAL_GetTick() - tickstart) > HSE_TIMEOUT_VALUE)
 8000f18:	f7ff fc9e 	bl	8000858 <HAL_GetTick>
 8000f1c:	4602      	mov	r2, r0
 8000f1e:	693b      	ldr	r3, [r7, #16]
 8000f20:	1ad3      	subs	r3, r2, r3
 8000f22:	2b64      	cmp	r3, #100	; 0x64
 8000f24:	d901      	bls.n	8000f2a <HAL_RCC_OscConfig+0xfa>
          {
            return HAL_TIMEOUT;
 8000f26:	2303      	movs	r3, #3
 8000f28:	e229      	b.n	800137e <HAL_RCC_OscConfig+0x54e>
        while (__HAL_RCC_GET_FLAG(RCC_FLAG_HSERDY) == RESET)
 8000f2a:	4b61      	ldr	r3, [pc, #388]	; (80010b0 <HAL_RCC_OscConfig+0x280>)
 8000f2c:	681b      	ldr	r3, [r3, #0]
 8000f2e:	f403 3300 	and.w	r3, r3, #131072	; 0x20000
 8000f32:	2b00      	cmp	r3, #0
 8000f34:	d0f0      	beq.n	8000f18 <HAL_RCC_OscConfig+0xe8>
 8000f36:	e014      	b.n	8000f62 <HAL_RCC_OscConfig+0x132>
        }
      }
      else
      {
        /* Get Start Tick*/
        tickstart = HAL_GetTick();
 8000f38:	f7ff fc8e 	bl	8000858 <HAL_GetTick>
 8000f3c:	6138      	str	r0, [r7, #16]

        /* Wait till HSE is bypassed or disabled */
        while (__HAL_RCC_GET_FLAG(RCC_FLAG_HSERDY) != RESET)
 8000f3e:	e008      	b.n	8000f52 <HAL_RCC_OscConfig+0x122>
        {
          if ((HAL_GetTick() - tickstart) > HSE_TIMEOUT_VALUE)
 8000f40:	f7ff fc8a 	bl	8000858 <HAL_GetTick>
 8000f44:	4602      	mov	r2, r0
 8000f46:	693b      	ldr	r3, [r7, #16]
 8000f48:	1ad3      	subs	r3, r2, r3
 8000f4a:	2b64      	cmp	r3, #100	; 0x64
 8000f4c:	d901      	bls.n	8000f52 <HAL_RCC_OscConfig+0x122>
          {
            return HAL_TIMEOUT;
 8000f4e:	2303      	movs	r3, #3
 8000f50:	e215      	b.n	800137e <HAL_RCC_OscConfig+0x54e>
        while (__HAL_RCC_GET_FLAG(RCC_FLAG_HSERDY) != RESET)
 8000f52:	4b57      	ldr	r3, [pc, #348]	; (80010b0 <HAL_RCC_OscConfig+0x280>)
 8000f54:	681b      	ldr	r3, [r3, #0]
 8000f56:	f403 3300 	and.w	r3, r3, #131072	; 0x20000
 8000f5a:	2b00      	cmp	r3, #0
 8000f5c:	d1f0      	bne.n	8000f40 <HAL_RCC_OscConfig+0x110>
 8000f5e:	e000      	b.n	8000f62 <HAL_RCC_OscConfig+0x132>
      if ((__HAL_RCC_GET_FLAG(RCC_FLAG_HSERDY) != RESET) && (RCC_OscInitStruct->HSEState == RCC_HSE_OFF))
 8000f60:	bf00      	nop
        }
      }
    }
  }
  /*----------------------------- HSI Configuration --------------------------*/
  if (((RCC_OscInitStruct->OscillatorType) & RCC_OSCILLATORTYPE_HSI) == RCC_OSCILLATORTYPE_HSI)
 8000f62:	687b      	ldr	r3, [r7, #4]
 8000f64:	681b      	ldr	r3, [r3, #0]
 8000f66:	f003 0302 	and.w	r3, r3, #2
 8000f6a:	2b00      	cmp	r3, #0
 8000f6c:	d069      	beq.n	8001042 <HAL_RCC_OscConfig+0x212>
    /* Check the parameters */
    assert_param(IS_RCC_HSI(RCC_OscInitStruct->HSIState));
    assert_param(IS_RCC_CALIBRATION_VALUE(RCC_OscInitStruct->HSICalibrationValue));

    /* Check if HSI is used as system clock or as PLL source when PLL is selected as system clock */
    if ((__HAL_RCC_GET_SYSCLK_SOURCE() == RCC_SYSCLKSOURCE_STATUS_HSI)
 8000f6e:	4b50      	ldr	r3, [pc, #320]	; (80010b0 <HAL_RCC_OscConfig+0x280>)
 8000f70:	689b      	ldr	r3, [r3, #8]
 8000f72:	f003 030c 	and.w	r3, r3, #12
 8000f76:	2b00      	cmp	r3, #0
 8000f78:	d00b      	beq.n	8000f92 <HAL_RCC_OscConfig+0x162>
        || ((__HAL_RCC_GET_SYSCLK_SOURCE() == RCC_SYSCLKSOURCE_STATUS_PLLCLK) && ((RCC->PLLCFGR & RCC_PLLCFGR_PLLSRC) == RCC_PLLCFGR_PLLSRC_HSI)))
 8000f7a:	4b4d      	ldr	r3, [pc, #308]	; (80010b0 <HAL_RCC_OscConfig+0x280>)
 8000f7c:	689b      	ldr	r3, [r3, #8]
 8000f7e:	f003 030c 	and.w	r3, r3, #12
 8000f82:	2b08      	cmp	r3, #8
 8000f84:	d11c      	bne.n	8000fc0 <HAL_RCC_OscConfig+0x190>
 8000f86:	4b4a      	ldr	r3, [pc, #296]	; (80010b0 <HAL_RCC_OscConfig+0x280>)
 8000f88:	685b      	ldr	r3, [r3, #4]
 8000f8a:	f403 0380 	and.w	r3, r3, #4194304	; 0x400000
 8000f8e:	2b00      	cmp	r3, #0
 8000f90:	d116      	bne.n	8000fc0 <HAL_RCC_OscConfig+0x190>
    {
      /* When HSI is used as system clock it will not disabled */
      if ((__HAL_RCC_GET_FLAG(RCC_FLAG_HSIRDY) != RESET) && (RCC_OscInitStruct->HSIState != RCC_HSI_ON))
 8000f92:	4b47      	ldr	r3, [pc, #284]	; (80010b0 <HAL_RCC_OscConfig+0x280>)
 8000f94:	681b      	ldr	r3, [r3, #0]
 8000f96:	f003 0302 	and.w	r3, r3, #2
 8000f9a:	2b00      	cmp	r3, #0
 8000f9c:	d005      	beq.n	8000faa <HAL_RCC_OscConfig+0x17a>
 8000f9e:	687b      	ldr	r3, [r7, #4]
 8000fa0:	68db      	ldr	r3, [r3, #12]
 8000fa2:	2b01      	cmp	r3, #1
 8000fa4:	d001      	beq.n	8000faa <HAL_RCC_OscConfig+0x17a>
      {
        return HAL_ERROR;
 8000fa6:	2301      	movs	r3, #1
 8000fa8:	e1e9      	b.n	800137e <HAL_RCC_OscConfig+0x54e>
      }
      /* Otherwise, just the calibration is allowed */
      else
      {
        /* Adjusts the Internal High Speed oscillator (HSI) calibration value.*/
        __HAL_RCC_HSI_CALIBRATIONVALUE_ADJUST(RCC_OscInitStruct->HSICalibrationValue);
 8000faa:	4b41      	ldr	r3, [pc, #260]	; (80010b0 <HAL_RCC_OscConfig+0x280>)
 8000fac:	681b      	ldr	r3, [r3, #0]
 8000fae:	f023 02f8 	bic.w	r2, r3, #248	; 0xf8
 8000fb2:	687b      	ldr	r3, [r7, #4]
 8000fb4:	691b      	ldr	r3, [r3, #16]
 8000fb6:	00db      	lsls	r3, r3, #3
 8000fb8:	493d      	ldr	r1, [pc, #244]	; (80010b0 <HAL_RCC_OscConfig+0x280>)
 8000fba:	4313      	orrs	r3, r2
 8000fbc:	600b      	str	r3, [r1, #0]
      if ((__HAL_RCC_GET_FLAG(RCC_FLAG_HSIRDY) != RESET) && (RCC_OscInitStruct->HSIState != RCC_HSI_ON))
 8000fbe:	e040      	b.n	8001042 <HAL_RCC_OscConfig+0x212>
      }
    }
    else
    {
      /* Check the HSI State */
      if ((RCC_OscInitStruct->HSIState) != RCC_HSI_OFF)
 8000fc0:	687b      	ldr	r3, [r7, #4]
 8000fc2:	68db      	ldr	r3, [r3, #12]
 8000fc4:	2b00      	cmp	r3, #0
 8000fc6:	d023      	beq.n	8001010 <HAL_RCC_OscConfig+0x1e0>
      {
        /* Enable the Internal High Speed oscillator (HSI). */
        __HAL_RCC_HSI_ENABLE();
 8000fc8:	4b39      	ldr	r3, [pc, #228]	; (80010b0 <HAL_RCC_OscConfig+0x280>)
 8000fca:	681b      	ldr	r3, [r3, #0]
 8000fcc:	4a38      	ldr	r2, [pc, #224]	; (80010b0 <HAL_RCC_OscConfig+0x280>)
 8000fce:	f043 0301 	orr.w	r3, r3, #1
 8000fd2:	6013      	str	r3, [r2, #0]

        /* Get Start Tick*/
        tickstart = HAL_GetTick();
 8000fd4:	f7ff fc40 	bl	8000858 <HAL_GetTick>
 8000fd8:	6138      	str	r0, [r7, #16]

        /* Wait till HSI is ready */
        while (__HAL_RCC_GET_FLAG(RCC_FLAG_HSIRDY) == RESET)
 8000fda:	e008      	b.n	8000fee <HAL_RCC_OscConfig+0x1be>
        {
          if ((HAL_GetTick() - tickstart) > HSI_TIMEOUT_VALUE)
 8000fdc:	f7ff fc3c 	bl	8000858 <HAL_GetTick>
 8000fe0:	4602      	mov	r2, r0
 8000fe2:	693b      	ldr	r3, [r7, #16]
 8000fe4:	1ad3      	subs	r3, r2, r3
 8000fe6:	2b02      	cmp	r3, #2
 8000fe8:	d901      	bls.n	8000fee <HAL_RCC_OscConfig+0x1be>
          {
            return HAL_TIMEOUT;
 8000fea:	2303      	movs	r3, #3
 8000fec:	e1c7      	b.n	800137e <HAL_RCC_OscConfig+0x54e>
        while (__HAL_RCC_GET_FLAG(RCC_FLAG_HSIRDY) == RESET)
 8000fee:	4b30      	ldr	r3, [pc, #192]	; (80010b0 <HAL_RCC_OscConfig+0x280>)
 8000ff0:	681b      	ldr	r3, [r3, #0]
 8000ff2:	f003 0302 	and.w	r3, r3, #2
 8000ff6:	2b00      	cmp	r3, #0
 8000ff8:	d0f0      	beq.n	8000fdc <HAL_RCC_OscConfig+0x1ac>
          }
        }

        /* Adjusts the Internal High Speed oscillator (HSI) calibration value.*/
        __HAL_RCC_HSI_CALIBRATIONVALUE_ADJUST(RCC_OscInitStruct->HSICalibrationValue);
 8000ffa:	4b2d      	ldr	r3, [pc, #180]	; (80010b0 <HAL_RCC_OscConfig+0x280>)
 8000ffc:	681b      	ldr	r3, [r3, #0]
 8000ffe:	f023 02f8 	bic.w	r2, r3, #248	; 0xf8
 8001002:	687b      	ldr	r3, [r7, #4]
 8001004:	691b      	ldr	r3, [r3, #16]
 8001006:	00db      	lsls	r3, r3, #3
 8001008:	4929      	ldr	r1, [pc, #164]	; (80010b0 <HAL_RCC_OscConfig+0x280>)
 800100a:	4313      	orrs	r3, r2
 800100c:	600b      	str	r3, [r1, #0]
 800100e:	e018      	b.n	8001042 <HAL_RCC_OscConfig+0x212>
      }
      else
      {
        /* Disable the Internal High Speed oscillator (HSI). */
        __HAL_RCC_HSI_DISABLE();
 8001010:	4b27      	ldr	r3, [pc, #156]	; (80010b0 <HAL_RCC_OscConfig+0x280>)
 8001012:	681b      	ldr	r3, [r3, #0]
 8001014:	4a26      	ldr	r2, [pc, #152]	; (80010b0 <HAL_RCC_OscConfig+0x280>)
 8001016:	f023 0301 	bic.w	r3, r3, #1
 800101a:	6013      	str	r3, [r2, #0]

        /* Get Start Tick*/
        tickstart = HAL_GetTick();
 800101c:	f7ff fc1c 	bl	8000858 <HAL_GetTick>
 8001020:	6138      	str	r0, [r7, #16]

        /* Wait till HSI is ready */
        while (__HAL_RCC_GET_FLAG(RCC_FLAG_HSIRDY) != RESET)
 8001022:	e008      	b.n	8001036 <HAL_RCC_OscConfig+0x206>
        {
          if ((HAL_GetTick() - tickstart) > HSI_TIMEOUT_VALUE)
 8001024:	f7ff fc18 	bl	8000858 <HAL_GetTick>
 8001028:	4602      	mov	r2, r0
 800102a:	693b      	ldr	r3, [r7, #16]
 800102c:	1ad3      	subs	r3, r2, r3
 800102e:	2b02      	cmp	r3, #2
 8001030:	d901      	bls.n	8001036 <HAL_RCC_OscConfig+0x206>
          {
            return HAL_TIMEOUT;
 8001032:	2303      	movs	r3, #3
 8001034:	e1a3      	b.n	800137e <HAL_RCC_OscConfig+0x54e>
        while (__HAL_RCC_GET_FLAG(RCC_FLAG_HSIRDY) != RESET)
 8001036:	4b1e      	ldr	r3, [pc, #120]	; (80010b0 <HAL_RCC_OscConfig+0x280>)
 8001038:	681b      	ldr	r3, [r3, #0]
 800103a:	f003 0302 	and.w	r3, r3, #2
 800103e:	2b00      	cmp	r3, #0
 8001040:	d1f0      	bne.n	8001024 <HAL_RCC_OscConfig+0x1f4>
        }
      }
    }
  }
  /*------------------------------ LSI Configuration -------------------------*/
  if (((RCC_OscInitStruct->OscillatorType) & RCC_OSCILLATORTYPE_LSI) == RCC_OSCILLATORTYPE_LSI)
 8001042:	687b      	ldr	r3, [r7, #4]
 8001044:	681b      	ldr	r3, [r3, #0]
 8001046:	f003 0308 	and.w	r3, r3, #8
 800104a:	2b00      	cmp	r3, #0
 800104c:	d038      	beq.n	80010c0 <HAL_RCC_OscConfig+0x290>
  {
    /* Check the parameters */
    assert_param(IS_RCC_LSI(RCC_OscInitStruct->LSIState));

    /* Check the LSI State */
    if ((RCC_OscInitStruct->LSIState) != RCC_LSI_OFF)
 800104e:	687b      	ldr	r3, [r7, #4]
 8001050:	695b      	ldr	r3, [r3, #20]
 8001052:	2b00      	cmp	r3, #0
 8001054:	d019      	beq.n	800108a <HAL_RCC_OscConfig+0x25a>
    {
      /* Enable the Internal Low Speed oscillator (LSI). */
      __HAL_RCC_LSI_ENABLE();
 8001056:	4b16      	ldr	r3, [pc, #88]	; (80010b0 <HAL_RCC_OscConfig+0x280>)
 8001058:	6f5b      	ldr	r3, [r3, #116]	; 0x74
 800105a:	4a15      	ldr	r2, [pc, #84]	; (80010b0 <HAL_RCC_OscConfig+0x280>)
 800105c:	f043 0301 	orr.w	r3, r3, #1
 8001060:	6753      	str	r3, [r2, #116]	; 0x74

      /* Get Start Tick*/
      tickstart = HAL_GetTick();
 8001062:	f7ff fbf9 	bl	8000858 <HAL_GetTick>
 8001066:	6138      	str	r0, [r7, #16]

      /* Wait till LSI is ready */
      while (__HAL_RCC_GET_FLAG(RCC_FLAG_LSIRDY) == RESET)
 8001068:	e008      	b.n	800107c <HAL_RCC_OscConfig+0x24c>
      {
        if ((HAL_GetTick() - tickstart) > LSI_TIMEOUT_VALUE)
 800106a:	f7ff fbf5 	bl	8000858 <HAL_GetTick>
 800106e:	4602      	mov	r2, r0
 8001070:	693b      	ldr	r3, [r7, #16]
 8001072:	1ad3      	subs	r3, r2, r3
 8001074:	2b02      	cmp	r3, #2
 8001076:	d901      	bls.n	800107c <HAL_RCC_OscConfig+0x24c>
        {
          return HAL_TIMEOUT;
 8001078:	2303      	movs	r3, #3
 800107a:	e180      	b.n	800137e <HAL_RCC_OscConfig+0x54e>
      while (__HAL_RCC_GET_FLAG(RCC_FLAG_LSIRDY) == RESET)
 800107c:	4b0c      	ldr	r3, [pc, #48]	; (80010b0 <HAL_RCC_OscConfig+0x280>)
 800107e:	6f5b      	ldr	r3, [r3, #116]	; 0x74
 8001080:	f003 0302 	and.w	r3, r3, #2
 8001084:	2b00      	cmp	r3, #0
 8001086:	d0f0      	beq.n	800106a <HAL_RCC_OscConfig+0x23a>
 8001088:	e01a      	b.n	80010c0 <HAL_RCC_OscConfig+0x290>
      }
    }
    else
    {
      /* Disable the Internal Low Speed oscillator (LSI). */
      __HAL_RCC_LSI_DISABLE();
 800108a:	4b09      	ldr	r3, [pc, #36]	; (80010b0 <HAL_RCC_OscConfig+0x280>)
 800108c:	6f5b      	ldr	r3, [r3, #116]	; 0x74
 800108e:	4a08      	ldr	r2, [pc, #32]	; (80010b0 <HAL_RCC_OscConfig+0x280>)
 8001090:	f023 0301 	bic.w	r3, r3, #1
 8001094:	6753      	str	r3, [r2, #116]	; 0x74

      /* Get Start Tick*/
      tickstart = HAL_GetTick();
 8001096:	f7ff fbdf 	bl	8000858 <HAL_GetTick>
 800109a:	6138      	str	r0, [r7, #16]

      /* Wait till LSI is ready */
      while (__HAL_RCC_GET_FLAG(RCC_FLAG_LSIRDY) != RESET)
 800109c:	e00a      	b.n	80010b4 <HAL_RCC_OscConfig+0x284>
      {
        if ((HAL_GetTick() - tickstart) > LSI_TIMEOUT_VALUE)
 800109e:	f7ff fbdb 	bl	8000858 <HAL_GetTick>
 80010a2:	4602      	mov	r2, r0
 80010a4:	693b      	ldr	r3, [r7, #16]
 80010a6:	1ad3      	subs	r3, r2, r3
 80010a8:	2b02      	cmp	r3, #2
 80010aa:	d903      	bls.n	80010b4 <HAL_RCC_OscConfig+0x284>
        {
          return HAL_TIMEOUT;
 80010ac:	2303      	movs	r3, #3
 80010ae:	e166      	b.n	800137e <HAL_RCC_OscConfig+0x54e>
 80010b0:	40023800 	.word	0x40023800
      while (__HAL_RCC_GET_FLAG(RCC_FLAG_LSIRDY) != RESET)
 80010b4:	4b92      	ldr	r3, [pc, #584]	; (8001300 <HAL_RCC_OscConfig+0x4d0>)
 80010b6:	6f5b      	ldr	r3, [r3, #116]	; 0x74
 80010b8:	f003 0302 	and.w	r3, r3, #2
 80010bc:	2b00      	cmp	r3, #0
 80010be:	d1ee      	bne.n	800109e <HAL_RCC_OscConfig+0x26e>
        }
      }
    }
  }
  /*------------------------------ LSE Configuration -------------------------*/
  if (((RCC_OscInitStruct->OscillatorType) & RCC_OSCILLATORTYPE_LSE) == RCC_OSCILLATORTYPE_LSE)
 80010c0:	687b      	ldr	r3, [r7, #4]
 80010c2:	681b      	ldr	r3, [r3, #0]
 80010c4:	f003 0304 	and.w	r3, r3, #4
 80010c8:	2b00      	cmp	r3, #0
 80010ca:	f000 80a4 	beq.w	8001216 <HAL_RCC_OscConfig+0x3e6>
    /* Check the parameters */
    assert_param(IS_RCC_LSE(RCC_OscInitStruct->LSEState));

    /* Update LSE configuration in Backup Domain control register    */
    /* Requires to enable write access to Backup Domain of necessary */
    if (__HAL_RCC_PWR_IS_CLK_DISABLED())
 80010ce:	4b8c      	ldr	r3, [pc, #560]	; (8001300 <HAL_RCC_OscConfig+0x4d0>)
 80010d0:	6c1b      	ldr	r3, [r3, #64]	; 0x40
 80010d2:	f003 5380 	and.w	r3, r3, #268435456	; 0x10000000
 80010d6:	2b00      	cmp	r3, #0
 80010d8:	d10d      	bne.n	80010f6 <HAL_RCC_OscConfig+0x2c6>
    {
      /* Enable Power Clock*/
      __HAL_RCC_PWR_CLK_ENABLE();
 80010da:	4b89      	ldr	r3, [pc, #548]	; (8001300 <HAL_RCC_OscConfig+0x4d0>)
 80010dc:	6c1b      	ldr	r3, [r3, #64]	; 0x40
 80010de:	4a88      	ldr	r2, [pc, #544]	; (8001300 <HAL_RCC_OscConfig+0x4d0>)
 80010e0:	f043 5380 	orr.w	r3, r3, #268435456	; 0x10000000
 80010e4:	6413      	str	r3, [r2, #64]	; 0x40
 80010e6:	4b86      	ldr	r3, [pc, #536]	; (8001300 <HAL_RCC_OscConfig+0x4d0>)
 80010e8:	6c1b      	ldr	r3, [r3, #64]	; 0x40
 80010ea:	f003 5380 	and.w	r3, r3, #268435456	; 0x10000000
 80010ee:	60bb      	str	r3, [r7, #8]
 80010f0:	68bb      	ldr	r3, [r7, #8]
      pwrclkchanged = SET;
 80010f2:	2301      	movs	r3, #1
 80010f4:	75fb      	strb	r3, [r7, #23]
    }

    if (HAL_IS_BIT_CLR(PWR->CR1, PWR_CR1_DBP))
 80010f6:	4b83      	ldr	r3, [pc, #524]	; (8001304 <HAL_RCC_OscConfig+0x4d4>)
 80010f8:	681b      	ldr	r3, [r3, #0]
 80010fa:	f403 7380 	and.w	r3, r3, #256	; 0x100
 80010fe:	2b00      	cmp	r3, #0
 8001100:	d118      	bne.n	8001134 <HAL_RCC_OscConfig+0x304>
    {
      /* Enable write access to Backup domain */
      PWR->CR1 |= PWR_CR1_DBP;
 8001102:	4b80      	ldr	r3, [pc, #512]	; (8001304 <HAL_RCC_OscConfig+0x4d4>)
 8001104:	681b      	ldr	r3, [r3, #0]
 8001106:	4a7f      	ldr	r2, [pc, #508]	; (8001304 <HAL_RCC_OscConfig+0x4d4>)
 8001108:	f443 7380 	orr.w	r3, r3, #256	; 0x100
 800110c:	6013      	str	r3, [r2, #0]

      /* Wait for Backup domain Write protection disable */
      tickstart = HAL_GetTick();
 800110e:	f7ff fba3 	bl	8000858 <HAL_GetTick>
 8001112:	6138      	str	r0, [r7, #16]

      while (HAL_IS_BIT_CLR(PWR->CR1, PWR_CR1_DBP))
 8001114:	e008      	b.n	8001128 <HAL_RCC_OscConfig+0x2f8>
      {
        if ((HAL_GetTick() - tickstart) > RCC_DBP_TIMEOUT_VALUE)
 8001116:	f7ff fb9f 	bl	8000858 <HAL_GetTick>
 800111a:	4602      	mov	r2, r0
 800111c:	693b      	ldr	r3, [r7, #16]
 800111e:	1ad3      	subs	r3, r2, r3
 8001120:	2b64      	cmp	r3, #100	; 0x64
 8001122:	d901      	bls.n	8001128 <HAL_RCC_OscConfig+0x2f8>
        {
          return HAL_TIMEOUT;
 8001124:	2303      	movs	r3, #3
 8001126:	e12a      	b.n	800137e <HAL_RCC_OscConfig+0x54e>
      while (HAL_IS_BIT_CLR(PWR->CR1, PWR_CR1_DBP))
 8001128:	4b76      	ldr	r3, [pc, #472]	; (8001304 <HAL_RCC_OscConfig+0x4d4>)
 800112a:	681b      	ldr	r3, [r3, #0]
 800112c:	f403 7380 	and.w	r3, r3, #256	; 0x100
 8001130:	2b00      	cmp	r3, #0
 8001132:	d0f0      	beq.n	8001116 <HAL_RCC_OscConfig+0x2e6>
        }
      }
    }

    /* Set the new LSE configuration -----------------------------------------*/
    __HAL_RCC_LSE_CONFIG(RCC_OscInitStruct->LSEState);
 8001134:	687b      	ldr	r3, [r7, #4]
 8001136:	689b      	ldr	r3, [r3, #8]
 8001138:	2b01      	cmp	r3, #1
 800113a:	d106      	bne.n	800114a <HAL_RCC_OscConfig+0x31a>
 800113c:	4b70      	ldr	r3, [pc, #448]	; (8001300 <HAL_RCC_OscConfig+0x4d0>)
 800113e:	6f1b      	ldr	r3, [r3, #112]	; 0x70
 8001140:	4a6f      	ldr	r2, [pc, #444]	; (8001300 <HAL_RCC_OscConfig+0x4d0>)
 8001142:	f043 0301 	orr.w	r3, r3, #1
 8001146:	6713      	str	r3, [r2, #112]	; 0x70
 8001148:	e02d      	b.n	80011a6 <HAL_RCC_OscConfig+0x376>
 800114a:	687b      	ldr	r3, [r7, #4]
 800114c:	689b      	ldr	r3, [r3, #8]
 800114e:	2b00      	cmp	r3, #0
 8001150:	d10c      	bne.n	800116c <HAL_RCC_OscConfig+0x33c>
 8001152:	4b6b      	ldr	r3, [pc, #428]	; (8001300 <HAL_RCC_OscConfig+0x4d0>)
 8001154:	6f1b      	ldr	r3, [r3, #112]	; 0x70
 8001156:	4a6a      	ldr	r2, [pc, #424]	; (8001300 <HAL_RCC_OscConfig+0x4d0>)
 8001158:	f023 0301 	bic.w	r3, r3, #1
 800115c:	6713      	str	r3, [r2, #112]	; 0x70
 800115e:	4b68      	ldr	r3, [pc, #416]	; (8001300 <HAL_RCC_OscConfig+0x4d0>)
 8001160:	6f1b      	ldr	r3, [r3, #112]	; 0x70
 8001162:	4a67      	ldr	r2, [pc, #412]	; (8001300 <HAL_RCC_OscConfig+0x4d0>)
 8001164:	f023 0304 	bic.w	r3, r3, #4
 8001168:	6713      	str	r3, [r2, #112]	; 0x70
 800116a:	e01c      	b.n	80011a6 <HAL_RCC_OscConfig+0x376>
 800116c:	687b      	ldr	r3, [r7, #4]
 800116e:	689b      	ldr	r3, [r3, #8]
 8001170:	2b05      	cmp	r3, #5
 8001172:	d10c      	bne.n	800118e <HAL_RCC_OscConfig+0x35e>
 8001174:	4b62      	ldr	r3, [pc, #392]	; (8001300 <HAL_RCC_OscConfig+0x4d0>)
 8001176:	6f1b      	ldr	r3, [r3, #112]	; 0x70
 8001178:	4a61      	ldr	r2, [pc, #388]	; (8001300 <HAL_RCC_OscConfig+0x4d0>)
 800117a:	f043 0304 	orr.w	r3, r3, #4
 800117e:	6713      	str	r3, [r2, #112]	; 0x70
 8001180:	4b5f      	ldr	r3, [pc, #380]	; (8001300 <HAL_RCC_OscConfig+0x4d0>)
 8001182:	6f1b      	ldr	r3, [r3, #112]	; 0x70
 8001184:	4a5e      	ldr	r2, [pc, #376]	; (8001300 <HAL_RCC_OscConfig+0x4d0>)
 8001186:	f043 0301 	orr.w	r3, r3, #1
 800118a:	6713      	str	r3, [r2, #112]	; 0x70
 800118c:	e00b      	b.n	80011a6 <HAL_RCC_OscConfig+0x376>
 800118e:	4b5c      	ldr	r3, [pc, #368]	; (8001300 <HAL_RCC_OscConfig+0x4d0>)
 8001190:	6f1b      	ldr	r3, [r3, #112]	; 0x70
 8001192:	4a5b      	ldr	r2, [pc, #364]	; (8001300 <HAL_RCC_OscConfig+0x4d0>)
 8001194:	f023 0301 	bic.w	r3, r3, #1
 8001198:	6713      	str	r3, [r2, #112]	; 0x70
 800119a:	4b59      	ldr	r3, [pc, #356]	; (8001300 <HAL_RCC_OscConfig+0x4d0>)
 800119c:	6f1b      	ldr	r3, [r3, #112]	; 0x70
 800119e:	4a58      	ldr	r2, [pc, #352]	; (8001300 <HAL_RCC_OscConfig+0x4d0>)
 80011a0:	f023 0304 	bic.w	r3, r3, #4
 80011a4:	6713      	str	r3, [r2, #112]	; 0x70
    /* Check the LSE State */
    if ((RCC_OscInitStruct->LSEState) != RCC_LSE_OFF)
 80011a6:	687b      	ldr	r3, [r7, #4]
 80011a8:	689b      	ldr	r3, [r3, #8]
 80011aa:	2b00      	cmp	r3, #0
 80011ac:	d015      	beq.n	80011da <HAL_RCC_OscConfig+0x3aa>
    {
      /* Get Start Tick*/
      tickstart = HAL_GetTick();
 80011ae:	f7ff fb53 	bl	8000858 <HAL_GetTick>
 80011b2:	6138      	str	r0, [r7, #16]

      /* Wait till LSE is ready */
      while (__HAL_RCC_GET_FLAG(RCC_FLAG_LSERDY) == RESET)
 80011b4:	e00a      	b.n	80011cc <HAL_RCC_OscConfig+0x39c>
      {
        if ((HAL_GetTick() - tickstart) > RCC_LSE_TIMEOUT_VALUE)
 80011b6:	f7ff fb4f 	bl	8000858 <HAL_GetTick>
 80011ba:	4602      	mov	r2, r0
 80011bc:	693b      	ldr	r3, [r7, #16]
 80011be:	1ad3      	subs	r3, r2, r3
 80011c0:	f241 3288 	movw	r2, #5000	; 0x1388
 80011c4:	4293      	cmp	r3, r2
 80011c6:	d901      	bls.n	80011cc <HAL_RCC_OscConfig+0x39c>
        {
          return HAL_TIMEOUT;
 80011c8:	2303      	movs	r3, #3
 80011ca:	e0d8      	b.n	800137e <HAL_RCC_OscConfig+0x54e>
      while (__HAL_RCC_GET_FLAG(RCC_FLAG_LSERDY) == RESET)
 80011cc:	4b4c      	ldr	r3, [pc, #304]	; (8001300 <HAL_RCC_OscConfig+0x4d0>)
 80011ce:	6f1b      	ldr	r3, [r3, #112]	; 0x70
 80011d0:	f003 0302 	and.w	r3, r3, #2
 80011d4:	2b00      	cmp	r3, #0
 80011d6:	d0ee      	beq.n	80011b6 <HAL_RCC_OscConfig+0x386>
 80011d8:	e014      	b.n	8001204 <HAL_RCC_OscConfig+0x3d4>
      }
    }
    else
    {
      /* Get Start Tick*/
      tickstart = HAL_GetTick();
 80011da:	f7ff fb3d 	bl	8000858 <HAL_GetTick>
 80011de:	6138      	str	r0, [r7, #16]

      /* Wait till LSE is ready */
      while (__HAL_RCC_GET_FLAG(RCC_FLAG_LSERDY) != RESET)
 80011e0:	e00a      	b.n	80011f8 <HAL_RCC_OscConfig+0x3c8>
      {
        if ((HAL_GetTick() - tickstart) > RCC_LSE_TIMEOUT_VALUE)
 80011e2:	f7ff fb39 	bl	8000858 <HAL_GetTick>
 80011e6:	4602      	mov	r2, r0
 80011e8:	693b      	ldr	r3, [r7, #16]
 80011ea:	1ad3      	subs	r3, r2, r3
 80011ec:	f241 3288 	movw	r2, #5000	; 0x1388
 80011f0:	4293      	cmp	r3, r2
 80011f2:	d901      	bls.n	80011f8 <HAL_RCC_OscConfig+0x3c8>
        {
          return HAL_TIMEOUT;
 80011f4:	2303      	movs	r3, #3
 80011f6:	e0c2      	b.n	800137e <HAL_RCC_OscConfig+0x54e>
      while (__HAL_RCC_GET_FLAG(RCC_FLAG_LSERDY) != RESET)
 80011f8:	4b41      	ldr	r3, [pc, #260]	; (8001300 <HAL_RCC_OscConfig+0x4d0>)
 80011fa:	6f1b      	ldr	r3, [r3, #112]	; 0x70
 80011fc:	f003 0302 	and.w	r3, r3, #2
 8001200:	2b00      	cmp	r3, #0
 8001202:	d1ee      	bne.n	80011e2 <HAL_RCC_OscConfig+0x3b2>
        }
      }
    }

    /* Restore clock configuration if changed */
    if (pwrclkchanged == SET)
 8001204:	7dfb      	ldrb	r3, [r7, #23]
 8001206:	2b01      	cmp	r3, #1
 8001208:	d105      	bne.n	8001216 <HAL_RCC_OscConfig+0x3e6>
    {
      __HAL_RCC_PWR_CLK_DISABLE();
 800120a:	4b3d      	ldr	r3, [pc, #244]	; (8001300 <HAL_RCC_OscConfig+0x4d0>)
 800120c:	6c1b      	ldr	r3, [r3, #64]	; 0x40
 800120e:	4a3c      	ldr	r2, [pc, #240]	; (8001300 <HAL_RCC_OscConfig+0x4d0>)
 8001210:	f023 5380 	bic.w	r3, r3, #268435456	; 0x10000000
 8001214:	6413      	str	r3, [r2, #64]	; 0x40
    }
  }
  /*-------------------------------- PLL Configuration -----------------------*/
  /* Check the parameters */
  assert_param(IS_RCC_PLL(RCC_OscInitStruct->PLL.PLLState));
  if ((RCC_OscInitStruct->PLL.PLLState) != RCC_PLL_NONE)
 8001216:	687b      	ldr	r3, [r7, #4]
 8001218:	699b      	ldr	r3, [r3, #24]
 800121a:	2b00      	cmp	r3, #0
 800121c:	f000 80ae 	beq.w	800137c <HAL_RCC_OscConfig+0x54c>
  {
    /* Check if the PLL is used as system clock or not */
    if (__HAL_RCC_GET_SYSCLK_SOURCE() != RCC_SYSCLKSOURCE_STATUS_PLLCLK)
 8001220:	4b37      	ldr	r3, [pc, #220]	; (8001300 <HAL_RCC_OscConfig+0x4d0>)
 8001222:	689b      	ldr	r3, [r3, #8]
 8001224:	f003 030c 	and.w	r3, r3, #12
 8001228:	2b08      	cmp	r3, #8
 800122a:	d06d      	beq.n	8001308 <HAL_RCC_OscConfig+0x4d8>
    {
      if ((RCC_OscInitStruct->PLL.PLLState) == RCC_PLL_ON)
 800122c:	687b      	ldr	r3, [r7, #4]
 800122e:	699b      	ldr	r3, [r3, #24]
 8001230:	2b02      	cmp	r3, #2
 8001232:	d14b      	bne.n	80012cc <HAL_RCC_OscConfig+0x49c>
#if defined (RCC_PLLCFGR_PLLR)
        assert_param(IS_RCC_PLLR_VALUE(RCC_OscInitStruct->PLL.PLLR));
#endif

        /* Disable the main PLL. */
        __HAL_RCC_PLL_DISABLE();
 8001234:	4b32      	ldr	r3, [pc, #200]	; (8001300 <HAL_RCC_OscConfig+0x4d0>)
 8001236:	681b      	ldr	r3, [r3, #0]
 8001238:	4a31      	ldr	r2, [pc, #196]	; (8001300 <HAL_RCC_OscConfig+0x4d0>)
 800123a:	f023 7380 	bic.w	r3, r3, #16777216	; 0x1000000
 800123e:	6013      	str	r3, [r2, #0]

        /* Get Start Tick*/
        tickstart = HAL_GetTick();
 8001240:	f7ff fb0a 	bl	8000858 <HAL_GetTick>
 8001244:	6138      	str	r0, [r7, #16]

        /* Wait till PLL is ready */
        while (__HAL_RCC_GET_FLAG(RCC_FLAG_PLLRDY) != RESET)
 8001246:	e008      	b.n	800125a <HAL_RCC_OscConfig+0x42a>
        {
          if ((HAL_GetTick() - tickstart) > PLL_TIMEOUT_VALUE)
 8001248:	f7ff fb06 	bl	8000858 <HAL_GetTick>
 800124c:	4602      	mov	r2, r0
 800124e:	693b      	ldr	r3, [r7, #16]
 8001250:	1ad3      	subs	r3, r2, r3
 8001252:	2b02      	cmp	r3, #2
 8001254:	d901      	bls.n	800125a <HAL_RCC_OscConfig+0x42a>
          {
            return HAL_TIMEOUT;
 8001256:	2303      	movs	r3, #3
 8001258:	e091      	b.n	800137e <HAL_RCC_OscConfig+0x54e>
        while (__HAL_RCC_GET_FLAG(RCC_FLAG_PLLRDY) != RESET)
 800125a:	4b29      	ldr	r3, [pc, #164]	; (8001300 <HAL_RCC_OscConfig+0x4d0>)
 800125c:	681b      	ldr	r3, [r3, #0]
 800125e:	f003 7300 	and.w	r3, r3, #33554432	; 0x2000000
 8001262:	2b00      	cmp	r3, #0
 8001264:	d1f0      	bne.n	8001248 <HAL_RCC_OscConfig+0x418>
          }
        }

        /* Configure the main PLL clock source, multiplication and division factors. */
#if defined (RCC_PLLCFGR_PLLR)
        __HAL_RCC_PLL_CONFIG(RCC_OscInitStruct->PLL.PLLSource,
 8001266:	687b      	ldr	r3, [r7, #4]
 8001268:	69da      	ldr	r2, [r3, #28]
 800126a:	687b      	ldr	r3, [r7, #4]
 800126c:	6a1b      	ldr	r3, [r3, #32]
 800126e:	431a      	orrs	r2, r3
 8001270:	687b      	ldr	r3, [r7, #4]
 8001272:	6a5b      	ldr	r3, [r3, #36]	; 0x24
 8001274:	019b      	lsls	r3, r3, #6
 8001276:	431a      	orrs	r2, r3
 8001278:	687b      	ldr	r3, [r7, #4]
 800127a:	6a9b      	ldr	r3, [r3, #40]	; 0x28
 800127c:	085b      	lsrs	r3, r3, #1
 800127e:	3b01      	subs	r3, #1
 8001280:	041b      	lsls	r3, r3, #16
 8001282:	431a      	orrs	r2, r3
 8001284:	687b      	ldr	r3, [r7, #4]
 8001286:	6adb      	ldr	r3, [r3, #44]	; 0x2c
 8001288:	061b      	lsls	r3, r3, #24
 800128a:	431a      	orrs	r2, r3
 800128c:	687b      	ldr	r3, [r7, #4]
 800128e:	6b1b      	ldr	r3, [r3, #48]	; 0x30
 8001290:	071b      	lsls	r3, r3, #28
 8001292:	491b      	ldr	r1, [pc, #108]	; (8001300 <HAL_RCC_OscConfig+0x4d0>)
 8001294:	4313      	orrs	r3, r2
 8001296:	604b      	str	r3, [r1, #4]
                             RCC_OscInitStruct->PLL.PLLP,
                             RCC_OscInitStruct->PLL.PLLQ);
#endif

        /* Enable the main PLL. */
        __HAL_RCC_PLL_ENABLE();
 8001298:	4b19      	ldr	r3, [pc, #100]	; (8001300 <HAL_RCC_OscConfig+0x4d0>)
 800129a:	681b      	ldr	r3, [r3, #0]
 800129c:	4a18      	ldr	r2, [pc, #96]	; (8001300 <HAL_RCC_OscConfig+0x4d0>)
 800129e:	f043 7380 	orr.w	r3, r3, #16777216	; 0x1000000
 80012a2:	6013      	str	r3, [r2, #0]

        /* Get Start Tick*/
        tickstart = HAL_GetTick();
 80012a4:	f7ff fad8 	bl	8000858 <HAL_GetTick>
 80012a8:	6138      	str	r0, [r7, #16]

        /* Wait till PLL is ready */
        while (__HAL_RCC_GET_FLAG(RCC_FLAG_PLLRDY) == RESET)
 80012aa:	e008      	b.n	80012be <HAL_RCC_OscConfig+0x48e>
        {
          if ((HAL_GetTick() - tickstart) > PLL_TIMEOUT_VALUE)
 80012ac:	f7ff fad4 	bl	8000858 <HAL_GetTick>
 80012b0:	4602      	mov	r2, r0
 80012b2:	693b      	ldr	r3, [r7, #16]
 80012b4:	1ad3      	subs	r3, r2, r3
 80012b6:	2b02      	cmp	r3, #2
 80012b8:	d901      	bls.n	80012be <HAL_RCC_OscConfig+0x48e>
          {
            return HAL_TIMEOUT;
 80012ba:	2303      	movs	r3, #3
 80012bc:	e05f      	b.n	800137e <HAL_RCC_OscConfig+0x54e>
        while (__HAL_RCC_GET_FLAG(RCC_FLAG_PLLRDY) == RESET)
 80012be:	4b10      	ldr	r3, [pc, #64]	; (8001300 <HAL_RCC_OscConfig+0x4d0>)
 80012c0:	681b      	ldr	r3, [r3, #0]
 80012c2:	f003 7300 	and.w	r3, r3, #33554432	; 0x2000000
 80012c6:	2b00      	cmp	r3, #0
 80012c8:	d0f0      	beq.n	80012ac <HAL_RCC_OscConfig+0x47c>
 80012ca:	e057      	b.n	800137c <HAL_RCC_OscConfig+0x54c>
        }
      }
      else
      {
        /* Disable the main PLL. */
        __HAL_RCC_PLL_DISABLE();
 80012cc:	4b0c      	ldr	r3, [pc, #48]	; (8001300 <HAL_RCC_OscConfig+0x4d0>)
 80012ce:	681b      	ldr	r3, [r3, #0]
 80012d0:	4a0b      	ldr	r2, [pc, #44]	; (8001300 <HAL_RCC_OscConfig+0x4d0>)
 80012d2:	f023 7380 	bic.w	r3, r3, #16777216	; 0x1000000
 80012d6:	6013      	str	r3, [r2, #0]

        /* Get Start Tick*/
        tickstart = HAL_GetTick();
 80012d8:	f7ff fabe 	bl	8000858 <HAL_GetTick>
 80012dc:	6138      	str	r0, [r7, #16]

        /* Wait till PLL is ready */
        while (__HAL_RCC_GET_FLAG(RCC_FLAG_PLLRDY) != RESET)
 80012de:	e008      	b.n	80012f2 <HAL_RCC_OscConfig+0x4c2>
        {
          if ((HAL_GetTick() - tickstart) > PLL_TIMEOUT_VALUE)
 80012e0:	f7ff faba 	bl	8000858 <HAL_GetTick>
 80012e4:	4602      	mov	r2, r0
 80012e6:	693b      	ldr	r3, [r7, #16]
 80012e8:	1ad3      	subs	r3, r2, r3
 80012ea:	2b02      	cmp	r3, #2
 80012ec:	d901      	bls.n	80012f2 <HAL_RCC_OscConfig+0x4c2>
          {
            return HAL_TIMEOUT;
 80012ee:	2303      	movs	r3, #3
 80012f0:	e045      	b.n	800137e <HAL_RCC_OscConfig+0x54e>
        while (__HAL_RCC_GET_FLAG(RCC_FLAG_PLLRDY) != RESET)
 80012f2:	4b03      	ldr	r3, [pc, #12]	; (8001300 <HAL_RCC_OscConfig+0x4d0>)
 80012f4:	681b      	ldr	r3, [r3, #0]
 80012f6:	f003 7300 	and.w	r3, r3, #33554432	; 0x2000000
 80012fa:	2b00      	cmp	r3, #0
 80012fc:	d1f0      	bne.n	80012e0 <HAL_RCC_OscConfig+0x4b0>
 80012fe:	e03d      	b.n	800137c <HAL_RCC_OscConfig+0x54c>
 8001300:	40023800 	.word	0x40023800
 8001304:	40007000 	.word	0x40007000
      }
    }
    else
    {
      /* Do not return HAL_ERROR if request repeats the current configuration */
      pll_config = RCC->PLLCFGR;
 8001308:	4b1f      	ldr	r3, [pc, #124]	; (8001388 <HAL_RCC_OscConfig+0x558>)
 800130a:	685b      	ldr	r3, [r3, #4]
 800130c:	60fb      	str	r3, [r7, #12]
#if defined (RCC_PLLCFGR_PLLR)
      if (((RCC_OscInitStruct->PLL.PLLState) == RCC_PLL_OFF) ||
 800130e:	687b      	ldr	r3, [r7, #4]
 8001310:	699b      	ldr	r3, [r3, #24]
 8001312:	2b01      	cmp	r3, #1
 8001314:	d030      	beq.n	8001378 <HAL_RCC_OscConfig+0x548>
          (READ_BIT(pll_config, RCC_PLLCFGR_PLLSRC) != RCC_OscInitStruct->PLL.PLLSource) ||
 8001316:	68fb      	ldr	r3, [r7, #12]
 8001318:	f403 0280 	and.w	r2, r3, #4194304	; 0x400000
 800131c:	687b      	ldr	r3, [r7, #4]
 800131e:	69db      	ldr	r3, [r3, #28]
      if (((RCC_OscInitStruct->PLL.PLLState) == RCC_PLL_OFF) ||
 8001320:	429a      	cmp	r2, r3
 8001322:	d129      	bne.n	8001378 <HAL_RCC_OscConfig+0x548>
          (READ_BIT(pll_config, RCC_PLLCFGR_PLLM) != RCC_OscInitStruct->PLL.PLLM) ||
 8001324:	68fb      	ldr	r3, [r7, #12]
 8001326:	f003 023f 	and.w	r2, r3, #63	; 0x3f
 800132a:	687b      	ldr	r3, [r7, #4]
 800132c:	6a1b      	ldr	r3, [r3, #32]
          (READ_BIT(pll_config, RCC_PLLCFGR_PLLSRC) != RCC_OscInitStruct->PLL.PLLSource) ||
 800132e:	429a      	cmp	r2, r3
 8001330:	d122      	bne.n	8001378 <HAL_RCC_OscConfig+0x548>
          (READ_BIT(pll_config, RCC_PLLCFGR_PLLN) != (RCC_OscInitStruct->PLL.PLLN << RCC_PLLCFGR_PLLN_Pos)) ||
 8001332:	68fa      	ldr	r2, [r7, #12]
 8001334:	f647 73c0 	movw	r3, #32704	; 0x7fc0
 8001338:	4013      	ands	r3, r2
 800133a:	687a      	ldr	r2, [r7, #4]
 800133c:	6a52      	ldr	r2, [r2, #36]	; 0x24
 800133e:	0192      	lsls	r2, r2, #6
          (READ_BIT(pll_config, RCC_PLLCFGR_PLLM) != RCC_OscInitStruct->PLL.PLLM) ||
 8001340:	4293      	cmp	r3, r2
 8001342:	d119      	bne.n	8001378 <HAL_RCC_OscConfig+0x548>
          (READ_BIT(pll_config, RCC_PLLCFGR_PLLP) != ((((RCC_OscInitStruct->PLL.PLLP) >> 1U) - 1U) << RCC_PLLCFGR_PLLP_Pos)) ||
 8001344:	68fb      	ldr	r3, [r7, #12]
 8001346:	f403 3240 	and.w	r2, r3, #196608	; 0x30000
 800134a:	687b      	ldr	r3, [r7, #4]
 800134c:	6a9b      	ldr	r3, [r3, #40]	; 0x28
 800134e:	085b      	lsrs	r3, r3, #1
 8001350:	3b01      	subs	r3, #1
 8001352:	041b      	lsls	r3, r3, #16
          (READ_BIT(pll_config, RCC_PLLCFGR_PLLN) != (RCC_OscInitStruct->PLL.PLLN << RCC_PLLCFGR_PLLN_Pos)) ||
 8001354:	429a      	cmp	r2, r3
 8001356:	d10f      	bne.n	8001378 <HAL_RCC_OscConfig+0x548>
          (READ_BIT(pll_config, RCC_PLLCFGR_PLLQ) != (RCC_OscInitStruct->PLL.PLLQ << RCC_PLLCFGR_PLLQ_Pos)) ||
 8001358:	68fb      	ldr	r3, [r7, #12]
 800135a:	f003 6270 	and.w	r2, r3, #251658240	; 0xf000000
 800135e:	687b      	ldr	r3, [r7, #4]
 8001360:	6adb      	ldr	r3, [r3, #44]	; 0x2c
 8001362:	061b      	lsls	r3, r3, #24
          (READ_BIT(pll_config, RCC_PLLCFGR_PLLP) != ((((RCC_OscInitStruct->PLL.PLLP) >> 1U) - 1U) << RCC_PLLCFGR_PLLP_Pos)) ||
 8001364:	429a      	cmp	r2, r3
 8001366:	d107      	bne.n	8001378 <HAL_RCC_OscConfig+0x548>
          (READ_BIT(pll_config, RCC_PLLCFGR_PLLR) != (RCC_OscInitStruct->PLL.PLLR << RCC_PLLCFGR_PLLR_Pos)))
 8001368:	68fb      	ldr	r3, [r7, #12]
 800136a:	f003 42e0 	and.w	r2, r3, #1879048192	; 0x70000000
 800136e:	687b      	ldr	r3, [r7, #4]
 8001370:	6b1b      	ldr	r3, [r3, #48]	; 0x30
 8001372:	071b      	lsls	r3, r3, #28
          (READ_BIT(pll_config, RCC_PLLCFGR_PLLQ) != (RCC_OscInitStruct->PLL.PLLQ << RCC_PLLCFGR_PLLQ_Pos)) ||
 8001374:	429a      	cmp	r2, r3
 8001376:	d001      	beq.n	800137c <HAL_RCC_OscConfig+0x54c>
          (READ_BIT(pll_config, RCC_PLLCFGR_PLLN) != (RCC_OscInitStruct->PLL.PLLN << RCC_PLLCFGR_PLLN_Pos)) ||
          (READ_BIT(pll_config, RCC_PLLCFGR_PLLP) != ((((RCC_OscInitStruct->PLL.PLLP) >> 1U) - 1U) << RCC_PLLCFGR_PLLP_Pos)) ||
          (READ_BIT(pll_config, RCC_PLLCFGR_PLLQ) != (RCC_OscInitStruct->PLL.PLLQ << RCC_PLLCFGR_PLLQ_Pos)))
#endif
      {
        return HAL_ERROR;
 8001378:	2301      	movs	r3, #1
 800137a:	e000      	b.n	800137e <HAL_RCC_OscConfig+0x54e>
      }
    }
  }
  return HAL_OK;
 800137c:	2300      	movs	r3, #0
}
 800137e:	4618      	mov	r0, r3
 8001380:	3718      	adds	r7, #24
 8001382:	46bd      	mov	sp, r7
 8001384:	bd80      	pop	{r7, pc}
 8001386:	bf00      	nop
 8001388:	40023800 	.word	0x40023800

0800138c <HAL_RCC_ClockConfig>:
  *         HPRE[3:0] bits to ensure that HCLK not exceed the maximum allowed frequency
  *         (for more details refer to section above "Initialization/de-initialization functions")
  * @retval None
  */
HAL_StatusTypeDef HAL_RCC_ClockConfig(RCC_ClkInitTypeDef  *RCC_ClkInitStruct, uint32_t FLatency)
{
 800138c:	b580      	push	{r7, lr}
 800138e:	b084      	sub	sp, #16
 8001390:	af00      	add	r7, sp, #0
 8001392:	6078      	str	r0, [r7, #4]
 8001394:	6039      	str	r1, [r7, #0]
  uint32_t tickstart = 0;
 8001396:	2300      	movs	r3, #0
 8001398:	60fb      	str	r3, [r7, #12]

  /* Check Null pointer */
  if (RCC_ClkInitStruct == NULL)
 800139a:	687b      	ldr	r3, [r7, #4]
 800139c:	2b00      	cmp	r3, #0
 800139e:	d101      	bne.n	80013a4 <HAL_RCC_ClockConfig+0x18>
  {
    return HAL_ERROR;
 80013a0:	2301      	movs	r3, #1
 80013a2:	e0d0      	b.n	8001546 <HAL_RCC_ClockConfig+0x1ba>
  /* To correctly read data from FLASH memory, the number of wait states (LATENCY)
     must be correctly programmed according to the frequency of the CPU clock
     (HCLK) and the supply voltage of the device. */

  /* Increasing the CPU frequency */
  if (FLatency > __HAL_FLASH_GET_LATENCY())
 80013a4:	4b6a      	ldr	r3, [pc, #424]	; (8001550 <HAL_RCC_ClockConfig+0x1c4>)
 80013a6:	681b      	ldr	r3, [r3, #0]
 80013a8:	f003 030f 	and.w	r3, r3, #15
 80013ac:	683a      	ldr	r2, [r7, #0]
 80013ae:	429a      	cmp	r2, r3
 80013b0:	d910      	bls.n	80013d4 <HAL_RCC_ClockConfig+0x48>
  {
    /* Program the new number of wait states to the LATENCY bits in the FLASH_ACR register */
    __HAL_FLASH_SET_LATENCY(FLatency);
 80013b2:	4b67      	ldr	r3, [pc, #412]	; (8001550 <HAL_RCC_ClockConfig+0x1c4>)
 80013b4:	681b      	ldr	r3, [r3, #0]
 80013b6:	f023 020f 	bic.w	r2, r3, #15
 80013ba:	4965      	ldr	r1, [pc, #404]	; (8001550 <HAL_RCC_ClockConfig+0x1c4>)
 80013bc:	683b      	ldr	r3, [r7, #0]
 80013be:	4313      	orrs	r3, r2
 80013c0:	600b      	str	r3, [r1, #0]

    /* Check that the new number of wait states is taken into account to access the Flash
    memory by reading the FLASH_ACR register */
    if (__HAL_FLASH_GET_LATENCY() != FLatency)
 80013c2:	4b63      	ldr	r3, [pc, #396]	; (8001550 <HAL_RCC_ClockConfig+0x1c4>)
 80013c4:	681b      	ldr	r3, [r3, #0]
 80013c6:	f003 030f 	and.w	r3, r3, #15
 80013ca:	683a      	ldr	r2, [r7, #0]
 80013cc:	429a      	cmp	r2, r3
 80013ce:	d001      	beq.n	80013d4 <HAL_RCC_ClockConfig+0x48>
    {
      return HAL_ERROR;
 80013d0:	2301      	movs	r3, #1
 80013d2:	e0b8      	b.n	8001546 <HAL_RCC_ClockConfig+0x1ba>
    }
  }

  /*-------------------------- HCLK Configuration --------------------------*/
  if (((RCC_ClkInitStruct->ClockType) & RCC_CLOCKTYPE_HCLK) == RCC_CLOCKTYPE_HCLK)
 80013d4:	687b      	ldr	r3, [r7, #4]
 80013d6:	681b      	ldr	r3, [r3, #0]
 80013d8:	f003 0302 	and.w	r3, r3, #2
 80013dc:	2b00      	cmp	r3, #0
 80013de:	d020      	beq.n	8001422 <HAL_RCC_ClockConfig+0x96>
  {
    /* Set the highest APBx dividers in order to ensure that we do not go through
       a non-spec phase whatever we decrease or increase HCLK. */
    if (((RCC_ClkInitStruct->ClockType) & RCC_CLOCKTYPE_PCLK1) == RCC_CLOCKTYPE_PCLK1)
 80013e0:	687b      	ldr	r3, [r7, #4]
 80013e2:	681b      	ldr	r3, [r3, #0]
 80013e4:	f003 0304 	and.w	r3, r3, #4
 80013e8:	2b00      	cmp	r3, #0
 80013ea:	d005      	beq.n	80013f8 <HAL_RCC_ClockConfig+0x6c>
    {
      MODIFY_REG(RCC->CFGR, RCC_CFGR_PPRE1, RCC_HCLK_DIV16);
 80013ec:	4b59      	ldr	r3, [pc, #356]	; (8001554 <HAL_RCC_ClockConfig+0x1c8>)
 80013ee:	689b      	ldr	r3, [r3, #8]
 80013f0:	4a58      	ldr	r2, [pc, #352]	; (8001554 <HAL_RCC_ClockConfig+0x1c8>)
 80013f2:	f443 53e0 	orr.w	r3, r3, #7168	; 0x1c00
 80013f6:	6093      	str	r3, [r2, #8]
    }

    if (((RCC_ClkInitStruct->ClockType) & RCC_CLOCKTYPE_PCLK2) == RCC_CLOCKTYPE_PCLK2)
 80013f8:	687b      	ldr	r3, [r7, #4]
 80013fa:	681b      	ldr	r3, [r3, #0]
 80013fc:	f003 0308 	and.w	r3, r3, #8
 8001400:	2b00      	cmp	r3, #0
 8001402:	d005      	beq.n	8001410 <HAL_RCC_ClockConfig+0x84>
    {
      MODIFY_REG(RCC->CFGR, RCC_CFGR_PPRE2, (RCC_HCLK_DIV16 << 3));
 8001404:	4b53      	ldr	r3, [pc, #332]	; (8001554 <HAL_RCC_ClockConfig+0x1c8>)
 8001406:	689b      	ldr	r3, [r3, #8]
 8001408:	4a52      	ldr	r2, [pc, #328]	; (8001554 <HAL_RCC_ClockConfig+0x1c8>)
 800140a:	f443 4360 	orr.w	r3, r3, #57344	; 0xe000
 800140e:	6093      	str	r3, [r2, #8]
    }

    /* Set the new HCLK clock divider */
    assert_param(IS_RCC_HCLK(RCC_ClkInitStruct->AHBCLKDivider));
    MODIFY_REG(RCC->CFGR, RCC_CFGR_HPRE, RCC_ClkInitStruct->AHBCLKDivider);
 8001410:	4b50      	ldr	r3, [pc, #320]	; (8001554 <HAL_RCC_ClockConfig+0x1c8>)
 8001412:	689b      	ldr	r3, [r3, #8]
 8001414:	f023 02f0 	bic.w	r2, r3, #240	; 0xf0
 8001418:	687b      	ldr	r3, [r7, #4]
 800141a:	689b      	ldr	r3, [r3, #8]
 800141c:	494d      	ldr	r1, [pc, #308]	; (8001554 <HAL_RCC_ClockConfig+0x1c8>)
 800141e:	4313      	orrs	r3, r2
 8001420:	608b      	str	r3, [r1, #8]
  }

  /*------------------------- SYSCLK Configuration ---------------------------*/
  if (((RCC_ClkInitStruct->ClockType) & RCC_CLOCKTYPE_SYSCLK) == RCC_CLOCKTYPE_SYSCLK)
 8001422:	687b      	ldr	r3, [r7, #4]
 8001424:	681b      	ldr	r3, [r3, #0]
 8001426:	f003 0301 	and.w	r3, r3, #1
 800142a:	2b00      	cmp	r3, #0
 800142c:	d040      	beq.n	80014b0 <HAL_RCC_ClockConfig+0x124>
  {
    assert_param(IS_RCC_SYSCLKSOURCE(RCC_ClkInitStruct->SYSCLKSource));

    /* HSE is selected as System Clock Source */
    if (RCC_ClkInitStruct->SYSCLKSource == RCC_SYSCLKSOURCE_HSE)
 800142e:	687b      	ldr	r3, [r7, #4]
 8001430:	685b      	ldr	r3, [r3, #4]
 8001432:	2b01      	cmp	r3, #1
 8001434:	d107      	bne.n	8001446 <HAL_RCC_ClockConfig+0xba>
    {
      /* Check the HSE ready flag */
      if (__HAL_RCC_GET_FLAG(RCC_FLAG_HSERDY) == RESET)
 8001436:	4b47      	ldr	r3, [pc, #284]	; (8001554 <HAL_RCC_ClockConfig+0x1c8>)
 8001438:	681b      	ldr	r3, [r3, #0]
 800143a:	f403 3300 	and.w	r3, r3, #131072	; 0x20000
 800143e:	2b00      	cmp	r3, #0
 8001440:	d115      	bne.n	800146e <HAL_RCC_ClockConfig+0xe2>
      {
        return HAL_ERROR;
 8001442:	2301      	movs	r3, #1
 8001444:	e07f      	b.n	8001546 <HAL_RCC_ClockConfig+0x1ba>
      }
    }
    /* PLL is selected as System Clock Source */
    else if (RCC_ClkInitStruct->SYSCLKSource == RCC_SYSCLKSOURCE_PLLCLK)
 8001446:	687b      	ldr	r3, [r7, #4]
 8001448:	685b      	ldr	r3, [r3, #4]
 800144a:	2b02      	cmp	r3, #2
 800144c:	d107      	bne.n	800145e <HAL_RCC_ClockConfig+0xd2>
    {
      /* Check the PLL ready flag */
      if (__HAL_RCC_GET_FLAG(RCC_FLAG_PLLRDY) == RESET)
 800144e:	4b41      	ldr	r3, [pc, #260]	; (8001554 <HAL_RCC_ClockConfig+0x1c8>)
 8001450:	681b      	ldr	r3, [r3, #0]
 8001452:	f003 7300 	and.w	r3, r3, #33554432	; 0x2000000
 8001456:	2b00      	cmp	r3, #0
 8001458:	d109      	bne.n	800146e <HAL_RCC_ClockConfig+0xe2>
      {
        return HAL_ERROR;
 800145a:	2301      	movs	r3, #1
 800145c:	e073      	b.n	8001546 <HAL_RCC_ClockConfig+0x1ba>
    }
    /* HSI is selected as System Clock Source */
    else
    {
      /* Check the HSI ready flag */
      if (__HAL_RCC_GET_FLAG(RCC_FLAG_HSIRDY) == RESET)
 800145e:	4b3d      	ldr	r3, [pc, #244]	; (8001554 <HAL_RCC_ClockConfig+0x1c8>)
 8001460:	681b      	ldr	r3, [r3, #0]
 8001462:	f003 0302 	and.w	r3, r3, #2
 8001466:	2b00      	cmp	r3, #0
 8001468:	d101      	bne.n	800146e <HAL_RCC_ClockConfig+0xe2>
      {
        return HAL_ERROR;
 800146a:	2301      	movs	r3, #1
 800146c:	e06b      	b.n	8001546 <HAL_RCC_ClockConfig+0x1ba>
      }
    }

    __HAL_RCC_SYSCLK_CONFIG(RCC_ClkInitStruct->SYSCLKSource);
 800146e:	4b39      	ldr	r3, [pc, #228]	; (8001554 <HAL_RCC_ClockConfig+0x1c8>)
 8001470:	689b      	ldr	r3, [r3, #8]
 8001472:	f023 0203 	bic.w	r2, r3, #3
 8001476:	687b      	ldr	r3, [r7, #4]
 8001478:	685b      	ldr	r3, [r3, #4]
 800147a:	4936      	ldr	r1, [pc, #216]	; (8001554 <HAL_RCC_ClockConfig+0x1c8>)
 800147c:	4313      	orrs	r3, r2
 800147e:	608b      	str	r3, [r1, #8]

    /* Get Start Tick*/
    tickstart = HAL_GetTick();
 8001480:	f7ff f9ea 	bl	8000858 <HAL_GetTick>
 8001484:	60f8      	str	r0, [r7, #12]

    while (__HAL_RCC_GET_SYSCLK_SOURCE() != (RCC_ClkInitStruct->SYSCLKSource << RCC_CFGR_SWS_Pos))
 8001486:	e00a      	b.n	800149e <HAL_RCC_ClockConfig+0x112>
    {
      if ((HAL_GetTick() - tickstart) > CLOCKSWITCH_TIMEOUT_VALUE)
 8001488:	f7ff f9e6 	bl	8000858 <HAL_GetTick>
 800148c:	4602      	mov	r2, r0
 800148e:	68fb      	ldr	r3, [r7, #12]
 8001490:	1ad3      	subs	r3, r2, r3
 8001492:	f241 3288 	movw	r2, #5000	; 0x1388
 8001496:	4293      	cmp	r3, r2
 8001498:	d901      	bls.n	800149e <HAL_RCC_ClockConfig+0x112>
      {
        return HAL_TIMEOUT;
 800149a:	2303      	movs	r3, #3
 800149c:	e053      	b.n	8001546 <HAL_RCC_ClockConfig+0x1ba>
    while (__HAL_RCC_GET_SYSCLK_SOURCE() != (RCC_ClkInitStruct->SYSCLKSource << RCC_CFGR_SWS_Pos))
 800149e:	4b2d      	ldr	r3, [pc, #180]	; (8001554 <HAL_RCC_ClockConfig+0x1c8>)
 80014a0:	689b      	ldr	r3, [r3, #8]
 80014a2:	f003 020c 	and.w	r2, r3, #12
 80014a6:	687b      	ldr	r3, [r7, #4]
 80014a8:	685b      	ldr	r3, [r3, #4]
 80014aa:	009b      	lsls	r3, r3, #2
 80014ac:	429a      	cmp	r2, r3
 80014ae:	d1eb      	bne.n	8001488 <HAL_RCC_ClockConfig+0xfc>
      }
    }
  }

  /* Decreasing the number of wait states because of lower CPU frequency */
  if (FLatency < __HAL_FLASH_GET_LATENCY())
 80014b0:	4b27      	ldr	r3, [pc, #156]	; (8001550 <HAL_RCC_ClockConfig+0x1c4>)
 80014b2:	681b      	ldr	r3, [r3, #0]
 80014b4:	f003 030f 	and.w	r3, r3, #15
 80014b8:	683a      	ldr	r2, [r7, #0]
 80014ba:	429a      	cmp	r2, r3
 80014bc:	d210      	bcs.n	80014e0 <HAL_RCC_ClockConfig+0x154>
  {
    /* Program the new number of wait states to the LATENCY bits in the FLASH_ACR register */
    __HAL_FLASH_SET_LATENCY(FLatency);
 80014be:	4b24      	ldr	r3, [pc, #144]	; (8001550 <HAL_RCC_ClockConfig+0x1c4>)
 80014c0:	681b      	ldr	r3, [r3, #0]
 80014c2:	f023 020f 	bic.w	r2, r3, #15
 80014c6:	4922      	ldr	r1, [pc, #136]	; (8001550 <HAL_RCC_ClockConfig+0x1c4>)
 80014c8:	683b      	ldr	r3, [r7, #0]
 80014ca:	4313      	orrs	r3, r2
 80014cc:	600b      	str	r3, [r1, #0]

    /* Check that the new number of wait states is taken into account to access the Flash
    memory by reading the FLASH_ACR register */
    if (__HAL_FLASH_GET_LATENCY() != FLatency)
 80014ce:	4b20      	ldr	r3, [pc, #128]	; (8001550 <HAL_RCC_ClockConfig+0x1c4>)
 80014d0:	681b      	ldr	r3, [r3, #0]
 80014d2:	f003 030f 	and.w	r3, r3, #15
 80014d6:	683a      	ldr	r2, [r7, #0]
 80014d8:	429a      	cmp	r2, r3
 80014da:	d001      	beq.n	80014e0 <HAL_RCC_ClockConfig+0x154>
    {
      return HAL_ERROR;
 80014dc:	2301      	movs	r3, #1
 80014de:	e032      	b.n	8001546 <HAL_RCC_ClockConfig+0x1ba>
    }
  }

  /*-------------------------- PCLK1 Configuration ---------------------------*/
  if (((RCC_ClkInitStruct->ClockType) & RCC_CLOCKTYPE_PCLK1) == RCC_CLOCKTYPE_PCLK1)
 80014e0:	687b      	ldr	r3, [r7, #4]
 80014e2:	681b      	ldr	r3, [r3, #0]
 80014e4:	f003 0304 	and.w	r3, r3, #4
 80014e8:	2b00      	cmp	r3, #0
 80014ea:	d008      	beq.n	80014fe <HAL_RCC_ClockConfig+0x172>
  {
    assert_param(IS_RCC_PCLK(RCC_ClkInitStruct->APB1CLKDivider));
    MODIFY_REG(RCC->CFGR, RCC_CFGR_PPRE1, RCC_ClkInitStruct->APB1CLKDivider);
 80014ec:	4b19      	ldr	r3, [pc, #100]	; (8001554 <HAL_RCC_ClockConfig+0x1c8>)
 80014ee:	689b      	ldr	r3, [r3, #8]
 80014f0:	f423 52e0 	bic.w	r2, r3, #7168	; 0x1c00
 80014f4:	687b      	ldr	r3, [r7, #4]
 80014f6:	68db      	ldr	r3, [r3, #12]
 80014f8:	4916      	ldr	r1, [pc, #88]	; (8001554 <HAL_RCC_ClockConfig+0x1c8>)
 80014fa:	4313      	orrs	r3, r2
 80014fc:	608b      	str	r3, [r1, #8]
  }

  /*-------------------------- PCLK2 Configuration ---------------------------*/
  if (((RCC_ClkInitStruct->ClockType) & RCC_CLOCKTYPE_PCLK2) == RCC_CLOCKTYPE_PCLK2)
 80014fe:	687b      	ldr	r3, [r7, #4]
 8001500:	681b      	ldr	r3, [r3, #0]
 8001502:	f003 0308 	and.w	r3, r3, #8
 8001506:	2b00      	cmp	r3, #0
 8001508:	d009      	beq.n	800151e <HAL_RCC_ClockConfig+0x192>
  {
    assert_param(IS_RCC_PCLK(RCC_ClkInitStruct->APB2CLKDivider));
    MODIFY_REG(RCC->CFGR, RCC_CFGR_PPRE2, ((RCC_ClkInitStruct->APB2CLKDivider) << 3));
 800150a:	4b12      	ldr	r3, [pc, #72]	; (8001554 <HAL_RCC_ClockConfig+0x1c8>)
 800150c:	689b      	ldr	r3, [r3, #8]
 800150e:	f423 4260 	bic.w	r2, r3, #57344	; 0xe000
 8001512:	687b      	ldr	r3, [r7, #4]
 8001514:	691b      	ldr	r3, [r3, #16]
 8001516:	00db      	lsls	r3, r3, #3
 8001518:	490e      	ldr	r1, [pc, #56]	; (8001554 <HAL_RCC_ClockConfig+0x1c8>)
 800151a:	4313      	orrs	r3, r2
 800151c:	608b      	str	r3, [r1, #8]
  }

  /* Update the SystemCoreClock global variable */
  SystemCoreClock = HAL_RCC_GetSysClockFreq() >> AHBPrescTable[(RCC->CFGR & RCC_CFGR_HPRE) >> RCC_CFGR_HPRE_Pos];
 800151e:	f000 f821 	bl	8001564 <HAL_RCC_GetSysClockFreq>
 8001522:	4601      	mov	r1, r0
 8001524:	4b0b      	ldr	r3, [pc, #44]	; (8001554 <HAL_RCC_ClockConfig+0x1c8>)
 8001526:	689b      	ldr	r3, [r3, #8]
 8001528:	091b      	lsrs	r3, r3, #4
 800152a:	f003 030f 	and.w	r3, r3, #15
 800152e:	4a0a      	ldr	r2, [pc, #40]	; (8001558 <HAL_RCC_ClockConfig+0x1cc>)
 8001530:	5cd3      	ldrb	r3, [r2, r3]
 8001532:	fa21 f303 	lsr.w	r3, r1, r3
 8001536:	4a09      	ldr	r2, [pc, #36]	; (800155c <HAL_RCC_ClockConfig+0x1d0>)
 8001538:	6013      	str	r3, [r2, #0]

  /* Configure the source of time base considering new system clocks settings*/
  HAL_InitTick(uwTickPrio);
 800153a:	4b09      	ldr	r3, [pc, #36]	; (8001560 <HAL_RCC_ClockConfig+0x1d4>)
 800153c:	681b      	ldr	r3, [r3, #0]
 800153e:	4618      	mov	r0, r3
 8001540:	f7ff f946 	bl	80007d0 <HAL_InitTick>

  return HAL_OK;
 8001544:	2300      	movs	r3, #0
}
 8001546:	4618      	mov	r0, r3
 8001548:	3710      	adds	r7, #16
 800154a:	46bd      	mov	sp, r7
 800154c:	bd80      	pop	{r7, pc}
 800154e:	bf00      	nop
 8001550:	40023c00 	.word	0x40023c00
 8001554:	40023800 	.word	0x40023800
 8001558:	08001738 	.word	0x08001738
 800155c:	20000000 	.word	0x20000000
 8001560:	20000004 	.word	0x20000004

08001564 <HAL_RCC_GetSysClockFreq>:
  *
  *
  * @retval SYSCLK frequency
  */
uint32_t HAL_RCC_GetSysClockFreq(void)
{
 8001564:	b5f0      	push	{r4, r5, r6, r7, lr}
 8001566:	b085      	sub	sp, #20
 8001568:	af00      	add	r7, sp, #0
  uint32_t pllm = 0, pllvco = 0, pllp = 0;
 800156a:	2300      	movs	r3, #0
 800156c:	607b      	str	r3, [r7, #4]
 800156e:	2300      	movs	r3, #0
 8001570:	60fb      	str	r3, [r7, #12]
 8001572:	2300      	movs	r3, #0
 8001574:	603b      	str	r3, [r7, #0]
  uint32_t sysclockfreq = 0;
 8001576:	2300      	movs	r3, #0
 8001578:	60bb      	str	r3, [r7, #8]

  /* Get SYSCLK source -------------------------------------------------------*/
  switch (RCC->CFGR & RCC_CFGR_SWS)
 800157a:	4b50      	ldr	r3, [pc, #320]	; (80016bc <HAL_RCC_GetSysClockFreq+0x158>)
 800157c:	689b      	ldr	r3, [r3, #8]
 800157e:	f003 030c 	and.w	r3, r3, #12
 8001582:	2b04      	cmp	r3, #4
 8001584:	d007      	beq.n	8001596 <HAL_RCC_GetSysClockFreq+0x32>
 8001586:	2b08      	cmp	r3, #8
 8001588:	d008      	beq.n	800159c <HAL_RCC_GetSysClockFreq+0x38>
 800158a:	2b00      	cmp	r3, #0
 800158c:	f040 808d 	bne.w	80016aa <HAL_RCC_GetSysClockFreq+0x146>
  {
    case RCC_SYSCLKSOURCE_STATUS_HSI:  /* HSI used as system clock source */
    {
      sysclockfreq = HSI_VALUE;
 8001590:	4b4b      	ldr	r3, [pc, #300]	; (80016c0 <HAL_RCC_GetSysClockFreq+0x15c>)
 8001592:	60bb      	str	r3, [r7, #8]
      break;
 8001594:	e08c      	b.n	80016b0 <HAL_RCC_GetSysClockFreq+0x14c>
    }
    case RCC_SYSCLKSOURCE_STATUS_HSE:  /* HSE used as system clock  source */
    {
      sysclockfreq = HSE_VALUE;
 8001596:	4b4b      	ldr	r3, [pc, #300]	; (80016c4 <HAL_RCC_GetSysClockFreq+0x160>)
 8001598:	60bb      	str	r3, [r7, #8]
      break;
 800159a:	e089      	b.n	80016b0 <HAL_RCC_GetSysClockFreq+0x14c>
    }
    case RCC_SYSCLKSOURCE_STATUS_PLLCLK:  /* PLL used as system clock  source */
    {
      /* PLL_VCO = (HSE_VALUE or HSI_VALUE / PLLM) * PLLN
      SYSCLK = PLL_VCO / PLLP */
      pllm = RCC->PLLCFGR & RCC_PLLCFGR_PLLM;
 800159c:	4b47      	ldr	r3, [pc, #284]	; (80016bc <HAL_RCC_GetSysClockFreq+0x158>)
 800159e:	685b      	ldr	r3, [r3, #4]
 80015a0:	f003 033f 	and.w	r3, r3, #63	; 0x3f
 80015a4:	607b      	str	r3, [r7, #4]
      if (__HAL_RCC_GET_PLL_OSCSOURCE() != RCC_PLLCFGR_PLLSRC_HSI)
 80015a6:	4b45      	ldr	r3, [pc, #276]	; (80016bc <HAL_RCC_GetSysClockFreq+0x158>)
 80015a8:	685b      	ldr	r3, [r3, #4]
 80015aa:	f403 0380 	and.w	r3, r3, #4194304	; 0x400000
 80015ae:	2b00      	cmp	r3, #0
 80015b0:	d023      	beq.n	80015fa <HAL_RCC_GetSysClockFreq+0x96>
      {
        /* HSE used as PLL clock source */
        pllvco = (uint32_t)((((uint64_t) HSE_VALUE * ((uint64_t)((RCC->PLLCFGR & RCC_PLLCFGR_PLLN) >> RCC_PLLCFGR_PLLN_Pos)))) / (uint64_t)pllm);
 80015b2:	4b42      	ldr	r3, [pc, #264]	; (80016bc <HAL_RCC_GetSysClockFreq+0x158>)
 80015b4:	685b      	ldr	r3, [r3, #4]
 80015b6:	099b      	lsrs	r3, r3, #6
 80015b8:	f04f 0400 	mov.w	r4, #0
 80015bc:	f240 11ff 	movw	r1, #511	; 0x1ff
 80015c0:	f04f 0200 	mov.w	r2, #0
 80015c4:	ea03 0501 	and.w	r5, r3, r1
 80015c8:	ea04 0602 	and.w	r6, r4, r2
 80015cc:	4a3d      	ldr	r2, [pc, #244]	; (80016c4 <HAL_RCC_GetSysClockFreq+0x160>)
 80015ce:	fb02 f106 	mul.w	r1, r2, r6
 80015d2:	2200      	movs	r2, #0
 80015d4:	fb02 f205 	mul.w	r2, r2, r5
 80015d8:	440a      	add	r2, r1
 80015da:	493a      	ldr	r1, [pc, #232]	; (80016c4 <HAL_RCC_GetSysClockFreq+0x160>)
 80015dc:	fba5 0101 	umull	r0, r1, r5, r1
 80015e0:	1853      	adds	r3, r2, r1
 80015e2:	4619      	mov	r1, r3
 80015e4:	687b      	ldr	r3, [r7, #4]
 80015e6:	f04f 0400 	mov.w	r4, #0
 80015ea:	461a      	mov	r2, r3
 80015ec:	4623      	mov	r3, r4
 80015ee:	f7fe fe23 	bl	8000238 <__aeabi_uldivmod>
 80015f2:	4603      	mov	r3, r0
 80015f4:	460c      	mov	r4, r1
 80015f6:	60fb      	str	r3, [r7, #12]
 80015f8:	e049      	b.n	800168e <HAL_RCC_GetSysClockFreq+0x12a>
      }
      else
      {
        /* HSI used as PLL clock source */
        pllvco = (uint32_t)((((uint64_t) HSI_VALUE * ((uint64_t)((RCC->PLLCFGR & RCC_PLLCFGR_PLLN) >> RCC_PLLCFGR_PLLN_Pos)))) / (uint64_t)pllm);
 80015fa:	4b30      	ldr	r3, [pc, #192]	; (80016bc <HAL_RCC_GetSysClockFreq+0x158>)
 80015fc:	685b      	ldr	r3, [r3, #4]
 80015fe:	099b      	lsrs	r3, r3, #6
 8001600:	f04f 0400 	mov.w	r4, #0
 8001604:	f240 11ff 	movw	r1, #511	; 0x1ff
 8001608:	f04f 0200 	mov.w	r2, #0
 800160c:	ea03 0501 	and.w	r5, r3, r1
 8001610:	ea04 0602 	and.w	r6, r4, r2
 8001614:	4629      	mov	r1, r5
 8001616:	4632      	mov	r2, r6
 8001618:	f04f 0300 	mov.w	r3, #0
 800161c:	f04f 0400 	mov.w	r4, #0
 8001620:	0154      	lsls	r4, r2, #5
 8001622:	ea44 64d1 	orr.w	r4, r4, r1, lsr #27
 8001626:	014b      	lsls	r3, r1, #5
 8001628:	4619      	mov	r1, r3
 800162a:	4622      	mov	r2, r4
 800162c:	1b49      	subs	r1, r1, r5
 800162e:	eb62 0206 	sbc.w	r2, r2, r6
 8001632:	f04f 0300 	mov.w	r3, #0
 8001636:	f04f 0400 	mov.w	r4, #0
 800163a:	0194      	lsls	r4, r2, #6
 800163c:	ea44 6491 	orr.w	r4, r4, r1, lsr #26
 8001640:	018b      	lsls	r3, r1, #6
 8001642:	1a5b      	subs	r3, r3, r1
 8001644:	eb64 0402 	sbc.w	r4, r4, r2
 8001648:	f04f 0100 	mov.w	r1, #0
 800164c:	f04f 0200 	mov.w	r2, #0
 8001650:	00e2      	lsls	r2, r4, #3
 8001652:	ea42 7253 	orr.w	r2, r2, r3, lsr #29
 8001656:	00d9      	lsls	r1, r3, #3
 8001658:	460b      	mov	r3, r1
 800165a:	4614      	mov	r4, r2
 800165c:	195b      	adds	r3, r3, r5
 800165e:	eb44 0406 	adc.w	r4, r4, r6
 8001662:	f04f 0100 	mov.w	r1, #0
 8001666:	f04f 0200 	mov.w	r2, #0
 800166a:	02a2      	lsls	r2, r4, #10
 800166c:	ea42 5293 	orr.w	r2, r2, r3, lsr #22
 8001670:	0299      	lsls	r1, r3, #10
 8001672:	460b      	mov	r3, r1
 8001674:	4614      	mov	r4, r2
 8001676:	4618      	mov	r0, r3
 8001678:	4621      	mov	r1, r4
 800167a:	687b      	ldr	r3, [r7, #4]
 800167c:	f04f 0400 	mov.w	r4, #0
 8001680:	461a      	mov	r2, r3
 8001682:	4623      	mov	r3, r4
 8001684:	f7fe fdd8 	bl	8000238 <__aeabi_uldivmod>
 8001688:	4603      	mov	r3, r0
 800168a:	460c      	mov	r4, r1
 800168c:	60fb      	str	r3, [r7, #12]
      }
      pllp = ((((RCC->PLLCFGR & RCC_PLLCFGR_PLLP) >> RCC_PLLCFGR_PLLP_Pos) + 1) * 2);
 800168e:	4b0b      	ldr	r3, [pc, #44]	; (80016bc <HAL_RCC_GetSysClockFreq+0x158>)
 8001690:	685b      	ldr	r3, [r3, #4]
 8001692:	0c1b      	lsrs	r3, r3, #16
 8001694:	f003 0303 	and.w	r3, r3, #3
 8001698:	3301      	adds	r3, #1
 800169a:	005b      	lsls	r3, r3, #1
 800169c:	603b      	str	r3, [r7, #0]

      sysclockfreq = pllvco / pllp;
 800169e:	68fa      	ldr	r2, [r7, #12]
 80016a0:	683b      	ldr	r3, [r7, #0]
 80016a2:	fbb2 f3f3 	udiv	r3, r2, r3
 80016a6:	60bb      	str	r3, [r7, #8]
      break;
 80016a8:	e002      	b.n	80016b0 <HAL_RCC_GetSysClockFreq+0x14c>
    }
    default:
    {
      sysclockfreq = HSI_VALUE;
 80016aa:	4b05      	ldr	r3, [pc, #20]	; (80016c0 <HAL_RCC_GetSysClockFreq+0x15c>)
 80016ac:	60bb      	str	r3, [r7, #8]
      break;
 80016ae:	bf00      	nop
    }
  }
  return sysclockfreq;
 80016b0:	68bb      	ldr	r3, [r7, #8]
}
 80016b2:	4618      	mov	r0, r3
 80016b4:	3714      	adds	r7, #20
 80016b6:	46bd      	mov	sp, r7
 80016b8:	bdf0      	pop	{r4, r5, r6, r7, pc}
 80016ba:	bf00      	nop
 80016bc:	40023800 	.word	0x40023800
 80016c0:	00f42400 	.word	0x00f42400
 80016c4:	017d7840 	.word	0x017d7840

080016c8 <__libc_init_array>:
 80016c8:	b570      	push	{r4, r5, r6, lr}
 80016ca:	4e0d      	ldr	r6, [pc, #52]	; (8001700 <__libc_init_array+0x38>)
 80016cc:	4c0d      	ldr	r4, [pc, #52]	; (8001704 <__libc_init_array+0x3c>)
 80016ce:	1ba4      	subs	r4, r4, r6
 80016d0:	10a4      	asrs	r4, r4, #2
 80016d2:	2500      	movs	r5, #0
 80016d4:	42a5      	cmp	r5, r4
 80016d6:	d109      	bne.n	80016ec <__libc_init_array+0x24>
 80016d8:	4e0b      	ldr	r6, [pc, #44]	; (8001708 <__libc_init_array+0x40>)
 80016da:	4c0c      	ldr	r4, [pc, #48]	; (800170c <__libc_init_array+0x44>)
 80016dc:	f000 f820 	bl	8001720 <_init>
 80016e0:	1ba4      	subs	r4, r4, r6
 80016e2:	10a4      	asrs	r4, r4, #2
 80016e4:	2500      	movs	r5, #0
 80016e6:	42a5      	cmp	r5, r4
 80016e8:	d105      	bne.n	80016f6 <__libc_init_array+0x2e>
 80016ea:	bd70      	pop	{r4, r5, r6, pc}
 80016ec:	f856 3025 	ldr.w	r3, [r6, r5, lsl #2]
 80016f0:	4798      	blx	r3
 80016f2:	3501      	adds	r5, #1
 80016f4:	e7ee      	b.n	80016d4 <__libc_init_array+0xc>
 80016f6:	f856 3025 	ldr.w	r3, [r6, r5, lsl #2]
 80016fa:	4798      	blx	r3
 80016fc:	3501      	adds	r5, #1
 80016fe:	e7f2      	b.n	80016e6 <__libc_init_array+0x1e>
 8001700:	08001750 	.word	0x08001750
 8001704:	08001750 	.word	0x08001750
 8001708:	08001750 	.word	0x08001750
 800170c:	08001754 	.word	0x08001754

08001710 <memset>:
 8001710:	4402      	add	r2, r0
 8001712:	4603      	mov	r3, r0
 8001714:	4293      	cmp	r3, r2
 8001716:	d100      	bne.n	800171a <memset+0xa>
 8001718:	4770      	bx	lr
 800171a:	f803 1b01 	strb.w	r1, [r3], #1
 800171e:	e7f9      	b.n	8001714 <memset+0x4>

08001720 <_init>:
 8001720:	b5f8      	push	{r3, r4, r5, r6, r7, lr}
 8001722:	bf00      	nop
 8001724:	bcf8      	pop	{r3, r4, r5, r6, r7}
 8001726:	bc08      	pop	{r3}
 8001728:	469e      	mov	lr, r3
 800172a:	4770      	bx	lr

0800172c <_fini>:
 800172c:	b5f8      	push	{r3, r4, r5, r6, r7, lr}
 800172e:	bf00      	nop
 8001730:	bcf8      	pop	{r3, r4, r5, r6, r7}
 8001732:	bc08      	pop	{r3}
 8001734:	469e      	mov	lr, r3
 8001736:	4770      	bx	lr
